{
  "contractName": "EarlyBirds",
  "abi": [
    {
      "inputs": [
        {
          "internalType": "address",
          "name": "_token",
          "type": "address"
        }
      ],
      "stateMutability": "nonpayable",
      "type": "constructor"
    },
    {
      "anonymous": false,
      "inputs": [
        {
          "indexed": false,
          "internalType": "string",
          "name": "title",
          "type": "string"
        },
        {
          "indexed": false,
          "internalType": "uint256",
          "name": "id",
          "type": "uint256"
        }
      ],
      "name": "LogCampaignClosed",
      "type": "event"
    },
    {
      "anonymous": false,
      "inputs": [
        {
          "indexed": false,
          "internalType": "string",
          "name": "title",
          "type": "string"
        },
        {
          "indexed": false,
          "internalType": "uint256",
          "name": "id",
          "type": "uint256"
        }
      ],
      "name": "LogCampaignFull",
      "type": "event"
    },
    {
      "anonymous": false,
      "inputs": [
        {
          "indexed": false,
          "internalType": "string",
          "name": "title",
          "type": "string"
        },
        {
          "indexed": false,
          "internalType": "uint256",
          "name": "id",
          "type": "uint256"
        },
        {
          "indexed": false,
          "internalType": "bytes4",
          "name": "campaignCode",
          "type": "bytes4"
        }
      ],
      "name": "LogCampaignOpened",
      "type": "event"
    },
    {
      "anonymous": false,
      "inputs": [
        {
          "indexed": false,
          "internalType": "address",
          "name": "_address",
          "type": "address"
        },
        {
          "indexed": false,
          "internalType": "uint256",
          "name": "campaignID",
          "type": "uint256"
        }
      ],
      "name": "LogRegistration",
      "type": "event"
    },
    {
      "anonymous": false,
      "inputs": [
        {
          "indexed": true,
          "internalType": "address",
          "name": "previousOwner",
          "type": "address"
        },
        {
          "indexed": true,
          "internalType": "address",
          "name": "newOwner",
          "type": "address"
        }
      ],
      "name": "OwnershipTransferred",
      "type": "event"
    },
    {
      "inputs": [],
      "name": "AIRDROP_SUPPLY",
      "outputs": [
        {
          "internalType": "uint256",
          "name": "",
          "type": "uint256"
        }
      ],
      "stateMutability": "view",
      "type": "function",
      "constant": true
    },
    {
      "inputs": [],
      "name": "DECIMALFACTOR",
      "outputs": [
        {
          "internalType": "uint256",
          "name": "",
          "type": "uint256"
        }
      ],
      "stateMutability": "view",
      "type": "function",
      "constant": true
    },
    {
      "inputs": [],
      "name": "DECIMALS",
      "outputs": [
        {
          "internalType": "uint8",
          "name": "",
          "type": "uint8"
        }
      ],
      "stateMutability": "view",
      "type": "function",
      "constant": true
    },
    {
      "inputs": [],
      "name": "TOTAL_SUPPLY",
      "outputs": [
        {
          "internalType": "uint256",
          "name": "",
          "type": "uint256"
        }
      ],
      "stateMutability": "view",
      "type": "function",
      "constant": true
    },
    {
      "inputs": [
        {
          "internalType": "bytes4",
          "name": "",
          "type": "bytes4"
        }
      ],
      "name": "campaignCodes",
      "outputs": [
        {
          "internalType": "uint256",
          "name": "",
          "type": "uint256"
        }
      ],
      "stateMutability": "view",
      "type": "function",
      "constant": true
    },
    {
      "inputs": [],
      "name": "campaignCount",
      "outputs": [
        {
          "internalType": "uint256",
          "name": "",
          "type": "uint256"
        }
      ],
      "stateMutability": "view",
      "type": "function",
      "constant": true
    },
    {
      "inputs": [
        {
          "internalType": "uint256",
          "name": "",
          "type": "uint256"
        }
      ],
      "name": "campaigns",
      "outputs": [
        {
          "internalType": "string",
          "name": "title",
          "type": "string"
        },
        {
          "internalType": "bytes4",
          "name": "code",
          "type": "bytes4"
        },
        {
          "internalType": "uint256",
          "name": "id",
          "type": "uint256"
        },
        {
          "internalType": "enum EarlyBirds.State",
          "name": "state",
          "type": "uint8"
        },
        {
          "internalType": "uint256",
          "name": "capacity",
          "type": "uint256"
        },
        {
          "internalType": "address",
          "name": "host",
          "type": "address"
        }
      ],
      "stateMutability": "view",
      "type": "function",
      "constant": true
    },
    {
      "inputs": [],
      "name": "owner",
      "outputs": [
        {
          "internalType": "address",
          "name": "",
          "type": "address"
        }
      ],
      "stateMutability": "view",
      "type": "function",
      "constant": true
    },
    {
      "inputs": [
        {
          "internalType": "address",
          "name": "",
          "type": "address"
        }
      ],
      "name": "registrantStatus",
      "outputs": [
        {
          "internalType": "bool",
          "name": "",
          "type": "bool"
        }
      ],
      "stateMutability": "view",
      "type": "function",
      "constant": true
    },
    {
      "inputs": [],
      "name": "renounceOwnership",
      "outputs": [],
      "stateMutability": "nonpayable",
      "type": "function"
    },
    {
      "inputs": [
        {
          "internalType": "address",
          "name": "newOwner",
          "type": "address"
        }
      ],
      "name": "transferOwnership",
      "outputs": [],
      "stateMutability": "nonpayable",
      "type": "function"
    },
    {
      "inputs": [],
      "name": "wormies",
      "outputs": [
        {
          "internalType": "contract Wormies",
          "name": "",
          "type": "address"
        }
      ],
      "stateMutability": "view",
      "type": "function",
      "constant": true
    },
    {
      "inputs": [
        {
          "internalType": "string",
          "name": "_title",
          "type": "string"
        },
        {
          "internalType": "uint256",
          "name": "_capacity",
          "type": "uint256"
        }
      ],
      "name": "addCampaign",
      "outputs": [
        {
          "internalType": "bool",
          "name": "",
          "type": "bool"
        },
        {
          "internalType": "uint256",
          "name": "",
          "type": "uint256"
        }
      ],
      "stateMutability": "nonpayable",
      "type": "function"
    },
    {
      "inputs": [
        {
          "internalType": "bytes4",
          "name": "_code",
          "type": "bytes4"
        }
      ],
      "name": "register",
      "outputs": [
        {
          "internalType": "bool",
          "name": "",
          "type": "bool"
        }
      ],
      "stateMutability": "nonpayable",
      "type": "function"
    },
    {
      "inputs": [
        {
          "internalType": "uint256",
          "name": "_id",
          "type": "uint256"
        }
      ],
      "name": "close",
      "outputs": [
        {
          "internalType": "bool",
          "name": "",
          "type": "bool"
        }
      ],
      "stateMutability": "nonpayable",
      "type": "function"
    },
    {
      "inputs": [
        {
          "internalType": "bytes4",
          "name": "_code",
          "type": "bytes4"
        }
      ],
      "name": "closeByCode",
      "outputs": [
        {
          "internalType": "bool",
          "name": "",
          "type": "bool"
        }
      ],
      "stateMutability": "nonpayable",
      "type": "function"
    },
    {
      "inputs": [
        {
          "internalType": "uint256",
          "name": "_id",
          "type": "uint256"
        }
      ],
      "name": "airdrop",
      "outputs": [
        {
          "internalType": "bool",
          "name": "",
          "type": "bool"
        }
      ],
      "stateMutability": "nonpayable",
      "type": "function"
    },
    {
      "inputs": [],
      "name": "getCampaignID",
      "outputs": [
        {
          "internalType": "uint256",
          "name": "",
          "type": "uint256"
        }
      ],
      "stateMutability": "view",
      "type": "function",
      "constant": true
    },
    {
      "inputs": [
        {
          "internalType": "bytes4",
          "name": "_code",
          "type": "bytes4"
        }
      ],
      "name": "codeToID",
      "outputs": [
        {
          "internalType": "uint256",
          "name": "",
          "type": "uint256"
        }
      ],
      "stateMutability": "view",
      "type": "function",
      "constant": true
    },
    {
      "inputs": [
        {
          "internalType": "uint256",
          "name": "_id",
          "type": "uint256"
        }
      ],
      "name": "getCampaignDetails",
      "outputs": [
        {
          "internalType": "string",
          "name": "",
          "type": "string"
        },
        {
          "internalType": "bytes4",
          "name": "",
          "type": "bytes4"
        },
        {
          "internalType": "enum EarlyBirds.State",
          "name": "",
          "type": "uint8"
        },
        {
          "internalType": "uint256",
          "name": "",
          "type": "uint256"
        },
        {
          "internalType": "address",
          "name": "",
          "type": "address"
        },
        {
          "internalType": "uint256",
          "name": "",
          "type": "uint256"
        }
      ],
      "stateMutability": "view",
      "type": "function",
      "constant": true
    },
    {
      "inputs": [],
      "name": "getLastCampaignDetails",
      "outputs": [
        {
          "internalType": "string",
          "name": "",
          "type": "string"
        },
        {
          "internalType": "bytes4",
          "name": "",
          "type": "bytes4"
        },
        {
          "internalType": "enum EarlyBirds.State",
          "name": "",
          "type": "uint8"
        },
        {
          "internalType": "uint256",
          "name": "",
          "type": "uint256"
        },
        {
          "internalType": "address",
          "name": "",
          "type": "address"
        },
        {
          "internalType": "uint256",
          "name": "",
          "type": "uint256"
        }
      ],
      "stateMutability": "view",
      "type": "function",
      "constant": true
    },
    {
      "inputs": [
        {
          "internalType": "bytes4",
          "name": "_code",
          "type": "bytes4"
        }
      ],
      "name": "getCampaignDetailsByCode",
      "outputs": [
        {
          "internalType": "string",
          "name": "",
          "type": "string"
        },
        {
          "internalType": "bytes4",
          "name": "",
          "type": "bytes4"
        },
        {
          "internalType": "enum EarlyBirds.State",
          "name": "",
          "type": "uint8"
        },
        {
          "internalType": "uint256",
          "name": "",
          "type": "uint256"
        },
        {
          "internalType": "address",
          "name": "",
          "type": "address"
        },
        {
          "internalType": "uint256",
          "name": "",
          "type": "uint256"
        }
      ],
      "stateMutability": "view",
      "type": "function",
      "constant": true
    },
    {
      "inputs": [
        {
          "internalType": "uint256",
          "name": "_id",
          "type": "uint256"
        }
      ],
      "name": "getCompaignCodeById",
      "outputs": [
        {
          "internalType": "bytes4",
          "name": "_code",
          "type": "bytes4"
        }
      ],
      "stateMutability": "view",
      "type": "function",
      "constant": true
    },
    {
      "inputs": [
        {
          "internalType": "uint256",
          "name": "_id",
          "type": "uint256"
        }
      ],
      "name": "getCompaignStateById",
      "outputs": [
        {
          "internalType": "enum EarlyBirds.State",
          "name": "",
          "type": "uint8"
        }
      ],
      "stateMutability": "view",
      "type": "function",
      "constant": true
    },
    {
      "inputs": [
        {
          "internalType": "uint256",
          "name": "_id",
          "type": "uint256"
        }
      ],
      "name": "getRemainingCapacityById",
      "outputs": [
        {
          "internalType": "uint256",
          "name": "",
          "type": "uint256"
        }
      ],
      "stateMutability": "view",
      "type": "function",
      "constant": true
    },
    {
      "inputs": [
        {
          "internalType": "uint256",
          "name": "_id",
          "type": "uint256"
        }
      ],
      "name": "getRegistrantCount",
      "outputs": [
        {
          "internalType": "uint256",
          "name": "",
          "type": "uint256"
        }
      ],
      "stateMutability": "view",
      "type": "function",
      "constant": true
    },
    {
      "inputs": [
        {
          "internalType": "uint256",
          "name": "_id",
          "type": "uint256"
        }
      ],
      "name": "getCapacityById",
      "outputs": [
        {
          "internalType": "uint256",
          "name": "",
          "type": "uint256"
        }
      ],
      "stateMutability": "view",
      "type": "function",
      "constant": true
    }
  ],
  "bytecode": "0x6080604052601260ff16600a6200001791906200034e565b629896806200002791906200039f565b600255601260ff16600a6200003d91906200034e565b64e8d4a510006200004f91906200039f565b6003553480156200005f57600080fd5b5060405162003df438038062003df483398181016040528101906200008591906200046a565b620000a562000099620000f560201b60201c565b620000fd60201b60201c565b600060018190555080600460006101000a81548173ffffffffffffffffffffffffffffffffffffffff021916908373ffffffffffffffffffffffffffffffffffffffff160217905550506200049c565b600033905090565b60008060009054906101000a900473ffffffffffffffffffffffffffffffffffffffff169050816000806101000a81548173ffffffffffffffffffffffffffffffffffffffff021916908373ffffffffffffffffffffffffffffffffffffffff1602179055508173ffffffffffffffffffffffffffffffffffffffff168173ffffffffffffffffffffffffffffffffffffffff167f8be0079c531659141344cd1fd0a4f28419497f9722a3daafe3b4186f6b6457e060405160405180910390a35050565b7f4e487b7100000000000000000000000000000000000000000000000000000000600052601160045260246000fd5b60008160011c9050919050565b6000808291508390505b60018511156200024f57808604811115620002275762000226620001c1565b5b6001851615620002375780820291505b80810290506200024785620001f0565b945062000207565b94509492505050565b6000826200026a57600190506200033d565b816200027a57600090506200033d565b81600181146200029357600281146200029e57620002d4565b60019150506200033d565b60ff841115620002b357620002b2620001c1565b5b8360020a915084821115620002cd57620002cc620001c1565b5b506200033d565b5060208310610133831016604e8410600b84101617156200030e5782820a905083811115620003085762000307620001c1565b5b6200033d565b6200031d8484846001620001fd565b92509050818404811115620003375762000336620001c1565b5b81810290505b9392505050565b6000819050919050565b60006200035b8262000344565b9150620003688362000344565b9250620003977fffffffffffffffffffffffffffffffffffffffffffffffffffffffffffffffff848462000258565b905092915050565b6000620003ac8262000344565b9150620003b98362000344565b9250817fffffffffffffffffffffffffffffffffffffffffffffffffffffffffffffffff0483118215151615620003f557620003f4620001c1565b5b828202905092915050565b600080fd5b600073ffffffffffffffffffffffffffffffffffffffff82169050919050565b6000620004328262000405565b9050919050565b620004448162000425565b81146200045057600080fd5b50565b600081519050620004648162000439565b92915050565b60006020828403121562000483576200048262000400565b5b6000620004938482850162000453565b91505092915050565b61394880620004ac6000396000f3fe608060405234801561001057600080fd5b50600436106101a95760003560e01c80638a857bc1116100f9578063b3d91e4111610097578063d92f94be11610071578063d92f94be14610546578063d993de6214610576578063e4a7ec4f146105ab578063f2fde38b146105db576101a9565b8063b3d91e41146104c8578063d09f90af146104e6578063d6fb295f14610516576101a9565b8063902d55a5116100d3578063902d55a51461041557806393b81d001461043357806397dc4a13146104685780639e97e16f14610498576101a9565b80638a857bc1146103a95780638d95bbcf146103c75780638da5cb5b146103f7576101a9565b80632e0f2625116101665780637274e30d116101405780637274e30d1461031a5780637bbb724f146103385780637c7019531461035657806383cf17d614610379576101a9565b80632e0f2625146102c257806339615a53146102e0578063715018a614610310576101a9565b806302405ef2146101ae5780630aebeb4e146101cc5780630eb66687146101fc578063122604371461022d578063141961bc1461025d5780632146f70c14610292575b600080fd5b6101b66105f7565b6040516101c39190612846565b60405180910390f35b6101e660048036038101906101e191906128a1565b610656565b6040516101f391906128e9565b60405180910390f35b61021660048036038101906102119190612a4a565b610874565b604051610224929190612aa6565b60405180910390f35b610247600480360381019061024291906128a1565b610a9f565b6040516102549190612b46565b60405180910390f35b610277600480360381019061027291906128a1565b610caf565b60405161028996959493929190612c65565b60405180910390f35b6102ac60048036038101906102a79190612cf9565b610dad565b6040516102b991906128e9565b60405180910390f35b6102ca610f07565b6040516102d79190612d42565b60405180910390f35b6102fa60048036038101906102f591906128a1565b610f0c565b6040516103079190612846565b60405180910390f35b610318611143565b005b6103226111cb565b60405161032f9190612846565b60405180910390f35b6103406111d1565b60405161034d9190612dbc565b60405180910390f35b61035e6111f7565b60405161037096959493929190612dd7565b60405180910390f35b610393600480360381019061038e91906128a1565b61127f565b6040516103a09190612846565b60405180910390f35b6103b161148f565b6040516103be9190612846565b60405180910390f35b6103e160048036038101906103dc9190612cf9565b611495565b6040516103ee9190612846565b60405180910390f35b6103ff611586565b60405161040c9190612e3f565b60405180910390f35b61041d6115af565b60405161042a9190612846565b60405180910390f35b61044d60048036038101906104489190612cf9565b6115b5565b60405161045f96959493929190612dd7565b60405180910390f35b610482600480360381019061047d91906128a1565b6115e5565b60405161048f91906128e9565b60405180910390f35b6104b260048036038101906104ad9190612e86565b61191f565b6040516104bf91906128e9565b60405180910390f35b6104d061193f565b6040516104dd9190612846565b60405180910390f35b61050060048036038101906104fb91906128a1565b611953565b60405161050d9190612846565b60405180910390f35b610530600480360381019061052b9190612cf9565b6119c6565b60405161053d91906128e9565b60405180910390f35b610560600480360381019061055b91906128a1565b611f53565b60405161056d9190612eb3565b60405180910390f35b610590600480360381019061058b91906128a1565b612209565b6040516105a296959493929190612dd7565b60405180910390f35b6105c560048036038101906105c09190612cf9565b612460565b6040516105d29190612846565b60405180910390f35b6105f560048036038101906105f09190612e86565b612478565b005b6000600154600154811115801561060e5750600081115b61064d576040517f08c379a000000000000000000000000000000000000000000000000000000000815260040161064490612f1a565b60405180910390fd5b60015491505090565b600081600154811115801561066b5750600081115b6106aa576040517f08c379a00000000000000000000000000000000000000000000000000000000081526004016106a190612f1a565b60405180910390fd5b826005600082815260200190815260200160002060050160009054906101000a900473ffffffffffffffffffffffffffffffffffffffff1673ffffffffffffffffffffffffffffffffffffffff163373ffffffffffffffffffffffffffffffffffffffff161461074f576040517f08c379a000000000000000000000000000000000000000000000000000000000815260040161074690612fac565b60405180910390fd5b836002600381111561076457610763612acf565b5b6005600083815260200190815260200160002060030160009054906101000a900460ff16600381111561079a57610799612acf565b5b14156107db576040517f08c379a00000000000000000000000000000000000000000000000000000000081526004016107d290613018565b60405180910390fd5b60026005600087815260200190815260200160002060030160006101000a81548160ff0219169083600381111561081557610814612acf565b5b02179055507fc46b99f2efd7cd2f7d87e519d6f92b5c95da33b8d602cb27d0edccfe40afe09b600560008781526020019081526020016000206000018660405161086092919061312e565b60405180910390a160019350505050919050565b6000806000610884858533612570565b90506001806000828254610898919061318d565b925050819055506040518060c00160405280868152602001827bffffffffffffffffffffffffffffffffffffffffffffffffffffffff191681526020016001548152602001600060038111156108f1576108f0612acf565b5b81526020018581526020013373ffffffffffffffffffffffffffffffffffffffff16815250600560006001548152602001908152602001600020600082015181600001908051906020019061094792919061278a565b5060208201518160010160006101000a81548163ffffffff021916908360e01c02179055506040820151816002015560608201518160030160006101000a81548160ff021916908360038111156109a1576109a0612acf565b5b02179055506080820151816004015560a08201518160050160006101000a81548173ffffffffffffffffffffffffffffffffffffffff021916908373ffffffffffffffffffffffffffffffffffffffff16021790555090505060015460066000837bffffffffffffffffffffffffffffffffffffffffffffffffffffffff19167bffffffffffffffffffffffffffffffffffffffffffffffffffffffff19168152602001908152602001600020819055507ff2631a889d6d622b874d228753934d83cb53da3a8ac65dcb7bd86ababdaa70f88560015483604051610a87939291906131e3565b60405180910390a16001805492509250509250929050565b6000816001548111158015610ab45750600081115b610af3576040517f08c379a0000000000000000000000000000000000000000000000000000000008152600401610aea90612f1a565b60405180910390fd5b6000600560008581526020019081526020016000206040518060c0016040529081600082018054610b2390613067565b80601f0160208091040260200160405190810160405280929190818152602001828054610b4f90613067565b8015610b9c5780601f10610b7157610100808354040283529160200191610b9c565b820191906000526020600020905b815481529060010190602001808311610b7f57829003601f168201915b505050505081526020016001820160009054906101000a900460e01b7bffffffffffffffffffffffffffffffffffffffffffffffffffffffff19167bffffffffffffffffffffffffffffffffffffffffffffffffffffffff19168152602001600282015481526020016003820160009054906101000a900460ff166003811115610c2957610c28612acf565b5b6003811115610c3b57610c3a612acf565b5b8152602001600482015481526020016005820160009054906101000a900473ffffffffffffffffffffffffffffffffffffffff1673ffffffffffffffffffffffffffffffffffffffff1673ffffffffffffffffffffffffffffffffffffffff16815250509050806060015192505050919050565b6005602052806000526040600020600091509050806000018054610cd290613067565b80601f0160208091040260200160405190810160405280929190818152602001828054610cfe90613067565b8015610d4b5780601f10610d2057610100808354040283529160200191610d4b565b820191906000526020600020905b815481529060010190602001808311610d2e57829003601f168201915b5050505050908060010160009054906101000a900460e01b908060020154908060030160009054906101000a900460ff16908060040154908060050160009054906101000a900473ffffffffffffffffffffffffffffffffffffffff16905086565b600060066000837bffffffffffffffffffffffffffffffffffffffffffffffffffffffff19167bffffffffffffffffffffffffffffffffffffffffffffffffffffffff19168152602001908152602001600020546005600082815260200190815260200160002060050160009054906101000a900473ffffffffffffffffffffffffffffffffffffffff1673ffffffffffffffffffffffffffffffffffffffff163373ffffffffffffffffffffffffffffffffffffffff1614610ea5576040517f08c379a0000000000000000000000000000000000000000000000000000000008152600401610e9c90612fac565b60405180910390fd5b610eff60066000857bffffffffffffffffffffffffffffffffffffffffffffffffffffffff19167bffffffffffffffffffffffffffffffffffffffffffffffffffffffff1916815260200190815260200160002054610656565b915050919050565b601281565b6000816001548111158015610f215750600081115b610f60576040517f08c379a0000000000000000000000000000000000000000000000000000000008152600401610f5790612f1a565b60405180910390fd5b6000600560008581526020019081526020016000206040518060c0016040529081600082018054610f9090613067565b80601f0160208091040260200160405190810160405280929190818152602001828054610fbc90613067565b80156110095780601f10610fde57610100808354040283529160200191611009565b820191906000526020600020905b815481529060010190602001808311610fec57829003601f168201915b505050505081526020016001820160009054906101000a900460e01b7bffffffffffffffffffffffffffffffffffffffffffffffffffffffff19167bffffffffffffffffffffffffffffffffffffffffffffffffffffffff19168152602001600282015481526020016003820160009054906101000a900460ff16600381111561109657611095612acf565b5b60038111156110a8576110a7612acf565b5b8152602001600482015481526020016005820160009054906101000a900473ffffffffffffffffffffffffffffffffffffffff1673ffffffffffffffffffffffffffffffffffffffff1673ffffffffffffffffffffffffffffffffffffffff168152505090506000600760008681526020019081526020016000208054905090508082608001516111399190613221565b9350505050919050565b61114b6125a6565b73ffffffffffffffffffffffffffffffffffffffff16611169611586565b73ffffffffffffffffffffffffffffffffffffffff16146111bf576040517f08c379a00000000000000000000000000000000000000000000000000000000081526004016111b6906132a1565b60405180910390fd5b6111c960006125ae565b565b60015481565b600460009054906101000a900473ffffffffffffffffffffffffffffffffffffffff1681565b606060008060008060006112096105f7565b600154811115801561121b5750600081115b61125a576040517f08c379a000000000000000000000000000000000000000000000000000000000815260040161125190612f1a565b60405180910390fd5b61126a6112656105f7565b612209565b96509650965096509650965050909192939495565b60008160015481111580156112945750600081115b6112d3576040517f08c379a00000000000000000000000000000000000000000000000000000000081526004016112ca90612f1a565b60405180910390fd5b6000600560008581526020019081526020016000206040518060c001604052908160008201805461130390613067565b80601f016020809104026020016040519081016040528092919081815260200182805461132f90613067565b801561137c5780601f106113515761010080835404028352916020019161137c565b820191906000526020600020905b81548152906001019060200180831161135f57829003601f168201915b505050505081526020016001820160009054906101000a900460e01b7bffffffffffffffffffffffffffffffffffffffffffffffffffffffff19167bffffffffffffffffffffffffffffffffffffffffffffffffffffffff19168152602001600282015481526020016003820160009054906101000a900460ff16600381111561140957611408612acf565b5b600381111561141b5761141a612acf565b5b8152602001600482015481526020016005820160009054906101000a900473ffffffffffffffffffffffffffffffffffffffff1673ffffffffffffffffffffffffffffffffffffffff1673ffffffffffffffffffffffffffffffffffffffff16815250509050806080015192505050919050565b60025481565b600081600060066000837bffffffffffffffffffffffffffffffffffffffffffffffffffffffff19167bffffffffffffffffffffffffffffffffffffffffffffffffffffffff19168152602001908152602001600020541161152c576040517f08c379a00000000000000000000000000000000000000000000000000000000081526004016115239061330d565b60405180910390fd5b60066000847bffffffffffffffffffffffffffffffffffffffffffffffffffffffff19167bffffffffffffffffffffffffffffffffffffffffffffffffffffffff1916815260200190815260200160002054915050919050565b60008060009054906101000a900473ffffffffffffffffffffffffffffffffffffffff16905090565b60035481565b606060008060008060006115d06115cb88611495565b612209565b95509550955095509550955091939550919395565b60008160015481111580156115fa5750600081115b611639576040517f08c379a000000000000000000000000000000000000000000000000000000000815260040161163090612f1a565b60405180910390fd5b6116416125a6565b73ffffffffffffffffffffffffffffffffffffffff1661165f611586565b73ffffffffffffffffffffffffffffffffffffffff16146116b5576040517f08c379a00000000000000000000000000000000000000000000000000000000081526004016116ac906132a1565b60405180910390fd5b8260006005600083815260200190815260200160002060030160009054906101000a900460ff169050600260038111156116f2576116f1612acf565b5b81600381111561170557611704612acf565b5b14806117355750600160038111156117205761171f612acf565b5b81600381111561173357611732612acf565b5b145b611774576040517f08c379a000000000000000000000000000000000000000000000000000000000815260040161176b9061339f565b60405180910390fd5b84600060076000838152602001908152602001600020805490501161179857600080fd5b60006007600088815260200190815260200160002080549050905060005b818110156118d1576000600760008a815260200190815260200160002082815481106117e5576117e46133bf565b5b9060005260206000200160009054906101000a900473ffffffffffffffffffffffffffffffffffffffff169050600460009054906101000a900473ffffffffffffffffffffffffffffffffffffffff1673ffffffffffffffffffffffffffffffffffffffff166340c10f1982601260ff16600a6118629190613521565b606461186e919061356c565b6040518363ffffffff1660e01b815260040161188b9291906135c6565b600060405180830381600087803b1580156118a557600080fd5b505af11580156118b9573d6000803e3d6000fd5b505050505080806118c9906135ef565b9150506117b6565b5060036005600089815260200190815260200160002060030160006101000a81548160ff0219169083600381111561190c5761190b612acf565b5b0217905550600195505050505050919050565b60086020528060005260406000206000915054906101000a900460ff1681565b601260ff16600a6119509190613521565b81565b60008160015481111580156119685750600081115b6119a7576040517f08c379a000000000000000000000000000000000000000000000000000000000815260040161199e90612f1a565b60405180910390fd5b6007600084815260200190815260200160002080549050915050919050565b600081600060066000837bffffffffffffffffffffffffffffffffffffffffffffffffffffffff19167bffffffffffffffffffffffffffffffffffffffffffffffffffffffff191681526020019081526020016000205411611a5d576040517f08c379a0000000000000000000000000000000000000000000000000000000008152600401611a549061330d565b60405180910390fd5b600860003373ffffffffffffffffffffffffffffffffffffffff1673ffffffffffffffffffffffffffffffffffffffff16815260200190815260200160002060009054906101000a900460ff1615611aea576040517f08c379a0000000000000000000000000000000000000000000000000000000008152600401611ae1906136aa565b60405180910390fd5b611af383611495565b60016003811115611b0757611b06612acf565b5b6005600083815260200190815260200160002060030160009054906101000a900460ff166003811115611b3d57611b3c612acf565b5b14158015611b76575060056000828152602001908152602001600020600401546007600083815260200190815260200160002080549050105b611bb5576040517f08c379a0000000000000000000000000000000000000000000000000000000008152600401611bac90613716565b60405180910390fd5b611bbe84611495565b6000600560008381526020019081526020016000206040518060c0016040529081600082018054611bee90613067565b80601f0160208091040260200160405190810160405280929190818152602001828054611c1a90613067565b8015611c675780601f10611c3c57610100808354040283529160200191611c67565b820191906000526020600020905b815481529060010190602001808311611c4a57829003601f168201915b505050505081526020016001820160009054906101000a900460e01b7bffffffffffffffffffffffffffffffffffffffffffffffffffffffff19167bffffffffffffffffffffffffffffffffffffffffffffffffffffffff19168152602001600282015481526020016003820160009054906101000a900460ff166003811115611cf457611cf3612acf565b5b6003811115611d0657611d05612acf565b5b8152602001600482015481526020016005820160009054906101000a900473ffffffffffffffffffffffffffffffffffffffff1673ffffffffffffffffffffffffffffffffffffffff1673ffffffffffffffffffffffffffffffffffffffff168152505090506000816000015190506000815114158015611daf575060006003811115611d9657611d95612acf565b5b82606001516003811115611dad57611dac612acf565b5b145b611dee576040517f08c379a0000000000000000000000000000000000000000000000000000000008152600401611de590613782565b60405180910390fd5b6000611df988611495565b90506000600560008381526020019081526020016000206004015490508060076000848152602001908152602001600020805490501015611ea95760076000838152602001908152602001600020339080600181540180825580915050600190039060005260206000200160009091909190916101000a81548173ffffffffffffffffffffffffffffffffffffffff021916908373ffffffffffffffffffffffffffffffffffffffff1602179055505b611eb282612672565b6001600860003373ffffffffffffffffffffffffffffffffffffffff1673ffffffffffffffffffffffffffffffffffffffff16815260200190815260200160002060006101000a81548160ff0219169083151502179055507f3479329ad3b085bce9776f2aa99ad193fd4208a8506d3db9985392b5fce30b853383604051611f3b9291906135c6565b60405180910390a16001975050505050505050919050565b6000816001548111158015611f685750600081115b611fa7576040517f08c379a0000000000000000000000000000000000000000000000000000000008152600401611f9e90612f1a565b60405180910390fd5b826005600082815260200190815260200160002060050160009054906101000a900473ffffffffffffffffffffffffffffffffffffffff1673ffffffffffffffffffffffffffffffffffffffff163373ffffffffffffffffffffffffffffffffffffffff161461204c576040517f08c379a000000000000000000000000000000000000000000000000000000000815260040161204390612fac565b60405180910390fd5b6000600560008681526020019081526020016000206040518060c001604052908160008201805461207c90613067565b80601f01602080910402602001604051908101604052809291908181526020018280546120a890613067565b80156120f55780601f106120ca576101008083540402835291602001916120f5565b820191906000526020600020905b8154815290600101906020018083116120d857829003601f168201915b505050505081526020016001820160009054906101000a900460e01b7bffffffffffffffffffffffffffffffffffffffffffffffffffffffff19167bffffffffffffffffffffffffffffffffffffffffffffffffffffffff19168152602001600282015481526020016003820160009054906101000a900460ff16600381111561218257612181612acf565b5b600381111561219457612193612acf565b5b8152602001600482015481526020016005820160009054906101000a900473ffffffffffffffffffffffffffffffffffffffff1673ffffffffffffffffffffffffffffffffffffffff1673ffffffffffffffffffffffffffffffffffffffff1681525050905080602001519350505050919050565b606060008060008060008660015481111580156122265750600081115b612265576040517f08c379a000000000000000000000000000000000000000000000000000000000815260040161225c90612f1a565b60405180910390fd5b6000600560008a81526020019081526020016000206040518060c001604052908160008201805461229590613067565b80601f01602080910402602001604051908101604052809291908181526020018280546122c190613067565b801561230e5780601f106122e35761010080835404028352916020019161230e565b820191906000526020600020905b8154815290600101906020018083116122f157829003601f168201915b505050505081526020016001820160009054906101000a900460e01b7bffffffffffffffffffffffffffffffffffffffffffffffffffffffff19167bffffffffffffffffffffffffffffffffffffffffffffffffffffffff19168152602001600282015481526020016003820160009054906101000a900460ff16600381111561239b5761239a612acf565b5b60038111156123ad576123ac612acf565b5b8152602001600482015481526020016005820160009054906101000a900473ffffffffffffffffffffffffffffffffffffffff1673ffffffffffffffffffffffffffffffffffffffff1673ffffffffffffffffffffffffffffffffffffffff168152505090506000600760008b815260200190815260200160002080549050905081600001518260200151836060015184608001518560a001518598509850985098509850985050505091939550919395565b60066020528060005260406000206000915090505481565b6124806125a6565b73ffffffffffffffffffffffffffffffffffffffff1661249e611586565b73ffffffffffffffffffffffffffffffffffffffff16146124f4576040517f08c379a00000000000000000000000000000000000000000000000000000000081526004016124eb906132a1565b60405180910390fd5b600073ffffffffffffffffffffffffffffffffffffffff168173ffffffffffffffffffffffffffffffffffffffff161415612564576040517f08c379a000000000000000000000000000000000000000000000000000000000815260040161255b90613814565b60405180910390fd5b61256d816125ae565b50565b6000838383604051602001612587939291906138d9565b6040516020818303038152906040528051906020012090509392505050565b600033905090565b60008060009054906101000a900473ffffffffffffffffffffffffffffffffffffffff169050816000806101000a81548173ffffffffffffffffffffffffffffffffffffffff021916908373ffffffffffffffffffffffffffffffffffffffff1602179055508173ffffffffffffffffffffffffffffffffffffffff168173ffffffffffffffffffffffffffffffffffffffff167f8be0079c531659141344cd1fd0a4f28419497f9722a3daafe3b4186f6b6457e060405160405180910390a35050565b8060015481111580156126855750600081115b6126c4576040517f08c379a00000000000000000000000000000000000000000000000000000000081526004016126bb90612f1a565b60405180910390fd5b6005600083815260200190815260200160002060040154600760008481526020019081526020016000208054905014156127385760016005600084815260200190815260200160002060030160006101000a81548160ff0219169083600381111561273257612731612acf565b5b02179055505b7f06cb8bd8c6a4102a31ce41f100ec97e0e6f550ee4dc1fbe8ad20cfa389c9b5ce600560008481526020019081526020016000206000018360405161277e92919061312e565b60405180910390a15050565b82805461279690613067565b90600052602060002090601f0160209004810192826127b857600085556127ff565b82601f106127d157805160ff19168380011785556127ff565b828001600101855582156127ff579182015b828111156127fe5782518255916020019190600101906127e3565b5b50905061280c9190612810565b5090565b5b80821115612829576000816000905550600101612811565b5090565b6000819050919050565b6128408161282d565b82525050565b600060208201905061285b6000830184612837565b92915050565b6000604051905090565b600080fd5b600080fd5b61287e8161282d565b811461288957600080fd5b50565b60008135905061289b81612875565b92915050565b6000602082840312156128b7576128b661286b565b5b60006128c58482850161288c565b91505092915050565b60008115159050919050565b6128e3816128ce565b82525050565b60006020820190506128fe60008301846128da565b92915050565b600080fd5b600080fd5b6000601f19601f8301169050919050565b7f4e487b7100000000000000000000000000000000000000000000000000000000600052604160045260246000fd5b6129578261290e565b810181811067ffffffffffffffff821117156129765761297561291f565b5b80604052505050565b6000612989612861565b9050612995828261294e565b919050565b600067ffffffffffffffff8211156129b5576129b461291f565b5b6129be8261290e565b9050602081019050919050565b82818337600083830152505050565b60006129ed6129e88461299a565b61297f565b905082815260208101848484011115612a0957612a08612909565b5b612a148482856129cb565b509392505050565b600082601f830112612a3157612a30612904565b5b8135612a418482602086016129da565b91505092915050565b60008060408385031215612a6157612a6061286b565b5b600083013567ffffffffffffffff811115612a7f57612a7e612870565b5b612a8b85828601612a1c565b9250506020612a9c8582860161288c565b9150509250929050565b6000604082019050612abb60008301856128da565b612ac86020830184612837565b9392505050565b7f4e487b7100000000000000000000000000000000000000000000000000000000600052602160045260246000fd5b60048110612b0f57612b0e612acf565b5b50565b6000819050612b2082612afe565b919050565b6000612b3082612b12565b9050919050565b612b4081612b25565b82525050565b6000602082019050612b5b6000830184612b37565b92915050565b600081519050919050565b600082825260208201905092915050565b60005b83811015612b9b578082015181840152602081019050612b80565b83811115612baa576000848401525b50505050565b6000612bbb82612b61565b612bc58185612b6c565b9350612bd5818560208601612b7d565b612bde8161290e565b840191505092915050565b60007fffffffff0000000000000000000000000000000000000000000000000000000082169050919050565b612c1e81612be9565b82525050565b600073ffffffffffffffffffffffffffffffffffffffff82169050919050565b6000612c4f82612c24565b9050919050565b612c5f81612c44565b82525050565b600060c0820190508181036000830152612c7f8189612bb0565b9050612c8e6020830188612c15565b612c9b6040830187612837565b612ca86060830186612b37565b612cb56080830185612837565b612cc260a0830184612c56565b979650505050505050565b612cd681612be9565b8114612ce157600080fd5b50565b600081359050612cf381612ccd565b92915050565b600060208284031215612d0f57612d0e61286b565b5b6000612d1d84828501612ce4565b91505092915050565b600060ff82169050919050565b612d3c81612d26565b82525050565b6000602082019050612d576000830184612d33565b92915050565b6000819050919050565b6000612d82612d7d612d7884612c24565b612d5d565b612c24565b9050919050565b6000612d9482612d67565b9050919050565b6000612da682612d89565b9050919050565b612db681612d9b565b82525050565b6000602082019050612dd16000830184612dad565b92915050565b600060c0820190508181036000830152612df18189612bb0565b9050612e006020830188612c15565b612e0d6040830187612b37565b612e1a6060830186612837565b612e276080830185612c56565b612e3460a0830184612837565b979650505050505050565b6000602082019050612e546000830184612c56565b92915050565b612e6381612c44565b8114612e6e57600080fd5b50565b600081359050612e8081612e5a565b92915050565b600060208284031215612e9c57612e9b61286b565b5b6000612eaa84828501612e71565b91505092915050565b6000602082019050612ec86000830184612c15565b92915050565b7f496e76616c69642063616d706169676e20696400000000000000000000000000600082015250565b6000612f04601383612b6c565b9150612f0f82612ece565b602082019050919050565b60006020820190508181036000830152612f3381612ef7565b9050919050565b7f4f6e6c792063616d706169676e20686f73742063616e20706572666f726d207460008201527f68697320616374696f6e2e000000000000000000000000000000000000000000602082015250565b6000612f96602b83612b6c565b9150612fa182612f3a565b604082019050919050565b60006020820190508181036000830152612fc581612f89565b9050919050565b7f43616d706169676e20616c726561647920636c6f7365642e0000000000000000600082015250565b6000613002601883612b6c565b915061300d82612fcc565b602082019050919050565b6000602082019050818103600083015261303181612ff5565b9050919050565b7f4e487b7100000000000000000000000000000000000000000000000000000000600052602260045260246000fd5b6000600282049050600182168061307f57607f821691505b6020821081141561309357613092613038565b5b50919050565b60008190508160005260206000209050919050565b600081546130bb81613067565b6130c58186612b6c565b945060018216600081146130e057600181146130f257613125565b60ff1983168652602086019350613125565b6130fb85613099565b60005b8381101561311d578154818901526001820191506020810190506130fe565b808801955050505b50505092915050565b6000604082019050818103600083015261314881856130ae565b90506131576020830184612837565b9392505050565b7f4e487b7100000000000000000000000000000000000000000000000000000000600052601160045260246000fd5b60006131988261282d565b91506131a38361282d565b9250827fffffffffffffffffffffffffffffffffffffffffffffffffffffffffffffffff038211156131d8576131d761315e565b5b828201905092915050565b600060608201905081810360008301526131fd8186612bb0565b905061320c6020830185612837565b6132196040830184612c15565b949350505050565b600061322c8261282d565b91506132378361282d565b92508282101561324a5761324961315e565b5b828203905092915050565b7f4f776e61626c653a2063616c6c6572206973206e6f7420746865206f776e6572600082015250565b600061328b602083612b6c565b915061329682613255565b602082019050919050565b600060208201905081810360008301526132ba8161327e565b9050919050565b7f636f646520697320696e76616c69642e00000000000000000000000000000000600082015250565b60006132f7601083612b6c565b9150613302826132c1565b602082019050919050565b60006020820190508181036000830152613326816132ea565b9050919050565b7f43616d706169676e2073686f756c6420626520616c726561647920636c6f736560008201527f64206f722066756c6c2e00000000000000000000000000000000000000000000602082015250565b6000613389602a83612b6c565b91506133948261332d565b604082019050919050565b600060208201905081810360008301526133b88161337c565b9050919050565b7f4e487b7100000000000000000000000000000000000000000000000000000000600052603260045260246000fd5b60008160011c9050919050565b6000808291508390505b6001851115613445578086048111156134215761342061315e565b5b60018516156134305780820291505b808102905061343e856133ee565b9450613405565b94509492505050565b60008261345e576001905061351a565b8161346c576000905061351a565b8160018114613482576002811461348c576134bb565b600191505061351a565b60ff84111561349e5761349d61315e565b5b8360020a9150848211156134b5576134b461315e565b5b5061351a565b5060208310610133831016604e8410600b84101617156134f05782820a9050838111156134eb576134ea61315e565b5b61351a565b6134fd84848460016133fb565b925090508184048111156135145761351361315e565b5b81810290505b9392505050565b600061352c8261282d565b91506135378361282d565b92506135647fffffffffffffffffffffffffffffffffffffffffffffffffffffffffffffffff848461344e565b905092915050565b60006135778261282d565b91506135828361282d565b9250817fffffffffffffffffffffffffffffffffffffffffffffffffffffffffffffffff04831182151516156135bb576135ba61315e565b5b828202905092915050565b60006040820190506135db6000830185612c56565b6135e86020830184612837565b9392505050565b60006135fa8261282d565b91507fffffffffffffffffffffffffffffffffffffffffffffffffffffffffffffffff82141561362d5761362c61315e565b5b600182019050919050565b7f596f75206861766520616c7265616479207265676973746572656420746f206160008201527f2063616d706169676e2e00000000000000000000000000000000000000000000602082015250565b6000613694602a83612b6c565b915061369f82613638565b604082019050919050565b600060208201905081810360008301526136c381613687565b9050919050565b7f4d61782063617061636974792072656163686564000000000000000000000000600082015250565b6000613700601483612b6c565b915061370b826136ca565b602082019050919050565b6000602082019050818103600083015261372f816136f3565b9050919050565b7f43616d706167696e206973206e6f74206f70656e000000000000000000000000600082015250565b600061376c601483612b6c565b915061377782613736565b602082019050919050565b6000602082019050818103600083015261379b8161375f565b9050919050565b7f4f776e61626c653a206e6577206f776e657220697320746865207a65726f206160008201527f6464726573730000000000000000000000000000000000000000000000000000602082015250565b60006137fe602683612b6c565b9150613809826137a2565b604082019050919050565b6000602082019050818103600083015261382d816137f1565b9050919050565b600081905092915050565b600061384a82612b61565b6138548185613834565b9350613864818560208601612b7d565b80840191505092915050565b6000819050919050565b61388b6138868261282d565b613870565b82525050565b60008160601b9050919050565b60006138a982613891565b9050919050565b60006138bb8261389e565b9050919050565b6138d36138ce82612c44565b6138b0565b82525050565b60006138e5828661383f565b91506138f1828561387a565b60208201915061390182846138c2565b60148201915081905094935050505056fea2646970667358221220677f7ca79877b8cc7578168c299c6911844063929040f2f89bb7beb5cc59f33664736f6c63430008090033",
  "immutableReferences": {},
  "source": "// SPDX-License-Identifier: MIT\npragma solidity 0.8.9;\n\nimport \"@openzeppelin/contracts/access/Ownable.sol\";\nimport './Wormies.sol';\n\n/**\n/// @title A contract to run early bird promotions for first N registrants\n/// @author chaudhga\n/// @custom:experimental This is an experimental contract.\n */\ncontract EarlyBirds is Ownable{\n  uint public campaignCount;\n\n  uint8   public constant DECIMALS = 18;\n  uint256 public constant DECIMALFACTOR = 10 ** uint256(DECIMALS);\n  uint256 constant TOKENS_PER_REGISTRANT = 100 * uint256(DECIMALFACTOR);\n  uint256 public AIRDROP_SUPPLY = 10000000 * uint256(DECIMALFACTOR);\n  uint256 public TOTAL_SUPPLY = 1000000000000 * uint256(DECIMALFACTOR);  \n  Wormies public wormies;\n\n  mapping (uint => Campaign) public campaigns;\n  mapping (bytes4 => uint) public campaignCodes;\n  mapping (uint => address[]) private registrants;\n  enum State{Open, Full, Closed, Airdropped}\n\n  mapping (address => bool) public registrantStatus;\n\n  struct Campaign{\n    string title; \n    bytes4 code; \n    uint id; \n    State state; \n    uint capacity; \n    address host;\n  }\n\n  event LogCampaignOpened(string title, uint id, bytes4 campaignCode);\n  event LogCampaignClosed(string title, uint id);\n  event LogCampaignFull(string title, uint id);\n  event LogRegistration(address _address, uint campaignID);\n\n  constructor(address _token) {\n    campaignCount = 0;\n    wormies = Wormies(_token);\n  }\n\n\n/**\n/// @notice creates a new campaign; generates campaign id to be shared for registrations\n///         assigns creator as the host which allows them to controol states\n/// @dev to fetch details of the campaign created call getCampaignDetails\n */\n  function addCampaign(string memory _title, uint _capacity) public returns(bool, uint){\n    bytes4 _code = hash(_title, _capacity, msg.sender);\n    campaignCount += 1;\n    campaigns[campaignCount] = Campaign({\n      title: _title,\n      code: _code,\n      id: campaignCount,\n      state: State.Open,\n      capacity: _capacity,\n      host: msg.sender\n    });\n    campaignCodes[_code] = campaignCount;\n    emit LogCampaignOpened(_title, campaignCount, _code);\n    return (true, campaignCount);\n  }\n\n/** \n/// @notice registration function (requires campaign code provided by host), only allows single registration\n/// @dev updates the state to full for last registrant\n */\n  function register(bytes4 _code) public \n    validCode(_code)\n    notAlreadyRegistered()\n    hasCapacity(codeToID(_code))\n    isOpen(codeToID(_code))\n    returns(bool){\n      uint _id = codeToID(_code);\n      uint _capacity = campaigns[_id].capacity;\n      if(registrants[_id].length < _capacity){\n              registrants[_id].push(msg.sender);\n      }\n      checkAndMarkFull(_id);\n      registrantStatus[msg.sender]=true;\n      emit LogRegistration(msg.sender, _id);\n      return true;\n    }\n/** \n/// @notice Only host can close the campaign. Campaign can be closed at any stage, full or not.\n/// @dev before executing airdrop campaign registration must be closed\n */\n  function close(uint _id) public \n    validID(_id)\n    onlyHost(_id)\n    isNotClosed(_id)\n    returns(bool){\n      campaigns[_id].state = State.Closed;\n      emit LogCampaignClosed(campaigns[_id].title, _id);\n      return(true);\n    }\n  function closeByCode(bytes4 _code) public \n  onlyHost(campaignCodes[_code])\n  returns(bool){\n    return(close(campaignCodes[_code]));\n  }\n/** \n/// @notice Allocate tokens to registrants and burn any remaining tokens\n/// @dev onlyOwner can call this\n */\n  function airdrop(uint _id) public \n    validID(_id)\n    onlyOwner\n    isClosedOrFull(_id)\n    hasRegistrants(_id)\n    returns(bool){\n      uint totalRegistrants = registrants[_id].length;\n \n      for(uint i=0; i<totalRegistrants; i++){\n        address registrant = registrants[_id][i];\n        // wormies.transferFrom(msg.sender, registrant, TOKENS_PER_REGISTRANT);\n        wormies.mint(registrant, TOKENS_PER_REGISTRANT);\n      }\n      campaigns[_id].state = State.Airdropped;\n      return(true);\n    }\n\n\n  /** \n  ///  Utility Functions\n   */\n\n  function getCampaignID() public view validID(campaignCount) returns(uint){\n    return campaignCount;\n  }\n  function codeToID(bytes4 _code) public view validCode(_code) returns(uint){\n    return(campaignCodes[_code]);\n  }\n\n  // Retrieves campaign details using id\n  function getCampaignDetails(uint _id) public view\n    validID(_id)\n    returns(string memory, bytes4 , State , uint , address , uint ){\n      Campaign memory campaign = campaigns[_id];\n      uint registrationCount = registrants[_id].length;\n      return(campaign.title, campaign.code, campaign.state, campaign.capacity, campaign.host, registrationCount);\n    }\n  \n  function getLastCampaignDetails() public view\n    validID(getCampaignID())\n    returns(string memory, bytes4 , State , uint , address , uint ){\n      return(getCampaignDetails(getCampaignID()));\n    }\n  \n  // Retrieves campaign details using code\n  function getCampaignDetailsByCode(bytes4 _code) public view\n    returns(string memory, bytes4 , State , uint , address , uint ){\n      return(getCampaignDetails(codeToID(_code)));\n    }\n  \n  // Allows host to reteive last code generated\n  function getCompaignCodeById(uint _id) public view \n  validID(_id)\n  onlyHost(_id) \n  returns(bytes4 _code){\n    Campaign memory _campaign = campaigns[_id];\n    return(_campaign.code);\n  }\n\n  function getCompaignStateById(uint _id) public view \n  validID(_id)\n  returns(State){\n    Campaign memory _campaign = campaigns[_id];\n    return(_campaign.state);\n  }\n\n  function getRemainingCapacityById(uint _id) public view \n  validID(_id)\n  returns(uint){\n    Campaign memory _campaign = campaigns[_id];\n    uint currRegistrantCount = registrants[_id].length;\n    return(_campaign.capacity - currRegistrantCount);\n  }\n\n  function getRegistrantCount(uint _id) public view\n  validID(_id)\n  returns(uint){\n    return(registrants[_id].length);\n  }\n\n  function getCapacityById(uint _id) public view \n  validID(_id)\n  returns(uint){\n    Campaign memory _campaign = campaigns[_id];\n    return(_campaign.capacity);\n  }\n\n  function checkAndMarkFull(uint _id) internal validID(_id){\n    if(registrants[_id].length == campaigns[_id].capacity){\n        campaigns[_id].state = State.Full;\n    }\n    emit LogCampaignFull(campaigns[_id].title, _id);\n  }\n\n  /**\n  /// Generates Unique Hash using keccak256 to be used as code to be shared using title & capacity\n   */\n  function hash (\n        string memory _text,\n        uint _num,\n        address _addr\n    ) internal pure returns (bytes4) {\n        return bytes4(keccak256(abi.encodePacked(_text, _num, _addr)));\n    }\n\n  /**\n  /// Modifiers \n   */\n  modifier onlyHost(uint _campaignID){\n    require(msg.sender == campaigns[_campaignID].host, \"Only campaign host can perform this action.\");\n    _;\n  }\n  modifier notAlreadyRegistered(){\n    require(!registrantStatus[msg.sender], \"You have already registered to a campaign.\");\n    _;\n  }\n  modifier isOpen(uint _campaignID){\n    Campaign memory campaign = campaigns[_campaignID];\n    bytes memory emptyTitleTest = bytes(campaign.title);\n    require(emptyTitleTest.length != 0 && campaign.state == State.Open, \"Campagin is not open\");\n    _;\n  }\n  modifier isNotClosed(uint _campaignID){\n    require(campaigns[_campaignID].state != State.Closed, \"Campaign already closed.\");\n    _;\n  }\n  modifier isClosedOrFull(uint _campaignID){\n    State campaignState = campaigns[_campaignID].state;\n    require(campaignState == State.Closed || campaignState == State.Full, \"Campaign should be already closed or full.\");\n    _;\n  }\n  modifier hasCapacity(uint _campaignID){\n    require(campaigns[_campaignID].state != State.Full && \n            registrants[_campaignID].length < campaigns[_campaignID].capacity, \"Max capacity reached\");\n    _;\n  }\n  modifier validCode(bytes4 _code){\n    require(campaignCodes[_code] > 0, \"code is invalid.\");\n    _;\n  }\n  modifier validID(uint _id){\n    require(_id <= campaignCount && _id > 0, \"Invalid campaign id\");\n    _;\n  }\n  modifier hasRegistrants(uint _id){\n    require(registrants[_id].length > 0);\n    _;\n  }\n}",
  "sourcePath": "/Users/gaurav/trufflebox-react/contracts/EarlyBirds.sol",
  "compiler": {
    "name": "solc",
    "version": "0.8.9+commit.e5eed63a.Emscripten.clang"
  },
  "schemaVersion": "3.4.4",
  "updatedAt": "2022-01-16T15:59:26.869Z",
  "networkType": "ethereum",
  "devdoc": {
    "author": "chaudhga",
    "custom:experimental": "This is an experimental contract.",
    "kind": "dev",
    "methods": {
      "addCampaign(string,uint256)": {
        "details": "to fetch details of the campaign created call getCampaignDetails"
      },
      "airdrop(uint256)": {
        "details": "onlyOwner can call this"
      },
      "close(uint256)": {
        "details": "before executing airdrop campaign registration must be closed"
      },
      "owner()": {
        "details": "Returns the address of the current owner."
      },
      "register(bytes4)": {
        "details": "updates the state to full for last registrant"
      },
      "renounceOwnership()": {
        "details": "Leaves the contract without owner. It will not be possible to call `onlyOwner` functions anymore. Can only be called by the current owner. NOTE: Renouncing ownership will leave the contract without an owner, thereby removing any functionality that is only available to the owner."
      },
      "transferOwnership(address)": {
        "details": "Transfers ownership of the contract to a new account (`newOwner`). Can only be called by the current owner."
      }
    },
    "title": "A contract to run early bird promotions for first N registrants",
    "version": 1
  },
  "userdoc": {
    "kind": "user",
    "methods": {
      "addCampaign(string,uint256)": {
        "notice": "creates a new campaign; generates campaign id to be shared for registrations ///         assigns creator as the host which allows them to controol states"
      },
      "airdrop(uint256)": {
        "notice": "Allocate tokens to registrants and burn any remaining tokens"
      },
      "close(uint256)": {
        "notice": "Only host can close the campaign. Campaign can be closed at any stage, full or not."
      },
      "getCampaignID()": {
        "notice": "///  Utility Functions"
      },
      "register(bytes4)": {
        "notice": "registration function (requires campaign code provided by host), only allows single registration"
      }
    },
    "version": 1
  }
}