{
  "contractName": "EarlyBirds",
  "abi": [
    {
      "inputs": [
        {
          "internalType": "address",
          "name": "_token",
          "type": "address"
        }
      ],
      "stateMutability": "nonpayable",
      "type": "constructor"
    },
    {
      "anonymous": false,
      "inputs": [
        {
          "indexed": false,
          "internalType": "string",
          "name": "title",
          "type": "string"
        },
        {
          "indexed": false,
          "internalType": "uint256",
          "name": "id",
          "type": "uint256"
        }
      ],
      "name": "LogCampaignClosed",
      "type": "event"
    },
    {
      "anonymous": false,
      "inputs": [
        {
          "indexed": false,
          "internalType": "string",
          "name": "title",
          "type": "string"
        },
        {
          "indexed": false,
          "internalType": "uint256",
          "name": "id",
          "type": "uint256"
        }
      ],
      "name": "LogCampaignFull",
      "type": "event"
    },
    {
      "anonymous": false,
      "inputs": [
        {
          "indexed": false,
          "internalType": "string",
          "name": "title",
          "type": "string"
        },
        {
          "indexed": false,
          "internalType": "uint256",
          "name": "id",
          "type": "uint256"
        },
        {
          "indexed": false,
          "internalType": "bytes4",
          "name": "campaignCode",
          "type": "bytes4"
        }
      ],
      "name": "LogCampaignOpened",
      "type": "event"
    },
    {
      "anonymous": false,
      "inputs": [
        {
          "indexed": false,
          "internalType": "address",
          "name": "_address",
          "type": "address"
        },
        {
          "indexed": false,
          "internalType": "string",
          "name": "title",
          "type": "string"
        },
        {
          "indexed": false,
          "internalType": "uint256",
          "name": "campaignID",
          "type": "uint256"
        },
        {
          "indexed": false,
          "internalType": "uint256",
          "name": "totalRegistered",
          "type": "uint256"
        },
        {
          "indexed": false,
          "internalType": "uint256",
          "name": "maxCapacity",
          "type": "uint256"
        }
      ],
      "name": "LogRegistration",
      "type": "event"
    },
    {
      "anonymous": false,
      "inputs": [
        {
          "indexed": true,
          "internalType": "address",
          "name": "previousOwner",
          "type": "address"
        },
        {
          "indexed": true,
          "internalType": "address",
          "name": "newOwner",
          "type": "address"
        }
      ],
      "name": "OwnershipTransferred",
      "type": "event"
    },
    {
      "inputs": [
        {
          "internalType": "bytes4",
          "name": "",
          "type": "bytes4"
        }
      ],
      "name": "campaignCodes",
      "outputs": [
        {
          "internalType": "uint256",
          "name": "",
          "type": "uint256"
        }
      ],
      "stateMutability": "view",
      "type": "function",
      "constant": true
    },
    {
      "inputs": [],
      "name": "campaignCount",
      "outputs": [
        {
          "internalType": "uint256",
          "name": "",
          "type": "uint256"
        }
      ],
      "stateMutability": "view",
      "type": "function",
      "constant": true
    },
    {
      "inputs": [
        {
          "internalType": "uint256",
          "name": "",
          "type": "uint256"
        }
      ],
      "name": "campaigns",
      "outputs": [
        {
          "internalType": "string",
          "name": "title",
          "type": "string"
        },
        {
          "internalType": "bytes4",
          "name": "code",
          "type": "bytes4"
        },
        {
          "internalType": "uint256",
          "name": "id",
          "type": "uint256"
        },
        {
          "internalType": "enum EarlyBirds.State",
          "name": "state",
          "type": "uint8"
        },
        {
          "internalType": "uint256",
          "name": "capacity",
          "type": "uint256"
        },
        {
          "internalType": "address",
          "name": "host",
          "type": "address"
        }
      ],
      "stateMutability": "view",
      "type": "function",
      "constant": true
    },
    {
      "inputs": [],
      "name": "owner",
      "outputs": [
        {
          "internalType": "address",
          "name": "",
          "type": "address"
        }
      ],
      "stateMutability": "view",
      "type": "function",
      "constant": true
    },
    {
      "inputs": [
        {
          "internalType": "address",
          "name": "",
          "type": "address"
        }
      ],
      "name": "registrantStatus",
      "outputs": [
        {
          "internalType": "bool",
          "name": "",
          "type": "bool"
        }
      ],
      "stateMutability": "view",
      "type": "function",
      "constant": true
    },
    {
      "inputs": [],
      "name": "renounceOwnership",
      "outputs": [],
      "stateMutability": "nonpayable",
      "type": "function"
    },
    {
      "inputs": [
        {
          "internalType": "address",
          "name": "newOwner",
          "type": "address"
        }
      ],
      "name": "transferOwnership",
      "outputs": [],
      "stateMutability": "nonpayable",
      "type": "function"
    },
    {
      "inputs": [],
      "name": "wormies",
      "outputs": [
        {
          "internalType": "contract Wormies",
          "name": "",
          "type": "address"
        }
      ],
      "stateMutability": "view",
      "type": "function",
      "constant": true
    },
    {
      "inputs": [
        {
          "internalType": "string",
          "name": "_title",
          "type": "string"
        },
        {
          "internalType": "uint256",
          "name": "_capacity",
          "type": "uint256"
        }
      ],
      "name": "addCampaign",
      "outputs": [
        {
          "internalType": "bool",
          "name": "",
          "type": "bool"
        },
        {
          "internalType": "uint256",
          "name": "",
          "type": "uint256"
        }
      ],
      "stateMutability": "nonpayable",
      "type": "function"
    },
    {
      "inputs": [
        {
          "internalType": "bytes4",
          "name": "_code",
          "type": "bytes4"
        }
      ],
      "name": "register",
      "outputs": [
        {
          "internalType": "bool",
          "name": "",
          "type": "bool"
        }
      ],
      "stateMutability": "nonpayable",
      "type": "function"
    },
    {
      "inputs": [
        {
          "internalType": "uint256",
          "name": "_id",
          "type": "uint256"
        }
      ],
      "name": "close",
      "outputs": [
        {
          "internalType": "bool",
          "name": "",
          "type": "bool"
        }
      ],
      "stateMutability": "nonpayable",
      "type": "function"
    },
    {
      "inputs": [
        {
          "internalType": "bytes4",
          "name": "_code",
          "type": "bytes4"
        }
      ],
      "name": "closeByCode",
      "outputs": [
        {
          "internalType": "bool",
          "name": "",
          "type": "bool"
        }
      ],
      "stateMutability": "nonpayable",
      "type": "function"
    },
    {
      "inputs": [],
      "name": "closeLatestCampaign",
      "outputs": [
        {
          "internalType": "bool",
          "name": "",
          "type": "bool"
        }
      ],
      "stateMutability": "nonpayable",
      "type": "function"
    },
    {
      "inputs": [
        {
          "internalType": "uint256",
          "name": "_id",
          "type": "uint256"
        }
      ],
      "name": "airdrop",
      "outputs": [
        {
          "internalType": "bool",
          "name": "",
          "type": "bool"
        }
      ],
      "stateMutability": "nonpayable",
      "type": "function"
    },
    {
      "inputs": [],
      "name": "airdropLatestCampaign",
      "outputs": [
        {
          "internalType": "bool",
          "name": "",
          "type": "bool"
        }
      ],
      "stateMutability": "nonpayable",
      "type": "function"
    },
    {
      "inputs": [
        {
          "internalType": "bool",
          "name": "_isDemo",
          "type": "bool"
        }
      ],
      "name": "setDemo",
      "outputs": [],
      "stateMutability": "nonpayable",
      "type": "function"
    },
    {
      "inputs": [
        {
          "internalType": "address",
          "name": "_adminAddr",
          "type": "address"
        }
      ],
      "name": "setAdmin",
      "outputs": [],
      "stateMutability": "nonpayable",
      "type": "function"
    },
    {
      "inputs": [
        {
          "internalType": "uint256",
          "name": "_tprAmount",
          "type": "uint256"
        }
      ],
      "name": "setTokensPerRegistrant",
      "outputs": [],
      "stateMutability": "nonpayable",
      "type": "function"
    },
    {
      "inputs": [
        {
          "internalType": "uint256",
          "name": "_airdropSupply",
          "type": "uint256"
        }
      ],
      "name": "setAirdropSupply",
      "outputs": [],
      "stateMutability": "nonpayable",
      "type": "function"
    },
    {
      "inputs": [
        {
          "internalType": "uint256",
          "name": "_totalSupply",
          "type": "uint256"
        }
      ],
      "name": "setTotalSupply",
      "outputs": [],
      "stateMutability": "nonpayable",
      "type": "function"
    },
    {
      "inputs": [],
      "name": "resetRegistrations",
      "outputs": [],
      "stateMutability": "nonpayable",
      "type": "function"
    },
    {
      "inputs": [],
      "name": "getCampaignID",
      "outputs": [
        {
          "internalType": "uint256",
          "name": "",
          "type": "uint256"
        }
      ],
      "stateMutability": "view",
      "type": "function",
      "constant": true
    },
    {
      "inputs": [
        {
          "internalType": "bytes4",
          "name": "_code",
          "type": "bytes4"
        }
      ],
      "name": "codeToID",
      "outputs": [
        {
          "internalType": "uint256",
          "name": "",
          "type": "uint256"
        }
      ],
      "stateMutability": "view",
      "type": "function",
      "constant": true
    },
    {
      "inputs": [
        {
          "internalType": "uint256",
          "name": "_id",
          "type": "uint256"
        }
      ],
      "name": "getCampaignDetails",
      "outputs": [
        {
          "internalType": "string",
          "name": "",
          "type": "string"
        },
        {
          "internalType": "bytes4",
          "name": "",
          "type": "bytes4"
        },
        {
          "internalType": "enum EarlyBirds.State",
          "name": "",
          "type": "uint8"
        },
        {
          "internalType": "uint256",
          "name": "",
          "type": "uint256"
        },
        {
          "internalType": "address",
          "name": "",
          "type": "address"
        },
        {
          "internalType": "uint256",
          "name": "",
          "type": "uint256"
        }
      ],
      "stateMutability": "view",
      "type": "function",
      "constant": true
    },
    {
      "inputs": [],
      "name": "getLastCampaignDetails",
      "outputs": [
        {
          "internalType": "string",
          "name": "",
          "type": "string"
        },
        {
          "internalType": "bytes4",
          "name": "",
          "type": "bytes4"
        },
        {
          "internalType": "enum EarlyBirds.State",
          "name": "",
          "type": "uint8"
        },
        {
          "internalType": "uint256",
          "name": "",
          "type": "uint256"
        },
        {
          "internalType": "address",
          "name": "",
          "type": "address"
        },
        {
          "internalType": "uint256",
          "name": "",
          "type": "uint256"
        }
      ],
      "stateMutability": "view",
      "type": "function",
      "constant": true
    },
    {
      "inputs": [
        {
          "internalType": "bytes4",
          "name": "_code",
          "type": "bytes4"
        }
      ],
      "name": "getCampaignDetailsByCode",
      "outputs": [
        {
          "internalType": "string",
          "name": "",
          "type": "string"
        },
        {
          "internalType": "bytes4",
          "name": "",
          "type": "bytes4"
        },
        {
          "internalType": "enum EarlyBirds.State",
          "name": "",
          "type": "uint8"
        },
        {
          "internalType": "uint256",
          "name": "",
          "type": "uint256"
        },
        {
          "internalType": "address",
          "name": "",
          "type": "address"
        },
        {
          "internalType": "uint256",
          "name": "",
          "type": "uint256"
        }
      ],
      "stateMutability": "view",
      "type": "function",
      "constant": true
    },
    {
      "inputs": [
        {
          "internalType": "uint256",
          "name": "_id",
          "type": "uint256"
        }
      ],
      "name": "getCompaignCodeById",
      "outputs": [
        {
          "internalType": "bytes4",
          "name": "_code",
          "type": "bytes4"
        }
      ],
      "stateMutability": "view",
      "type": "function",
      "constant": true
    }
  ],
  "bytecode": "0x6080604052601260ff16600a6200001791906200038d565b6064620000259190620003de565b600255601260ff16600a6200003b91906200038d565b629896806200004b9190620003de565b600355601260ff16600a6200006191906200038d565b64e8d4a51000620000739190620003de565b6004556001600560006101000a81548160ff0219169083151502179055503480156200009e57600080fd5b5060405162003e8338038062003e838339818101604052810190620000c49190620004a9565b620000e4620000d86200013460201b60201c565b6200013c60201b60201c565b600060018190555080600560016101000a81548173ffffffffffffffffffffffffffffffffffffffff021916908373ffffffffffffffffffffffffffffffffffffffff16021790555050620004db565b600033905090565b60008060009054906101000a900473ffffffffffffffffffffffffffffffffffffffff169050816000806101000a81548173ffffffffffffffffffffffffffffffffffffffff021916908373ffffffffffffffffffffffffffffffffffffffff1602179055508173ffffffffffffffffffffffffffffffffffffffff168173ffffffffffffffffffffffffffffffffffffffff167f8be0079c531659141344cd1fd0a4f28419497f9722a3daafe3b4186f6b6457e060405160405180910390a35050565b7f4e487b7100000000000000000000000000000000000000000000000000000000600052601160045260246000fd5b60008160011c9050919050565b6000808291508390505b60018511156200028e5780860481111562000266576200026562000200565b5b6001851615620002765780820291505b808102905062000286856200022f565b945062000246565b94509492505050565b600082620002a957600190506200037c565b81620002b957600090506200037c565b8160018114620002d25760028114620002dd5762000313565b60019150506200037c565b60ff841115620002f257620002f162000200565b5b8360020a9150848211156200030c576200030b62000200565b5b506200037c565b5060208310610133831016604e8410600b84101617156200034d5782820a90508381111562000347576200034662000200565b5b6200037c565b6200035c84848460016200023c565b9250905081840481111562000376576200037562000200565b5b81810290505b9392505050565b6000819050919050565b60006200039a8262000383565b9150620003a78362000383565b9250620003d67fffffffffffffffffffffffffffffffffffffffffffffffffffffffffffffffff848462000297565b905092915050565b6000620003eb8262000383565b9150620003f88362000383565b9250817fffffffffffffffffffffffffffffffffffffffffffffffffffffffffffffffff048311821515161562000434576200043362000200565b5b828202905092915050565b600080fd5b600073ffffffffffffffffffffffffffffffffffffffff82169050919050565b6000620004718262000444565b9050919050565b620004838162000464565b81146200048f57600080fd5b50565b600081519050620004a38162000478565b92915050565b600060208284031215620004c257620004c16200043f565b5b6000620004d28482850162000492565b91505092915050565b61399880620004eb6000396000f3fe608060405234801561001057600080fd5b50600436106101a95760003560e01c80638d95bbcf116100f9578063d70af54e11610097578063e4a7ec4f11610071578063e4a7ec4f1461051f578063eafacab11461054f578063f2fde38b14610559578063f7ea7a3d14610575576101a9565b8063d70af54e1461049c578063d92f94be146104ba578063d993de62146104ea576101a9565b806397dc4a13116100d357806397dc4a13146103f05780639e97e16f14610420578063bdccf23614610450578063d6fb295f1461046c576101a9565b80638d95bbcf1461036d5780638da5cb5b1461039d57806393b81d00146103bb576101a9565b806331e33af511610166578063715018a611610140578063715018a6146103045780637274e30d1461030e5780637bbb724f1461032c5780637c7019531461034a576101a9565b806331e33af5146102ae5780633f06ed9d146102ca578063704b6c02146102e8576101a9565b806302405ef2146101ae5780630aebeb4e146101cc5780630eb66687146101fc57806311f8f0111461022d578063141961bc146102495780632146f70c1461027e575b600080fd5b6101b6610591565b6040516101c3919061296a565b60405180910390f35b6101e660048036038101906101e191906129c5565b6105f0565b6040516101f39190612a0d565b60405180910390f35b61021660048036038101906102119190612b6e565b61080e565b604051610224929190612bca565b60405180910390f35b61024760048036038101906102429190612c1f565b610a90565b005b610263600480360381019061025e91906129c5565b610b29565b60405161027596959493929190612dc7565b60405180910390f35b61029860048036038101906102939190612e5b565b610c27565b6040516102a59190612a0d565b60405180910390f35b6102c860048036038101906102c391906129c5565b610d81565b005b6102d2610e98565b6040516102df9190612a0d565b60405180910390f35b61030260048036038101906102fd9190612eb4565b610f5c565b005b61030c61101c565b005b6103166110a4565b604051610323919061296a565b60405180910390f35b6103346110aa565b6040516103419190612f40565b60405180910390f35b6103526110d0565b60405161036496959493929190612f5b565b60405180910390f35b61038760048036038101906103829190612e5b565b611158565b604051610394919061296a565b60405180910390f35b6103a5611249565b6040516103b29190612fc3565b60405180910390f35b6103d560048036038101906103d09190612e5b565b611272565b6040516103e796959493929190612f5b565b60405180910390f35b61040a600480360381019061040591906129c5565b6112a2565b6040516104179190612a0d565b60405180910390f35b61043a60048036038101906104359190612eb4565b61172d565b6040516104479190612a0d565b60405180910390f35b61046a600480360381019061046591906129c5565b61174d565b005b61048660048036038101906104819190612e5b565b611864565b6040516104939190612a0d565b60405180910390f35b6104a4611e38565b6040516104b19190612a0d565b60405180910390f35b6104d460048036038101906104cf91906129c5565b611e4f565b6040516104e19190612fde565b60405180910390f35b61050460048036038101906104ff91906129c5565b612105565b60405161051696959493929190612f5b565b60405180910390f35b61053960048036038101906105349190612e5b565b61235c565b604051610546919061296a565b60405180910390f35b610557612374565b005b610573600480360381019061056e9190612eb4565b612483565b005b61058f600480360381019061058a91906129c5565b61257b565b005b600060015460015481111580156105a85750600081115b6105e7576040517f08c379a00000000000000000000000000000000000000000000000000000000081526004016105de90613045565b60405180910390fd5b60015491505090565b60008160015481111580156106055750600081115b610644576040517f08c379a000000000000000000000000000000000000000000000000000000000815260040161063b90613045565b60405180910390fd5b826006600082815260200190815260200160002060050160009054906101000a900473ffffffffffffffffffffffffffffffffffffffff1673ffffffffffffffffffffffffffffffffffffffff163373ffffffffffffffffffffffffffffffffffffffff16146106e9576040517f08c379a00000000000000000000000000000000000000000000000000000000081526004016106e0906130d7565b60405180910390fd5b83600260038111156106fe576106fd612d0f565b5b6006600083815260200190815260200160002060030160009054906101000a900460ff16600381111561073457610733612d0f565b5b1415610775576040517f08c379a000000000000000000000000000000000000000000000000000000000815260040161076c90613143565b60405180910390fd5b60026006600087815260200190815260200160002060030160006101000a81548160ff021916908360038111156107af576107ae612d0f565b5b02179055507fc46b99f2efd7cd2f7d87e519d6f92b5c95da33b8d602cb27d0edccfe40afe09b60066000878152602001908152602001600020600001866040516107fa929190613259565b60405180910390a160019350505050919050565b600080600061081e858533612692565b9050600180600082825461083291906132b8565b925050819055506040518060c00160405280868152602001827bffffffffffffffffffffffffffffffffffffffffffffffffffffffff1916815260200160015481526020016000600381111561088b5761088a612d0f565b5b81526020018581526020013373ffffffffffffffffffffffffffffffffffffffff1681525060066000600154815260200190815260200160002060008201518160000190805190602001906108e19291906128ae565b5060208201518160010160006101000a81548163ffffffff021916908360e01c02179055506040820151816002015560608201518160030160006101000a81548160ff0219169083600381111561093b5761093a612d0f565b5b02179055506080820151816004015560a08201518160050160006101000a81548173ffffffffffffffffffffffffffffffffffffffff021916908373ffffffffffffffffffffffffffffffffffffffff16021790555090505060015460076000837bffffffffffffffffffffffffffffffffffffffffffffffffffffffff19167bffffffffffffffffffffffffffffffffffffffffffffffffffffffff1916815260200190815260200160002081905550600560009054906101000a900460ff1615610a435733600960006101000a81548173ffffffffffffffffffffffffffffffffffffffff021916908373ffffffffffffffffffffffffffffffffffffffff1602179055505b7ff2631a889d6d622b874d228753934d83cb53da3a8ac65dcb7bd86ababdaa70f88560015483604051610a789392919061330e565b60405180910390a16001805492509250509250929050565b610a986126ca565b73ffffffffffffffffffffffffffffffffffffffff16610ab6611249565b73ffffffffffffffffffffffffffffffffffffffff1614610b0c576040517f08c379a0000000000000000000000000000000000000000000000000000000008152600401610b0390613398565b60405180910390fd5b80600560006101000a81548160ff02191690831515021790555050565b6006602052806000526040600020600091509050806000018054610b4c90613192565b80601f0160208091040260200160405190810160405280929190818152602001828054610b7890613192565b8015610bc55780601f10610b9a57610100808354040283529160200191610bc5565b820191906000526020600020905b815481529060010190602001808311610ba857829003601f168201915b5050505050908060010160009054906101000a900460e01b908060020154908060030160009054906101000a900460ff16908060040154908060050160009054906101000a900473ffffffffffffffffffffffffffffffffffffffff16905086565b600060076000837bffffffffffffffffffffffffffffffffffffffffffffffffffffffff19167bffffffffffffffffffffffffffffffffffffffffffffffffffffffff19168152602001908152602001600020546006600082815260200190815260200160002060050160009054906101000a900473ffffffffffffffffffffffffffffffffffffffff1673ffffffffffffffffffffffffffffffffffffffff163373ffffffffffffffffffffffffffffffffffffffff1614610d1f576040517f08c379a0000000000000000000000000000000000000000000000000000000008152600401610d16906130d7565b60405180910390fd5b610d7960076000857bffffffffffffffffffffffffffffffffffffffffffffffffffffffff19167bffffffffffffffffffffffffffffffffffffffffffffffffffffffff19168152602001908152602001600020546105f0565b915050919050565b600960009054906101000a900473ffffffffffffffffffffffffffffffffffffffff1673ffffffffffffffffffffffffffffffffffffffff163373ffffffffffffffffffffffffffffffffffffffff161480610e8557503073ffffffffffffffffffffffffffffffffffffffff16638da5cb5b6040518163ffffffff1660e01b815260040160206040518083038186803b158015610e1e57600080fd5b505afa158015610e32573d6000803e3d6000fd5b505050506040513d601f19601f82011682018060405250810190610e5691906133cd565b73ffffffffffffffffffffffffffffffffffffffff163373ffffffffffffffffffffffffffffffffffffffff16145b610e8e57600080fd5b8060028190555050565b6000610ea2610591565b6006600082815260200190815260200160002060050160009054906101000a900473ffffffffffffffffffffffffffffffffffffffff1673ffffffffffffffffffffffffffffffffffffffff163373ffffffffffffffffffffffffffffffffffffffff1614610f46576040517f08c379a0000000000000000000000000000000000000000000000000000000008152600401610f3d906130d7565b60405180910390fd5b610f56610f51610591565b6105f0565b91505090565b610f646126ca565b73ffffffffffffffffffffffffffffffffffffffff16610f82611249565b73ffffffffffffffffffffffffffffffffffffffff1614610fd8576040517f08c379a0000000000000000000000000000000000000000000000000000000008152600401610fcf90613398565b60405180910390fd5b80600960006101000a81548173ffffffffffffffffffffffffffffffffffffffff021916908373ffffffffffffffffffffffffffffffffffffffff16021790555050565b6110246126ca565b73ffffffffffffffffffffffffffffffffffffffff16611042611249565b73ffffffffffffffffffffffffffffffffffffffff1614611098576040517f08c379a000000000000000000000000000000000000000000000000000000000815260040161108f90613398565b60405180910390fd5b6110a260006126d2565b565b60015481565b600560019054906101000a900473ffffffffffffffffffffffffffffffffffffffff1681565b606060008060008060006110e2610591565b60015481111580156110f45750600081115b611133576040517f08c379a000000000000000000000000000000000000000000000000000000000815260040161112a90613045565b60405180910390fd5b61114361113e610591565b612105565b96509650965096509650965050909192939495565b600081600060076000837bffffffffffffffffffffffffffffffffffffffffffffffffffffffff19167bffffffffffffffffffffffffffffffffffffffffffffffffffffffff1916815260200190815260200160002054116111ef576040517f08c379a00000000000000000000000000000000000000000000000000000000081526004016111e690613446565b60405180910390fd5b60076000847bffffffffffffffffffffffffffffffffffffffffffffffffffffffff19167bffffffffffffffffffffffffffffffffffffffffffffffffffffffff1916815260200190815260200160002054915050919050565b60008060009054906101000a900473ffffffffffffffffffffffffffffffffffffffff16905090565b6060600080600080600061128d61128888611158565b612105565b95509550955095509550955091939550919395565b60008160015481111580156112b75750600081115b6112f6576040517f08c379a00000000000000000000000000000000000000000000000000000000081526004016112ed90613045565b60405180910390fd5b600960009054906101000a900473ffffffffffffffffffffffffffffffffffffffff1673ffffffffffffffffffffffffffffffffffffffff163373ffffffffffffffffffffffffffffffffffffffff1614806113fa57503073ffffffffffffffffffffffffffffffffffffffff16638da5cb5b6040518163ffffffff1660e01b815260040160206040518083038186803b15801561139357600080fd5b505afa1580156113a7573d6000803e3d6000fd5b505050506040513d601f19601f820116820180604052508101906113cb91906133cd565b73ffffffffffffffffffffffffffffffffffffffff163373ffffffffffffffffffffffffffffffffffffffff16145b61140357600080fd5b8260006006600083815260200190815260200160002060030160009054906101000a900460ff169050600260038111156114405761143f612d0f565b5b81600381111561145357611452612d0f565b5b148061148357506001600381111561146e5761146d612d0f565b5b81600381111561148157611480612d0f565b5b145b6114c2576040517f08c379a00000000000000000000000000000000000000000000000000000000081526004016114b9906134d8565b60405180910390fd5b8460006008600083815260200190815260200160002080549050116114e657600080fd5b60006008600088815260200190815260200160002080549050905060036006600089815260200190815260200160002060030160006101000a81548160ff0219169083600381111561153b5761153a612d0f565b5b0217905550600254600560019054906101000a900473ffffffffffffffffffffffffffffffffffffffff1673ffffffffffffffffffffffffffffffffffffffff166370a08231306040518263ffffffff1660e01b815260040161159e9190612fc3565b60206040518083038186803b1580156115b657600080fd5b505afa1580156115ca573d6000803e3d6000fd5b505050506040513d601f19601f820116820180604052508101906115ee919061350d565b10156115f957600080fd5b60005b8181101561171e576000600860008a8152602001908152602001600020828154811061162b5761162a61353a565b5b9060005260206000200160009054906101000a900473ffffffffffffffffffffffffffffffffffffffff169050600560019054906101000a900473ffffffffffffffffffffffffffffffffffffffff1673ffffffffffffffffffffffffffffffffffffffff1663a9059cbb826002546040518363ffffffff1660e01b81526004016116b7929190613569565b602060405180830381600087803b1580156116d157600080fd5b505af11580156116e5573d6000803e3d6000fd5b505050506040513d601f19601f8201168201806040525081019061170991906135a7565b50508080611716906135d4565b9150506115fc565b50600195505050505050919050565b600a6020528060005260406000206000915054906101000a900460ff1681565b600960009054906101000a900473ffffffffffffffffffffffffffffffffffffffff1673ffffffffffffffffffffffffffffffffffffffff163373ffffffffffffffffffffffffffffffffffffffff16148061185157503073ffffffffffffffffffffffffffffffffffffffff16638da5cb5b6040518163ffffffff1660e01b815260040160206040518083038186803b1580156117ea57600080fd5b505afa1580156117fe573d6000803e3d6000fd5b505050506040513d601f19601f8201168201806040525081019061182291906133cd565b73ffffffffffffffffffffffffffffffffffffffff163373ffffffffffffffffffffffffffffffffffffffff16145b61185a57600080fd5b8060038190555050565b600081600060076000837bffffffffffffffffffffffffffffffffffffffffffffffffffffffff19167bffffffffffffffffffffffffffffffffffffffffffffffffffffffff1916815260200190815260200160002054116118fb576040517f08c379a00000000000000000000000000000000000000000000000000000000081526004016118f290613446565b60405180910390fd5b600a60003373ffffffffffffffffffffffffffffffffffffffff1673ffffffffffffffffffffffffffffffffffffffff16815260200190815260200160002060009054906101000a900460ff1615611988576040517f08c379a000000000000000000000000000000000000000000000000000000000815260040161197f9061368f565b60405180910390fd5b61199183611158565b600160038111156119a5576119a4612d0f565b5b6006600083815260200190815260200160002060030160009054906101000a900460ff1660038111156119db576119da612d0f565b5b14158015611a14575060066000828152602001908152602001600020600401546008600083815260200190815260200160002080549050105b611a53576040517f08c379a0000000000000000000000000000000000000000000000000000000008152600401611a4a906136fb565b60405180910390fd5b611a5c84611158565b6000600660008381526020019081526020016000206040518060c0016040529081600082018054611a8c90613192565b80601f0160208091040260200160405190810160405280929190818152602001828054611ab890613192565b8015611b055780601f10611ada57610100808354040283529160200191611b05565b820191906000526020600020905b815481529060010190602001808311611ae857829003601f168201915b505050505081526020016001820160009054906101000a900460e01b7bffffffffffffffffffffffffffffffffffffffffffffffffffffffff19167bffffffffffffffffffffffffffffffffffffffffffffffffffffffff19168152602001600282015481526020016003820160009054906101000a900460ff166003811115611b9257611b91612d0f565b5b6003811115611ba457611ba3612d0f565b5b8152602001600482015481526020016005820160009054906101000a900473ffffffffffffffffffffffffffffffffffffffff1673ffffffffffffffffffffffffffffffffffffffff1673ffffffffffffffffffffffffffffffffffffffff168152505090506000816000015190506000815114158015611c4d575060006003811115611c3457611c33612d0f565b5b82606001516003811115611c4b57611c4a612d0f565b5b145b611c8c576040517f08c379a0000000000000000000000000000000000000000000000000000000008152600401611c8390613767565b60405180910390fd5b6000611c9788611158565b90506000600660008381526020019081526020016000206004015490508060086000848152602001908152602001600020805490501015611d475760086000838152602001908152602001600020339080600181540180825580915050600190039060005260206000200160009091909190916101000a81548173ffffffffffffffffffffffffffffffffffffffff021916908373ffffffffffffffffffffffffffffffffffffffff1602179055505b611d5082612796565b6001600a60003373ffffffffffffffffffffffffffffffffffffffff1673ffffffffffffffffffffffffffffffffffffffff16815260200190815260200160002060006101000a81548160ff0219169083151502179055507fa3474aa350459c232bedb756bebddbbc9c946df2953a19125c9a6186a8efe9c133600660008581526020019081526020016000206000018460086000878152602001908152602001600020805490506006600088815260200190815260200160002060040154604051611e20959493929190613787565b60405180910390a16001975050505050505050919050565b6000611e4a611e45610591565b6112a2565b905090565b6000816001548111158015611e645750600081115b611ea3576040517f08c379a0000000000000000000000000000000000000000000000000000000008152600401611e9a90613045565b60405180910390fd5b826006600082815260200190815260200160002060050160009054906101000a900473ffffffffffffffffffffffffffffffffffffffff1673ffffffffffffffffffffffffffffffffffffffff163373ffffffffffffffffffffffffffffffffffffffff1614611f48576040517f08c379a0000000000000000000000000000000000000000000000000000000008152600401611f3f906130d7565b60405180910390fd5b6000600660008681526020019081526020016000206040518060c0016040529081600082018054611f7890613192565b80601f0160208091040260200160405190810160405280929190818152602001828054611fa490613192565b8015611ff15780601f10611fc657610100808354040283529160200191611ff1565b820191906000526020600020905b815481529060010190602001808311611fd457829003601f168201915b505050505081526020016001820160009054906101000a900460e01b7bffffffffffffffffffffffffffffffffffffffffffffffffffffffff19167bffffffffffffffffffffffffffffffffffffffffffffffffffffffff19168152602001600282015481526020016003820160009054906101000a900460ff16600381111561207e5761207d612d0f565b5b60038111156120905761208f612d0f565b5b8152602001600482015481526020016005820160009054906101000a900473ffffffffffffffffffffffffffffffffffffffff1673ffffffffffffffffffffffffffffffffffffffff1673ffffffffffffffffffffffffffffffffffffffff1681525050905080602001519350505050919050565b606060008060008060008660015481111580156121225750600081115b612161576040517f08c379a000000000000000000000000000000000000000000000000000000000815260040161215890613045565b60405180910390fd5b6000600660008a81526020019081526020016000206040518060c001604052908160008201805461219190613192565b80601f01602080910402602001604051908101604052809291908181526020018280546121bd90613192565b801561220a5780601f106121df5761010080835404028352916020019161220a565b820191906000526020600020905b8154815290600101906020018083116121ed57829003601f168201915b505050505081526020016001820160009054906101000a900460e01b7bffffffffffffffffffffffffffffffffffffffffffffffffffffffff19167bffffffffffffffffffffffffffffffffffffffffffffffffffffffff19168152602001600282015481526020016003820160009054906101000a900460ff16600381111561229757612296612d0f565b5b60038111156122a9576122a8612d0f565b5b8152602001600482015481526020016005820160009054906101000a900473ffffffffffffffffffffffffffffffffffffffff1673ffffffffffffffffffffffffffffffffffffffff1673ffffffffffffffffffffffffffffffffffffffff168152505090506000600860008b815260200190815260200160002080549050905081600001518260200151836060015184608001518560a001518598509850985098509850985050505091939550919395565b60076020528060005260406000206000915090505481565b600960009054906101000a900473ffffffffffffffffffffffffffffffffffffffff1673ffffffffffffffffffffffffffffffffffffffff163373ffffffffffffffffffffffffffffffffffffffff16148061247857503073ffffffffffffffffffffffffffffffffffffffff16638da5cb5b6040518163ffffffff1660e01b815260040160206040518083038186803b15801561241157600080fd5b505afa158015612425573d6000803e3d6000fd5b505050506040513d601f19601f8201168201806040525081019061244991906133cd565b73ffffffffffffffffffffffffffffffffffffffff163373ffffffffffffffffffffffffffffffffffffffff16145b61248157600080fd5b565b61248b6126ca565b73ffffffffffffffffffffffffffffffffffffffff166124a9611249565b73ffffffffffffffffffffffffffffffffffffffff16146124ff576040517f08c379a00000000000000000000000000000000000000000000000000000000081526004016124f690613398565b60405180910390fd5b600073ffffffffffffffffffffffffffffffffffffffff168173ffffffffffffffffffffffffffffffffffffffff16141561256f576040517f08c379a000000000000000000000000000000000000000000000000000000000815260040161256690613853565b60405180910390fd5b612578816126d2565b50565b600960009054906101000a900473ffffffffffffffffffffffffffffffffffffffff1673ffffffffffffffffffffffffffffffffffffffff163373ffffffffffffffffffffffffffffffffffffffff16148061267f57503073ffffffffffffffffffffffffffffffffffffffff16638da5cb5b6040518163ffffffff1660e01b815260040160206040518083038186803b15801561261857600080fd5b505afa15801561262c573d6000803e3d6000fd5b505050506040513d601f19601f8201168201806040525081019061265091906133cd565b73ffffffffffffffffffffffffffffffffffffffff163373ffffffffffffffffffffffffffffffffffffffff16145b61268857600080fd5b8060048190555050565b6000838383426040516020016126ab9493929190613918565b6040516020818303038152906040528051906020012090509392505050565b600033905090565b60008060009054906101000a900473ffffffffffffffffffffffffffffffffffffffff169050816000806101000a81548173ffffffffffffffffffffffffffffffffffffffff021916908373ffffffffffffffffffffffffffffffffffffffff1602179055508173ffffffffffffffffffffffffffffffffffffffff168173ffffffffffffffffffffffffffffffffffffffff167f8be0079c531659141344cd1fd0a4f28419497f9722a3daafe3b4186f6b6457e060405160405180910390a35050565b8060015481111580156127a95750600081115b6127e8576040517f08c379a00000000000000000000000000000000000000000000000000000000081526004016127df90613045565b60405180910390fd5b60066000838152602001908152602001600020600401546008600084815260200190815260200160002080549050141561285c5760016006600084815260200190815260200160002060030160006101000a81548160ff0219169083600381111561285657612855612d0f565b5b02179055505b7f06cb8bd8c6a4102a31ce41f100ec97e0e6f550ee4dc1fbe8ad20cfa389c9b5ce60066000848152602001908152602001600020600001836040516128a2929190613259565b60405180910390a15050565b8280546128ba90613192565b90600052602060002090601f0160209004810192826128dc5760008555612923565b82601f106128f557805160ff1916838001178555612923565b82800160010185558215612923579182015b82811115612922578251825591602001919060010190612907565b5b5090506129309190612934565b5090565b5b8082111561294d576000816000905550600101612935565b5090565b6000819050919050565b61296481612951565b82525050565b600060208201905061297f600083018461295b565b92915050565b6000604051905090565b600080fd5b600080fd5b6129a281612951565b81146129ad57600080fd5b50565b6000813590506129bf81612999565b92915050565b6000602082840312156129db576129da61298f565b5b60006129e9848285016129b0565b91505092915050565b60008115159050919050565b612a07816129f2565b82525050565b6000602082019050612a2260008301846129fe565b92915050565b600080fd5b600080fd5b6000601f19601f8301169050919050565b7f4e487b7100000000000000000000000000000000000000000000000000000000600052604160045260246000fd5b612a7b82612a32565b810181811067ffffffffffffffff82111715612a9a57612a99612a43565b5b80604052505050565b6000612aad612985565b9050612ab98282612a72565b919050565b600067ffffffffffffffff821115612ad957612ad8612a43565b5b612ae282612a32565b9050602081019050919050565b82818337600083830152505050565b6000612b11612b0c84612abe565b612aa3565b905082815260208101848484011115612b2d57612b2c612a2d565b5b612b38848285612aef565b509392505050565b600082601f830112612b5557612b54612a28565b5b8135612b65848260208601612afe565b91505092915050565b60008060408385031215612b8557612b8461298f565b5b600083013567ffffffffffffffff811115612ba357612ba2612994565b5b612baf85828601612b40565b9250506020612bc0858286016129b0565b9150509250929050565b6000604082019050612bdf60008301856129fe565b612bec602083018461295b565b9392505050565b612bfc816129f2565b8114612c0757600080fd5b50565b600081359050612c1981612bf3565b92915050565b600060208284031215612c3557612c3461298f565b5b6000612c4384828501612c0a565b91505092915050565b600081519050919050565b600082825260208201905092915050565b60005b83811015612c86578082015181840152602081019050612c6b565b83811115612c95576000848401525b50505050565b6000612ca682612c4c565b612cb08185612c57565b9350612cc0818560208601612c68565b612cc981612a32565b840191505092915050565b60007fffffffff0000000000000000000000000000000000000000000000000000000082169050919050565b612d0981612cd4565b82525050565b7f4e487b7100000000000000000000000000000000000000000000000000000000600052602160045260246000fd5b60048110612d4f57612d4e612d0f565b5b50565b6000819050612d6082612d3e565b919050565b6000612d7082612d52565b9050919050565b612d8081612d65565b82525050565b600073ffffffffffffffffffffffffffffffffffffffff82169050919050565b6000612db182612d86565b9050919050565b612dc181612da6565b82525050565b600060c0820190508181036000830152612de18189612c9b565b9050612df06020830188612d00565b612dfd604083018761295b565b612e0a6060830186612d77565b612e17608083018561295b565b612e2460a0830184612db8565b979650505050505050565b612e3881612cd4565b8114612e4357600080fd5b50565b600081359050612e5581612e2f565b92915050565b600060208284031215612e7157612e7061298f565b5b6000612e7f84828501612e46565b91505092915050565b612e9181612da6565b8114612e9c57600080fd5b50565b600081359050612eae81612e88565b92915050565b600060208284031215612eca57612ec961298f565b5b6000612ed884828501612e9f565b91505092915050565b6000819050919050565b6000612f06612f01612efc84612d86565b612ee1565b612d86565b9050919050565b6000612f1882612eeb565b9050919050565b6000612f2a82612f0d565b9050919050565b612f3a81612f1f565b82525050565b6000602082019050612f556000830184612f31565b92915050565b600060c0820190508181036000830152612f758189612c9b565b9050612f846020830188612d00565b612f916040830187612d77565b612f9e606083018661295b565b612fab6080830185612db8565b612fb860a083018461295b565b979650505050505050565b6000602082019050612fd86000830184612db8565b92915050565b6000602082019050612ff36000830184612d00565b92915050565b7f496e76616c69642063616d706169676e20696400000000000000000000000000600082015250565b600061302f601383612c57565b915061303a82612ff9565b602082019050919050565b6000602082019050818103600083015261305e81613022565b9050919050565b7f4f6e6c792063616d706169676e20686f73742063616e20706572666f726d207460008201527f68697320616374696f6e2e000000000000000000000000000000000000000000602082015250565b60006130c1602b83612c57565b91506130cc82613065565b604082019050919050565b600060208201905081810360008301526130f0816130b4565b9050919050565b7f43616d706169676e20616c726561647920636c6f7365642e0000000000000000600082015250565b600061312d601883612c57565b9150613138826130f7565b602082019050919050565b6000602082019050818103600083015261315c81613120565b9050919050565b7f4e487b7100000000000000000000000000000000000000000000000000000000600052602260045260246000fd5b600060028204905060018216806131aa57607f821691505b602082108114156131be576131bd613163565b5b50919050565b60008190508160005260206000209050919050565b600081546131e681613192565b6131f08186612c57565b9450600182166000811461320b576001811461321d57613250565b60ff1983168652602086019350613250565b613226856131c4565b60005b8381101561324857815481890152600182019150602081019050613229565b808801955050505b50505092915050565b6000604082019050818103600083015261327381856131d9565b9050613282602083018461295b565b9392505050565b7f4e487b7100000000000000000000000000000000000000000000000000000000600052601160045260246000fd5b60006132c382612951565b91506132ce83612951565b9250827fffffffffffffffffffffffffffffffffffffffffffffffffffffffffffffffff0382111561330357613302613289565b5b828201905092915050565b600060608201905081810360008301526133288186612c9b565b9050613337602083018561295b565b6133446040830184612d00565b949350505050565b7f4f776e61626c653a2063616c6c6572206973206e6f7420746865206f776e6572600082015250565b6000613382602083612c57565b915061338d8261334c565b602082019050919050565b600060208201905081810360008301526133b181613375565b9050919050565b6000815190506133c781612e88565b92915050565b6000602082840312156133e3576133e261298f565b5b60006133f1848285016133b8565b91505092915050565b7f636f646520697320696e76616c69642e00000000000000000000000000000000600082015250565b6000613430601083612c57565b915061343b826133fa565b602082019050919050565b6000602082019050818103600083015261345f81613423565b9050919050565b7f43616d706169676e2073686f756c6420626520616c726561647920636c6f736560008201527f64206f722066756c6c2e00000000000000000000000000000000000000000000602082015250565b60006134c2602a83612c57565b91506134cd82613466565b604082019050919050565b600060208201905081810360008301526134f1816134b5565b9050919050565b60008151905061350781612999565b92915050565b6000602082840312156135235761352261298f565b5b6000613531848285016134f8565b91505092915050565b7f4e487b7100000000000000000000000000000000000000000000000000000000600052603260045260246000fd5b600060408201905061357e6000830185612db8565b61358b602083018461295b565b9392505050565b6000815190506135a181612bf3565b92915050565b6000602082840312156135bd576135bc61298f565b5b60006135cb84828501613592565b91505092915050565b60006135df82612951565b91507fffffffffffffffffffffffffffffffffffffffffffffffffffffffffffffffff82141561361257613611613289565b5b600182019050919050565b7f596f75206861766520616c7265616479207265676973746572656420746f206160008201527f2063616d706169676e2e00000000000000000000000000000000000000000000602082015250565b6000613679602a83612c57565b91506136848261361d565b604082019050919050565b600060208201905081810360008301526136a88161366c565b9050919050565b7f4d61782063617061636974792072656163686564000000000000000000000000600082015250565b60006136e5601483612c57565b91506136f0826136af565b602082019050919050565b60006020820190508181036000830152613714816136d8565b9050919050565b7f43616d706167696e206973206e6f74206f70656e000000000000000000000000600082015250565b6000613751601483612c57565b915061375c8261371b565b602082019050919050565b6000602082019050818103600083015261378081613744565b9050919050565b600060a08201905061379c6000830188612db8565b81810360208301526137ae81876131d9565b90506137bd604083018661295b565b6137ca606083018561295b565b6137d7608083018461295b565b9695505050505050565b7f4f776e61626c653a206e6577206f776e657220697320746865207a65726f206160008201527f6464726573730000000000000000000000000000000000000000000000000000602082015250565b600061383d602683612c57565b9150613848826137e1565b604082019050919050565b6000602082019050818103600083015261386c81613830565b9050919050565b600081905092915050565b600061388982612c4c565b6138938185613873565b93506138a3818560208601612c68565b80840191505092915050565b6000819050919050565b6138ca6138c582612951565b6138af565b82525050565b60008160601b9050919050565b60006138e8826138d0565b9050919050565b60006138fa826138dd565b9050919050565b61391261390d82612da6565b6138ef565b82525050565b6000613924828761387e565b915061393082866138b9565b6020820191506139408285613901565b60148201915061395082846138b9565b6020820191508190509594505050505056fea264697066735822122011401bf6156492822c78346d6d7cf1fc52b1dd6048a101431a982e4a9efb3a0364736f6c63430008090033",
  "immutableReferences": {},
  "source": "// SPDX-License-Identifier: MIT\npragma solidity 0.8.9;\n\nimport \"@openzeppelin/contracts/access/Ownable.sol\";\nimport './Wormies.sol';\n\n/**\n/// @title A contract to run early bird promotions for first N registrants\n/// @author chaudhga\n/// @custom:experimental This is an experimental contract.\n */\ncontract EarlyBirds is Ownable{\n  uint public campaignCount;\n\n  uint8   private constant DECIMALS = 18;\n  uint256 private constant DECIMALFACTOR = 10 ** uint256(DECIMALS);\n  uint256 private TOKENS_PER_REGISTRANT = 100 * uint256(DECIMALFACTOR);\n  uint256 private AIRDROP_SUPPLY = 10000000 * uint256(DECIMALFACTOR);\n  uint256 private TOTAL_SUPPLY = 1000000000000 * uint256(DECIMALFACTOR);  \n\n  // Reset DEMO to false when moving to production (and specify admin address explicitely through setAdmin)\n  // DEMO=true: Makes latest campaign host admin \n  bool private DEMO = true;\n\n  Wormies public wormies;\n\n  mapping (uint => Campaign) public campaigns;\n  mapping (bytes4 => uint) public campaignCodes;\n  mapping (uint => address[]) private registrants;\n  enum State{Open, Full, Closed, Airdropped}\n\n  address private _admin;\n\n  mapping (address => bool) public registrantStatus;\n\n  struct Campaign{\n    string title; \n    bytes4 code; \n    uint id; \n    State state; \n    uint capacity; \n    address host;\n  }\n\n  event LogCampaignOpened(string title, uint id, bytes4 campaignCode);\n  event LogCampaignClosed(string title, uint id);\n  event LogCampaignFull(string title, uint id);\n  event LogRegistration(address _address, string title, uint campaignID, uint totalRegistered, uint maxCapacity);\n\n  constructor(address _token) {\n    campaignCount = 0;\n    wormies = Wormies(_token);\n  }\n\n/**\n/// @notice creates a new campaign; generates campaign id to be shared for registrations\n///         assigns creator as the host which allows them to controol states\n/// @dev to fetch details of the campaign created call getCampaignDetails\n/// TODO: Ability to handle miltiple concurrent campaign creations\n */\n  function addCampaign(string memory _title, uint _capacity) public returns(bool, uint){\n    bytes4 _code = hash(_title, _capacity, msg.sender);\n    campaignCount += 1;\n    campaigns[campaignCount] = Campaign({\n      title: _title,\n      code: _code,\n      id: campaignCount,\n      state: State.Open,\n      capacity: _capacity,\n      host: msg.sender\n    });\n    campaignCodes[_code] = campaignCount;\n\n    if(DEMO){\n      // Make current campaign creator admin to be able to carry out airdrops\n      _admin = msg.sender;\n    }\n\n    emit LogCampaignOpened(_title, campaignCount, _code);\n    return (true, campaignCount);\n  }\n\n/** \n/// @notice registration function (requires campaign code provided by host), only allows single registration\n/// @dev updates the state to full for last registrant, should call resetRegistrations() first to allow re-registrations \n */\n  function register(bytes4 _code) public \n    validCode(_code)\n    notAlreadyRegistered()\n    hasCapacity(codeToID(_code))\n    isOpen(codeToID(_code))\n    returns(bool){\n      uint _id = codeToID(_code);\n      uint _capacity = campaigns[_id].capacity;\n      if(registrants[_id].length < _capacity){\n          registrants[_id].push(msg.sender);\n      }\n      checkAndMarkFull(_id);\n      registrantStatus[msg.sender]=true;\n      emit LogRegistration(msg.sender, campaigns[_id].title, _id, registrants[_id].length, campaigns[_id].capacity);\n      return true;\n    }\n/** \n/// @notice Only host can close the campaign. Campaign can be closed at any stage, full or not.\n/// @dev before executing airdrop campaign registration must be closed\n */\n  function close(uint _id) public \n    validID(_id)\n    onlyHost(_id)\n    isNotClosed(_id)\n    returns(bool){\n      campaigns[_id].state = State.Closed;\n      emit LogCampaignClosed(campaigns[_id].title, _id);\n      return(true);\n    }\n  function closeByCode(bytes4 _code) public \n  onlyHost(campaignCodes[_code])\n  returns(bool){\n    return(close(campaignCodes[_code]));\n  }\n  function closeLatestCampaign() public \n  onlyHost(getCampaignID())\n  returns(bool){\n    return(close(getCampaignID()));\n  }\n/** \n/// @notice Allocate tokens to registrants \n/// @dev only hosts can call this\n */\n  function airdrop(uint _id) public \n    validID(_id)\n    onlyAdmin\n    isClosedOrFull(_id)\n    hasRegistrants(_id)\n    returns(bool){\n    uint totalRegistrants = registrants[_id].length;\n    campaigns[_id].state = State.Airdropped;\n    require(wormies.balanceOf(address(this))>=TOKENS_PER_REGISTRANT);\n    for(uint i=0; i<totalRegistrants; i++){\n        address registrant = registrants[_id][i];\n        wormies.transfer(registrant, TOKENS_PER_REGISTRANT);\n      }\n      return(true);\n    }\n  // currently only allows airdrop for latest campaign\n  function airdropLatestCampaign() public\n  returns(bool){\n    return(airdrop(getCampaignID()));\n  }\n\n  /**\n  /// Generates Unique Hash using keccak256 to be used as code to be shared using title & capacity\n   */\n  function hash (\n        string memory _text,\n        uint _num,\n        address _addr\n    ) internal view returns (bytes4) {\n        return bytes4(keccak256(abi.encodePacked(_text, _num, _addr, block.timestamp)));\n    }\n\n\n  /**\n  /// Set Functions to configure Airdrop related parameters by Owner/Admin\n   */\n  function setDemo(bool _isDemo) public onlyOwner{\n    DEMO = _isDemo;\n  }\n\n  function setAdmin(address _adminAddr) public onlyOwner{\n    // TODO: Functionality to add new addresses as admin to perform airdrops etc.\n    _admin = _adminAddr;\n  }\n\n  function setTokensPerRegistrant(uint _tprAmount) public onlyAdmin{\n    TOKENS_PER_REGISTRANT = _tprAmount;\n  }\n\n  function setAirdropSupply(uint _airdropSupply) public onlyAdmin{\n    AIRDROP_SUPPLY = _airdropSupply;\n  }\n\n  function setTotalSupply(uint _totalSupply) public onlyAdmin{\n    TOTAL_SUPPLY = _totalSupply;\n  }\n\n  function resetRegistrations() public onlyAdmin{ \n    // TODO: Clear status of registrants, \n    //       allow re-regestrations for previously registered\n  }\n\n  /** \n  ///  Utility Functions\n   */\n  function getCampaignID() public view validID(campaignCount) returns(uint){\n    return campaignCount;\n  }\n  function codeToID(bytes4 _code) public view validCode(_code) returns(uint){\n    return(campaignCodes[_code]);\n  }\n\n  // Retrieves campaign details using id\n  function getCampaignDetails(uint _id) public view\n    validID(_id)\n    returns(string memory, bytes4 , State , uint , address , uint ){\n      Campaign memory campaign = campaigns[_id];\n      uint registrationCount = registrants[_id].length;\n      return(campaign.title, campaign.code, campaign.state, campaign.capacity, campaign.host, registrationCount);\n    }\n  \n  function getLastCampaignDetails() public view\n    validID(getCampaignID())\n    returns(string memory, bytes4 , State , uint , address , uint ){\n      return(getCampaignDetails(getCampaignID()));\n    }\n  \n  // Retrieves campaign details using code\n  function getCampaignDetailsByCode(bytes4 _code) public view\n    returns(string memory, bytes4 , State , uint , address , uint ){\n      return(getCampaignDetails(codeToID(_code)));\n    }\n  \n  // Allows host to reteive last code generated\n  function getCompaignCodeById(uint _id) public view \n  validID(_id)\n  onlyHost(_id) \n  returns(bytes4 _code){\n    Campaign memory _campaign = campaigns[_id];\n    return(_campaign.code);\n  }\n\n  function checkAndMarkFull(uint _id) internal validID(_id){\n    if(registrants[_id].length == campaigns[_id].capacity){\n        campaigns[_id].state = State.Full;\n    }\n    emit LogCampaignFull(campaigns[_id].title, _id);\n  }\n\n  /**\n  /// Modifiers \n   */\n  modifier onlyHost(uint _campaignID){\n    require(msg.sender == campaigns[_campaignID].host, \"Only campaign host can perform this action.\");\n    _;\n  }\n\n  modifier onlyAdmin(){\n    require(msg.sender == _admin || msg.sender == this.owner());\n    _;\n  }\n\n  modifier notAlreadyRegistered(){\n    require(!registrantStatus[msg.sender], \"You have already registered to a campaign.\");\n    _;\n  }\n  modifier isOpen(uint _campaignID){\n    Campaign memory campaign = campaigns[_campaignID];\n    bytes memory emptyTitleTest = bytes(campaign.title);\n    require(emptyTitleTest.length != 0 && campaign.state == State.Open, \"Campagin is not open\");\n    _;\n  }\n  modifier isNotClosed(uint _campaignID){\n    require(campaigns[_campaignID].state != State.Closed, \"Campaign already closed.\");\n    _;\n  }\n  modifier isClosedOrFull(uint _campaignID){\n    State campaignState = campaigns[_campaignID].state;\n    require(campaignState == State.Closed || campaignState == State.Full, \"Campaign should be already closed or full.\");\n    _;\n  }\n  modifier hasCapacity(uint _campaignID){\n    require(campaigns[_campaignID].state != State.Full && \n            registrants[_campaignID].length < campaigns[_campaignID].capacity, \"Max capacity reached\");\n    _;\n  }\n  modifier validCode(bytes4 _code){\n    require(campaignCodes[_code] > 0, \"code is invalid.\");\n    _;\n  }\n  modifier validID(uint _id){\n    require(_id <= campaignCount && _id > 0, \"Invalid campaign id\");\n    _;\n  }\n  modifier hasRegistrants(uint _id){\n    require(registrants[_id].length > 0);\n    _;\n  }\n}",
  "sourcePath": "/Users/gaurav/trufflebox-react/contracts/EarlyBirds.sol",
  "compiler": {
    "name": "solc",
    "version": "0.8.9+commit.e5eed63a.Emscripten.clang"
  },
  "schemaVersion": "3.4.4",
  "updatedAt": "2022-01-23T16:42:19.396Z",
  "networkType": "ethereum",
  "devdoc": {
    "author": "chaudhga",
    "custom:experimental": "This is an experimental contract.",
    "kind": "dev",
    "methods": {
      "addCampaign(string,uint256)": {
        "details": "to fetch details of the campaign created call getCampaignDetails /// TODO: Ability to handle miltiple concurrent campaign creations"
      },
      "airdrop(uint256)": {
        "details": "only hosts can call this"
      },
      "close(uint256)": {
        "details": "before executing airdrop campaign registration must be closed"
      },
      "owner()": {
        "details": "Returns the address of the current owner."
      },
      "register(bytes4)": {
        "details": "updates the state to full for last registrant, should call resetRegistrations() first to allow re-registrations "
      },
      "renounceOwnership()": {
        "details": "Leaves the contract without owner. It will not be possible to call `onlyOwner` functions anymore. Can only be called by the current owner. NOTE: Renouncing ownership will leave the contract without an owner, thereby removing any functionality that is only available to the owner."
      },
      "transferOwnership(address)": {
        "details": "Transfers ownership of the contract to a new account (`newOwner`). Can only be called by the current owner."
      }
    },
    "title": "A contract to run early bird promotions for first N registrants",
    "version": 1
  },
  "userdoc": {
    "kind": "user",
    "methods": {
      "addCampaign(string,uint256)": {
        "notice": "creates a new campaign; generates campaign id to be shared for registrations ///         assigns creator as the host which allows them to controol states"
      },
      "airdrop(uint256)": {
        "notice": "Allocate tokens to registrants "
      },
      "close(uint256)": {
        "notice": "Only host can close the campaign. Campaign can be closed at any stage, full or not."
      },
      "getCampaignID()": {
        "notice": "///  Utility Functions"
      },
      "register(bytes4)": {
        "notice": "registration function (requires campaign code provided by host), only allows single registration"
      },
      "setDemo(bool)": {
        "notice": "/// Set Functions to configure Airdrop related parameters by Owner/Admin"
      }
    },
    "version": 1
  }
}