{
  "contractName": "EarlyBirds",
  "abi": [
    {
      "inputs": [
        {
          "internalType": "address",
          "name": "_token",
          "type": "address"
        }
      ],
      "stateMutability": "nonpayable",
      "type": "constructor"
    },
    {
      "anonymous": false,
      "inputs": [
        {
          "indexed": false,
          "internalType": "string",
          "name": "title",
          "type": "string"
        },
        {
          "indexed": false,
          "internalType": "uint256",
          "name": "id",
          "type": "uint256"
        }
      ],
      "name": "LogCampaignClosed",
      "type": "event"
    },
    {
      "anonymous": false,
      "inputs": [
        {
          "indexed": false,
          "internalType": "string",
          "name": "title",
          "type": "string"
        },
        {
          "indexed": false,
          "internalType": "bytes4",
          "name": "code",
          "type": "bytes4"
        },
        {
          "indexed": false,
          "internalType": "enum EarlyBirds.State",
          "name": "state",
          "type": "uint8"
        },
        {
          "indexed": false,
          "internalType": "uint256",
          "name": "capacity",
          "type": "uint256"
        },
        {
          "indexed": false,
          "internalType": "address",
          "name": "host",
          "type": "address"
        },
        {
          "indexed": false,
          "internalType": "uint256",
          "name": "registrationCount",
          "type": "uint256"
        }
      ],
      "name": "LogCampaignDetails",
      "type": "event"
    },
    {
      "anonymous": false,
      "inputs": [
        {
          "indexed": false,
          "internalType": "string",
          "name": "title",
          "type": "string"
        },
        {
          "indexed": false,
          "internalType": "uint256",
          "name": "id",
          "type": "uint256"
        }
      ],
      "name": "LogCampaignFull",
      "type": "event"
    },
    {
      "anonymous": false,
      "inputs": [
        {
          "indexed": false,
          "internalType": "string",
          "name": "title",
          "type": "string"
        },
        {
          "indexed": false,
          "internalType": "uint256",
          "name": "id",
          "type": "uint256"
        },
        {
          "indexed": false,
          "internalType": "bytes4",
          "name": "campaignCode",
          "type": "bytes4"
        }
      ],
      "name": "LogCampaignOpened",
      "type": "event"
    },
    {
      "anonymous": false,
      "inputs": [
        {
          "indexed": false,
          "internalType": "address",
          "name": "_address",
          "type": "address"
        },
        {
          "indexed": false,
          "internalType": "uint256",
          "name": "campaignID",
          "type": "uint256"
        }
      ],
      "name": "LogRegistration",
      "type": "event"
    },
    {
      "inputs": [],
      "name": "AIRDROP_SUPPLY",
      "outputs": [
        {
          "internalType": "uint256",
          "name": "",
          "type": "uint256"
        }
      ],
      "stateMutability": "view",
      "type": "function",
      "constant": true
    },
    {
      "inputs": [],
      "name": "DECIMALFACTOR",
      "outputs": [
        {
          "internalType": "uint256",
          "name": "",
          "type": "uint256"
        }
      ],
      "stateMutability": "view",
      "type": "function",
      "constant": true
    },
    {
      "inputs": [],
      "name": "DECIMALS",
      "outputs": [
        {
          "internalType": "uint8",
          "name": "",
          "type": "uint8"
        }
      ],
      "stateMutability": "view",
      "type": "function",
      "constant": true
    },
    {
      "inputs": [],
      "name": "TOTAL_SUPPLY",
      "outputs": [
        {
          "internalType": "uint256",
          "name": "",
          "type": "uint256"
        }
      ],
      "stateMutability": "view",
      "type": "function",
      "constant": true
    },
    {
      "inputs": [
        {
          "internalType": "bytes4",
          "name": "",
          "type": "bytes4"
        }
      ],
      "name": "campaignCodes",
      "outputs": [
        {
          "internalType": "uint256",
          "name": "",
          "type": "uint256"
        }
      ],
      "stateMutability": "view",
      "type": "function",
      "constant": true
    },
    {
      "inputs": [],
      "name": "campaignCount",
      "outputs": [
        {
          "internalType": "uint256",
          "name": "",
          "type": "uint256"
        }
      ],
      "stateMutability": "view",
      "type": "function",
      "constant": true
    },
    {
      "inputs": [
        {
          "internalType": "uint256",
          "name": "",
          "type": "uint256"
        }
      ],
      "name": "campaigns",
      "outputs": [
        {
          "internalType": "string",
          "name": "title",
          "type": "string"
        },
        {
          "internalType": "bytes4",
          "name": "code",
          "type": "bytes4"
        },
        {
          "internalType": "uint256",
          "name": "id",
          "type": "uint256"
        },
        {
          "internalType": "enum EarlyBirds.State",
          "name": "state",
          "type": "uint8"
        },
        {
          "internalType": "uint256",
          "name": "capacity",
          "type": "uint256"
        },
        {
          "internalType": "address",
          "name": "host",
          "type": "address"
        }
      ],
      "stateMutability": "view",
      "type": "function",
      "constant": true
    },
    {
      "inputs": [],
      "name": "owner",
      "outputs": [
        {
          "internalType": "address",
          "name": "",
          "type": "address"
        }
      ],
      "stateMutability": "view",
      "type": "function",
      "constant": true
    },
    {
      "inputs": [
        {
          "internalType": "address",
          "name": "",
          "type": "address"
        }
      ],
      "name": "registrantStatus",
      "outputs": [
        {
          "internalType": "bool",
          "name": "",
          "type": "bool"
        }
      ],
      "stateMutability": "view",
      "type": "function",
      "constant": true
    },
    {
      "inputs": [],
      "name": "wormies",
      "outputs": [
        {
          "internalType": "contract Wormies",
          "name": "",
          "type": "address"
        }
      ],
      "stateMutability": "view",
      "type": "function",
      "constant": true
    },
    {
      "inputs": [
        {
          "internalType": "bytes4",
          "name": "_code",
          "type": "bytes4"
        }
      ],
      "name": "codeToID",
      "outputs": [
        {
          "internalType": "uint256",
          "name": "",
          "type": "uint256"
        }
      ],
      "stateMutability": "view",
      "type": "function",
      "constant": true
    },
    {
      "inputs": [
        {
          "internalType": "string",
          "name": "_title",
          "type": "string"
        },
        {
          "internalType": "uint256",
          "name": "_capacity",
          "type": "uint256"
        }
      ],
      "name": "addCampaign",
      "outputs": [
        {
          "internalType": "bool",
          "name": "",
          "type": "bool"
        }
      ],
      "stateMutability": "nonpayable",
      "type": "function"
    },
    {
      "inputs": [
        {
          "internalType": "bytes4",
          "name": "_code",
          "type": "bytes4"
        }
      ],
      "name": "register",
      "outputs": [
        {
          "internalType": "bool",
          "name": "",
          "type": "bool"
        }
      ],
      "stateMutability": "nonpayable",
      "type": "function"
    },
    {
      "inputs": [
        {
          "internalType": "uint256",
          "name": "_id",
          "type": "uint256"
        }
      ],
      "name": "close",
      "outputs": [
        {
          "internalType": "bool",
          "name": "",
          "type": "bool"
        }
      ],
      "stateMutability": "nonpayable",
      "type": "function"
    },
    {
      "inputs": [
        {
          "internalType": "uint256",
          "name": "_id",
          "type": "uint256"
        }
      ],
      "name": "airdrop",
      "outputs": [
        {
          "internalType": "bool",
          "name": "",
          "type": "bool"
        }
      ],
      "stateMutability": "nonpayable",
      "type": "function"
    },
    {
      "inputs": [
        {
          "internalType": "uint256",
          "name": "_id",
          "type": "uint256"
        }
      ],
      "name": "getCampaignDetails",
      "outputs": [
        {
          "internalType": "string",
          "name": "",
          "type": "string"
        },
        {
          "internalType": "bytes4",
          "name": "",
          "type": "bytes4"
        },
        {
          "internalType": "enum EarlyBirds.State",
          "name": "",
          "type": "uint8"
        },
        {
          "internalType": "uint256",
          "name": "",
          "type": "uint256"
        },
        {
          "internalType": "address",
          "name": "",
          "type": "address"
        },
        {
          "internalType": "uint256",
          "name": "",
          "type": "uint256"
        }
      ],
      "stateMutability": "nonpayable",
      "type": "function"
    },
    {
      "inputs": [
        {
          "internalType": "uint256",
          "name": "_id",
          "type": "uint256"
        }
      ],
      "name": "getCompaignCodeById",
      "outputs": [
        {
          "internalType": "bytes4",
          "name": "_code",
          "type": "bytes4"
        }
      ],
      "stateMutability": "view",
      "type": "function",
      "constant": true
    },
    {
      "inputs": [
        {
          "internalType": "uint256",
          "name": "_id",
          "type": "uint256"
        }
      ],
      "name": "getCompaignStateById",
      "outputs": [
        {
          "internalType": "enum EarlyBirds.State",
          "name": "",
          "type": "uint8"
        }
      ],
      "stateMutability": "view",
      "type": "function",
      "constant": true
    },
    {
      "inputs": [
        {
          "internalType": "uint256",
          "name": "_id",
          "type": "uint256"
        }
      ],
      "name": "getRemainingCapacityById",
      "outputs": [
        {
          "internalType": "uint256",
          "name": "",
          "type": "uint256"
        }
      ],
      "stateMutability": "view",
      "type": "function",
      "constant": true
    },
    {
      "inputs": [
        {
          "internalType": "uint256",
          "name": "_id",
          "type": "uint256"
        }
      ],
      "name": "getRegistrantCount",
      "outputs": [
        {
          "internalType": "uint256",
          "name": "",
          "type": "uint256"
        }
      ],
      "stateMutability": "view",
      "type": "function",
      "constant": true
    },
    {
      "inputs": [
        {
          "internalType": "uint256",
          "name": "_id",
          "type": "uint256"
        }
      ],
      "name": "getCapacityById",
      "outputs": [
        {
          "internalType": "uint256",
          "name": "",
          "type": "uint256"
        }
      ],
      "stateMutability": "view",
      "type": "function",
      "constant": true
    }
  ],
  "bytecode": "0x6080604052601260ff16600a620000179190620002a2565b62989680620000279190620002f3565b600255601260ff16600a6200003d9190620002a2565b64e8d4a510006200004f9190620002f3565b6003553480156200005f57600080fd5b50604051620036a6380380620036a68339818101604052810190620000859190620003be565b336000806101000a81548173ffffffffffffffffffffffffffffffffffffffff021916908373ffffffffffffffffffffffffffffffffffffffff160217905550600060018190555080600460006101000a81548173ffffffffffffffffffffffffffffffffffffffff021916908373ffffffffffffffffffffffffffffffffffffffff16021790555050620003f0565b7f4e487b7100000000000000000000000000000000000000000000000000000000600052601160045260246000fd5b60008160011c9050919050565b6000808291508390505b6001851115620001a3578086048111156200017b576200017a62000115565b5b60018516156200018b5780820291505b80810290506200019b8562000144565b94506200015b565b94509492505050565b600082620001be576001905062000291565b81620001ce576000905062000291565b8160018114620001e75760028114620001f25762000228565b600191505062000291565b60ff84111562000207576200020662000115565b5b8360020a91508482111562000221576200022062000115565b5b5062000291565b5060208310610133831016604e8410600b8410161715620002625782820a9050838111156200025c576200025b62000115565b5b62000291565b62000271848484600162000151565b925090508184048111156200028b576200028a62000115565b5b81810290505b9392505050565b6000819050919050565b6000620002af8262000298565b9150620002bc8362000298565b9250620002eb7fffffffffffffffffffffffffffffffffffffffffffffffffffffffffffffffff8484620001ac565b905092915050565b6000620003008262000298565b91506200030d8362000298565b9250817fffffffffffffffffffffffffffffffffffffffffffffffffffffffffffffffff048311821515161562000349576200034862000115565b5b828202905092915050565b600080fd5b600073ffffffffffffffffffffffffffffffffffffffff82169050919050565b6000620003868262000359565b9050919050565b620003988162000379565b8114620003a457600080fd5b50565b600081519050620003b8816200038d565b92915050565b600060208284031215620003d757620003d662000354565b5b6000620003e784828501620003a7565b91505092915050565b6132a680620004006000396000f3fe608060405234801561001057600080fd5b50600436106101375760003560e01c80638d95bbcf116100b8578063b3d91e411161007c578063b3d91e41146103a5578063d09f90af146103c3578063d6fb295f146103f3578063d92f94be14610423578063d993de6214610453578063e4a7ec4f1461048857610137565b80638d95bbcf146102d95780638da5cb5b14610309578063902d55a51461032757806397dc4a13146103455780639e97e16f1461037557610137565b806339615a53116100ff57806339615a531461021f5780637274e30d1461024f5780637bbb724f1461026d57806383cf17d61461028b5780638a857bc1146102bb57610137565b80630aebeb4e1461013c5780630eb666871461016c578063122604371461019c578063141961bc146101cc5780632e0f262514610201575b600080fd5b6101566004803603810190610151919061226a565b6104b8565b60405161016391906122b2565b60405180910390f35b61018660048036038101906101819190612413565b6106ca565b60405161019391906122b2565b60405180910390f35b6101b660048036038101906101b1919061226a565b6108ee565b6040516101c391906124e6565b60405180910390f35b6101e660048036038101906101e1919061226a565b610af2565b6040516101f896959493929190612614565b60405180910390f35b610209610bf0565b6040516102169190612698565b60405180910390f35b6102396004803603810190610234919061226a565b610bf5565b60405161024691906126b3565b60405180910390f35b610257610e20565b60405161026491906126b3565b60405180910390f35b610275610e26565b604051610282919061272d565b60405180910390f35b6102a560048036038101906102a0919061226a565b610e4c565b6040516102b291906126b3565b60405180910390f35b6102c3611050565b6040516102d091906126b3565b60405180910390f35b6102f360048036038101906102ee9190612774565b611056565b60405161030091906126b3565b60405180910390f35b610311611147565b60405161031e91906127a1565b60405180910390f35b61032f61116b565b60405161033c91906126b3565b60405180910390f35b61035f600480360381019061035a919061226a565b611171565b60405161036c91906122b2565b60405180910390f35b61038f600480360381019061038a91906127e8565b6114b1565b60405161039c91906122b2565b60405180910390f35b6103ad6114d1565b6040516103ba91906126b3565b60405180910390f35b6103dd60048036038101906103d8919061226a565b6114e5565b6040516103ea91906126b3565b60405180910390f35b61040d60048036038101906104089190612774565b61154c565b60405161041a91906122b2565b60405180910390f35b61043d6004803603810190610438919061226a565b611ad9565b60405161044a9190612815565b60405180910390f35b61046d6004803603810190610468919061226a565b611d83565b60405161047f96959493929190612830565b60405180910390f35b6104a2600480360381019061049d9190612774565b612023565b6040516104af91906126b3565b60405180910390f35b600081600154811115610500576040517f08c379a00000000000000000000000000000000000000000000000000000000081526004016104f7906128e4565b60405180910390fd5b826005600082815260200190815260200160002060050160009054906101000a900473ffffffffffffffffffffffffffffffffffffffff1673ffffffffffffffffffffffffffffffffffffffff163373ffffffffffffffffffffffffffffffffffffffff16146105a5576040517f08c379a000000000000000000000000000000000000000000000000000000000815260040161059c90612976565b60405180910390fd5b83600260038111156105ba576105b961246f565b5b6005600083815260200190815260200160002060030160009054906101000a900460ff1660038111156105f0576105ef61246f565b5b1415610631576040517f08c379a0000000000000000000000000000000000000000000000000000000008152600401610628906129e2565b60405180910390fd5b60026005600087815260200190815260200160002060030160006101000a81548160ff0219169083600381111561066b5761066a61246f565b5b02179055507fc46b99f2efd7cd2f7d87e519d6f92b5c95da33b8d602cb27d0edccfe40afe09b60056000878152602001908152602001600020600001866040516106b6929190612af8565b60405180910390a160019350505050919050565b6000806106d884843361203b565b905060018060008282546106ec9190612b57565b925050819055506040518060c00160405280858152602001827bffffffffffffffffffffffffffffffffffffffffffffffffffffffff191681526020016001548152602001600060038111156107455761074461246f565b5b81526020018481526020013373ffffffffffffffffffffffffffffffffffffffff16815250600560006001548152602001908152602001600020600082015181600001908051906020019061079b92919061217d565b5060208201518160010160006101000a81548163ffffffff021916908360e01c02179055506040820151816002015560608201518160030160006101000a81548160ff021916908360038111156107f5576107f461246f565b5b02179055506080820151816004015560a08201518160050160006101000a81548173ffffffffffffffffffffffffffffffffffffffff021916908373ffffffffffffffffffffffffffffffffffffffff16021790555090505060015460066000837bffffffffffffffffffffffffffffffffffffffffffffffffffffffff19167bffffffffffffffffffffffffffffffffffffffffffffffffffffffff19168152602001908152602001600020819055507ff2631a889d6d622b874d228753934d83cb53da3a8ac65dcb7bd86ababdaa70f884600154836040516108db93929190612bad565b60405180910390a1600191505092915050565b600081600154811115610936576040517f08c379a000000000000000000000000000000000000000000000000000000000815260040161092d906128e4565b60405180910390fd5b6000600560008581526020019081526020016000206040518060c001604052908160008201805461096690612a31565b80601f016020809104026020016040519081016040528092919081815260200182805461099290612a31565b80156109df5780601f106109b4576101008083540402835291602001916109df565b820191906000526020600020905b8154815290600101906020018083116109c257829003601f168201915b505050505081526020016001820160009054906101000a900460e01b7bffffffffffffffffffffffffffffffffffffffffffffffffffffffff19167bffffffffffffffffffffffffffffffffffffffffffffffffffffffff19168152602001600282015481526020016003820160009054906101000a900460ff166003811115610a6c57610a6b61246f565b5b6003811115610a7e57610a7d61246f565b5b8152602001600482015481526020016005820160009054906101000a900473ffffffffffffffffffffffffffffffffffffffff1673ffffffffffffffffffffffffffffffffffffffff1673ffffffffffffffffffffffffffffffffffffffff16815250509050806060015192505050919050565b6005602052806000526040600020600091509050806000018054610b1590612a31565b80601f0160208091040260200160405190810160405280929190818152602001828054610b4190612a31565b8015610b8e5780601f10610b6357610100808354040283529160200191610b8e565b820191906000526020600020905b815481529060010190602001808311610b7157829003601f168201915b5050505050908060010160009054906101000a900460e01b908060020154908060030160009054906101000a900460ff16908060040154908060050160009054906101000a900473ffffffffffffffffffffffffffffffffffffffff16905086565b601281565b600081600154811115610c3d576040517f08c379a0000000000000000000000000000000000000000000000000000000008152600401610c34906128e4565b60405180910390fd5b6000600560008581526020019081526020016000206040518060c0016040529081600082018054610c6d90612a31565b80601f0160208091040260200160405190810160405280929190818152602001828054610c9990612a31565b8015610ce65780601f10610cbb57610100808354040283529160200191610ce6565b820191906000526020600020905b815481529060010190602001808311610cc957829003601f168201915b505050505081526020016001820160009054906101000a900460e01b7bffffffffffffffffffffffffffffffffffffffffffffffffffffffff19167bffffffffffffffffffffffffffffffffffffffffffffffffffffffff19168152602001600282015481526020016003820160009054906101000a900460ff166003811115610d7357610d7261246f565b5b6003811115610d8557610d8461246f565b5b8152602001600482015481526020016005820160009054906101000a900473ffffffffffffffffffffffffffffffffffffffff1673ffffffffffffffffffffffffffffffffffffffff1673ffffffffffffffffffffffffffffffffffffffff16815250509050600060076000868152602001908152602001600020805490509050808260800151610e169190612beb565b9350505050919050565b60015481565b600460009054906101000a900473ffffffffffffffffffffffffffffffffffffffff1681565b600081600154811115610e94576040517f08c379a0000000000000000000000000000000000000000000000000000000008152600401610e8b906128e4565b60405180910390fd5b6000600560008581526020019081526020016000206040518060c0016040529081600082018054610ec490612a31565b80601f0160208091040260200160405190810160405280929190818152602001828054610ef090612a31565b8015610f3d5780601f10610f1257610100808354040283529160200191610f3d565b820191906000526020600020905b815481529060010190602001808311610f2057829003601f168201915b505050505081526020016001820160009054906101000a900460e01b7bffffffffffffffffffffffffffffffffffffffffffffffffffffffff19167bffffffffffffffffffffffffffffffffffffffffffffffffffffffff19168152602001600282015481526020016003820160009054906101000a900460ff166003811115610fca57610fc961246f565b5b6003811115610fdc57610fdb61246f565b5b8152602001600482015481526020016005820160009054906101000a900473ffffffffffffffffffffffffffffffffffffffff1673ffffffffffffffffffffffffffffffffffffffff1673ffffffffffffffffffffffffffffffffffffffff16815250509050806080015192505050919050565b60025481565b600081600060066000837bffffffffffffffffffffffffffffffffffffffffffffffffffffffff19167bffffffffffffffffffffffffffffffffffffffffffffffffffffffff1916815260200190815260200160002054116110ed576040517f08c379a00000000000000000000000000000000000000000000000000000000081526004016110e490612c6b565b60405180910390fd5b60066000847bffffffffffffffffffffffffffffffffffffffffffffffffffffffff19167bffffffffffffffffffffffffffffffffffffffffffffffffffffffff1916815260200190815260200160002054915050919050565b60008054906101000a900473ffffffffffffffffffffffffffffffffffffffff1681565b60035481565b6000816001548111156111b9576040517f08c379a00000000000000000000000000000000000000000000000000000000081526004016111b0906128e4565b60405180910390fd5b60008054906101000a900473ffffffffffffffffffffffffffffffffffffffff1673ffffffffffffffffffffffffffffffffffffffff163373ffffffffffffffffffffffffffffffffffffffff1614611247576040517f08c379a000000000000000000000000000000000000000000000000000000000815260040161123e90612cfd565b60405180910390fd5b8260006005600083815260200190815260200160002060030160009054906101000a900460ff169050600260038111156112845761128361246f565b5b8160038111156112975761129661246f565b5b14806112c75750600160038111156112b2576112b161246f565b5b8160038111156112c5576112c461246f565b5b145b611306576040517f08c379a00000000000000000000000000000000000000000000000000000000081526004016112fd90612d8f565b60405180910390fd5b84600060076000838152602001908152602001600020805490501161132a57600080fd5b60006007600088815260200190815260200160002080549050905060005b81811015611463576000600760008a8152602001908152602001600020828154811061137757611376612daf565b5b9060005260206000200160009054906101000a900473ffffffffffffffffffffffffffffffffffffffff169050600460009054906101000a900473ffffffffffffffffffffffffffffffffffffffff1673ffffffffffffffffffffffffffffffffffffffff166340c10f1982601260ff16600a6113f49190612f11565b60646114009190612f5c565b6040518363ffffffff1660e01b815260040161141d929190612fb6565b600060405180830381600087803b15801561143757600080fd5b505af115801561144b573d6000803e3d6000fd5b5050505050808061145b90612fdf565b915050611348565b5060036005600089815260200190815260200160002060030160006101000a81548160ff0219169083600381111561149e5761149d61246f565b5b0217905550600195505050505050919050565b60086020528060005260406000206000915054906101000a900460ff1681565b601260ff16600a6114e29190612f11565b81565b60008160015481111561152d576040517f08c379a0000000000000000000000000000000000000000000000000000000008152600401611524906128e4565b60405180910390fd5b6007600084815260200190815260200160002080549050915050919050565b600081600060066000837bffffffffffffffffffffffffffffffffffffffffffffffffffffffff19167bffffffffffffffffffffffffffffffffffffffffffffffffffffffff1916815260200190815260200160002054116115e3576040517f08c379a00000000000000000000000000000000000000000000000000000000081526004016115da90612c6b565b60405180910390fd5b600860003373ffffffffffffffffffffffffffffffffffffffff1673ffffffffffffffffffffffffffffffffffffffff16815260200190815260200160002060009054906101000a900460ff1615611670576040517f08c379a00000000000000000000000000000000000000000000000000000000081526004016116679061309a565b60405180910390fd5b61167983611056565b6001600381111561168d5761168c61246f565b5b6005600083815260200190815260200160002060030160009054906101000a900460ff1660038111156116c3576116c261246f565b5b141580156116fc575060056000828152602001908152602001600020600401546007600083815260200190815260200160002080549050105b61173b576040517f08c379a000000000000000000000000000000000000000000000000000000000815260040161173290613106565b60405180910390fd5b61174484611056565b6000600560008381526020019081526020016000206040518060c001604052908160008201805461177490612a31565b80601f01602080910402602001604051908101604052809291908181526020018280546117a090612a31565b80156117ed5780601f106117c2576101008083540402835291602001916117ed565b820191906000526020600020905b8154815290600101906020018083116117d057829003601f168201915b505050505081526020016001820160009054906101000a900460e01b7bffffffffffffffffffffffffffffffffffffffffffffffffffffffff19167bffffffffffffffffffffffffffffffffffffffffffffffffffffffff19168152602001600282015481526020016003820160009054906101000a900460ff16600381111561187a5761187961246f565b5b600381111561188c5761188b61246f565b5b8152602001600482015481526020016005820160009054906101000a900473ffffffffffffffffffffffffffffffffffffffff1673ffffffffffffffffffffffffffffffffffffffff1673ffffffffffffffffffffffffffffffffffffffff16815250509050600081600001519050600081511415801561193557506000600381111561191c5761191b61246f565b5b826060015160038111156119335761193261246f565b5b145b611974576040517f08c379a000000000000000000000000000000000000000000000000000000000815260040161196b90613172565b60405180910390fd5b600061197f88611056565b90506000600560008381526020019081526020016000206004015490508060076000848152602001908152602001600020805490501015611a2f5760076000838152602001908152602001600020339080600181540180825580915050600190039060005260206000200160009091909190916101000a81548173ffffffffffffffffffffffffffffffffffffffff021916908373ffffffffffffffffffffffffffffffffffffffff1602179055505b611a3882612071565b6001600860003373ffffffffffffffffffffffffffffffffffffffff1673ffffffffffffffffffffffffffffffffffffffff16815260200190815260200160002060006101000a81548160ff0219169083151502179055507f3479329ad3b085bce9776f2aa99ad193fd4208a8506d3db9985392b5fce30b853383604051611ac1929190612fb6565b60405180910390a16001975050505050505050919050565b600081600154811115611b21576040517f08c379a0000000000000000000000000000000000000000000000000000000008152600401611b18906128e4565b60405180910390fd5b826005600082815260200190815260200160002060050160009054906101000a900473ffffffffffffffffffffffffffffffffffffffff1673ffffffffffffffffffffffffffffffffffffffff163373ffffffffffffffffffffffffffffffffffffffff1614611bc6576040517f08c379a0000000000000000000000000000000000000000000000000000000008152600401611bbd90612976565b60405180910390fd5b6000600560008681526020019081526020016000206040518060c0016040529081600082018054611bf690612a31565b80601f0160208091040260200160405190810160405280929190818152602001828054611c2290612a31565b8015611c6f5780601f10611c4457610100808354040283529160200191611c6f565b820191906000526020600020905b815481529060010190602001808311611c5257829003601f168201915b505050505081526020016001820160009054906101000a900460e01b7bffffffffffffffffffffffffffffffffffffffffffffffffffffffff19167bffffffffffffffffffffffffffffffffffffffffffffffffffffffff19168152602001600282015481526020016003820160009054906101000a900460ff166003811115611cfc57611cfb61246f565b5b6003811115611d0e57611d0d61246f565b5b8152602001600482015481526020016005820160009054906101000a900473ffffffffffffffffffffffffffffffffffffffff1673ffffffffffffffffffffffffffffffffffffffff1673ffffffffffffffffffffffffffffffffffffffff1681525050905080602001519350505050919050565b6060600080600080600086600154811115611dd3576040517f08c379a0000000000000000000000000000000000000000000000000000000008152600401611dca906128e4565b60405180910390fd5b6000600560008a81526020019081526020016000206040518060c0016040529081600082018054611e0390612a31565b80601f0160208091040260200160405190810160405280929190818152602001828054611e2f90612a31565b8015611e7c5780601f10611e5157610100808354040283529160200191611e7c565b820191906000526020600020905b815481529060010190602001808311611e5f57829003601f168201915b505050505081526020016001820160009054906101000a900460e01b7bffffffffffffffffffffffffffffffffffffffffffffffffffffffff19167bffffffffffffffffffffffffffffffffffffffffffffffffffffffff19168152602001600282015481526020016003820160009054906101000a900460ff166003811115611f0957611f0861246f565b5b6003811115611f1b57611f1a61246f565b5b8152602001600482015481526020016005820160009054906101000a900473ffffffffffffffffffffffffffffffffffffffff1673ffffffffffffffffffffffffffffffffffffffff1673ffffffffffffffffffffffffffffffffffffffff168152505090506000600760008b81526020019081526020016000208054905090507f3c899b656870a69d0e8236714114bcc53f07a5d933a4c6136f8f910cc3de039082600001518360200151846060015185608001518660a0015186604051611fe996959493929190612830565b60405180910390a181600001518260200151836060015184608001518560a001518598509850985098509850985050505091939550919395565b60066020528060005260406000206000915090505481565b600083838360405160200161205293929190613237565b6040516020818303038152906040528051906020012090509392505050565b806001548111156120b7576040517f08c379a00000000000000000000000000000000000000000000000000000000081526004016120ae906128e4565b60405180910390fd5b60056000838152602001908152602001600020600401546007600084815260200190815260200160002080549050141561212b5760016005600084815260200190815260200160002060030160006101000a81548160ff021916908360038111156121255761212461246f565b5b02179055505b7f06cb8bd8c6a4102a31ce41f100ec97e0e6f550ee4dc1fbe8ad20cfa389c9b5ce6005600084815260200190815260200160002060000183604051612171929190612af8565b60405180910390a15050565b82805461218990612a31565b90600052602060002090601f0160209004810192826121ab57600085556121f2565b82601f106121c457805160ff19168380011785556121f2565b828001600101855582156121f2579182015b828111156121f15782518255916020019190600101906121d6565b5b5090506121ff9190612203565b5090565b5b8082111561221c576000816000905550600101612204565b5090565b6000604051905090565b600080fd5b600080fd5b6000819050919050565b61224781612234565b811461225257600080fd5b50565b6000813590506122648161223e565b92915050565b6000602082840312156122805761227f61222a565b5b600061228e84828501612255565b91505092915050565b60008115159050919050565b6122ac81612297565b82525050565b60006020820190506122c760008301846122a3565b92915050565b600080fd5b600080fd5b6000601f19601f8301169050919050565b7f4e487b7100000000000000000000000000000000000000000000000000000000600052604160045260246000fd5b612320826122d7565b810181811067ffffffffffffffff8211171561233f5761233e6122e8565b5b80604052505050565b6000612352612220565b905061235e8282612317565b919050565b600067ffffffffffffffff82111561237e5761237d6122e8565b5b612387826122d7565b9050602081019050919050565b82818337600083830152505050565b60006123b66123b184612363565b612348565b9050828152602081018484840111156123d2576123d16122d2565b5b6123dd848285612394565b509392505050565b600082601f8301126123fa576123f96122cd565b5b813561240a8482602086016123a3565b91505092915050565b6000806040838503121561242a5761242961222a565b5b600083013567ffffffffffffffff8111156124485761244761222f565b5b612454858286016123e5565b925050602061246585828601612255565b9150509250929050565b7f4e487b7100000000000000000000000000000000000000000000000000000000600052602160045260246000fd5b600481106124af576124ae61246f565b5b50565b60008190506124c08261249e565b919050565b60006124d0826124b2565b9050919050565b6124e0816124c5565b82525050565b60006020820190506124fb60008301846124d7565b92915050565b600081519050919050565b600082825260208201905092915050565b60005b8381101561253b578082015181840152602081019050612520565b8381111561254a576000848401525b50505050565b600061255b82612501565b612565818561250c565b935061257581856020860161251d565b61257e816122d7565b840191505092915050565b60007fffffffff0000000000000000000000000000000000000000000000000000000082169050919050565b6125be81612589565b82525050565b6125cd81612234565b82525050565b600073ffffffffffffffffffffffffffffffffffffffff82169050919050565b60006125fe826125d3565b9050919050565b61260e816125f3565b82525050565b600060c082019050818103600083015261262e8189612550565b905061263d60208301886125b5565b61264a60408301876125c4565b61265760608301866124d7565b61266460808301856125c4565b61267160a0830184612605565b979650505050505050565b600060ff82169050919050565b6126928161267c565b82525050565b60006020820190506126ad6000830184612689565b92915050565b60006020820190506126c860008301846125c4565b92915050565b6000819050919050565b60006126f36126ee6126e9846125d3565b6126ce565b6125d3565b9050919050565b6000612705826126d8565b9050919050565b6000612717826126fa565b9050919050565b6127278161270c565b82525050565b6000602082019050612742600083018461271e565b92915050565b61275181612589565b811461275c57600080fd5b50565b60008135905061276e81612748565b92915050565b60006020828403121561278a5761278961222a565b5b60006127988482850161275f565b91505092915050565b60006020820190506127b66000830184612605565b92915050565b6127c5816125f3565b81146127d057600080fd5b50565b6000813590506127e2816127bc565b92915050565b6000602082840312156127fe576127fd61222a565b5b600061280c848285016127d3565b91505092915050565b600060208201905061282a60008301846125b5565b92915050565b600060c082019050818103600083015261284a8189612550565b905061285960208301886125b5565b61286660408301876124d7565b61287360608301866125c4565b6128806080830185612605565b61288d60a08301846125c4565b979650505050505050565b7f496e76616c69642063616d706169676e20696400000000000000000000000000600082015250565b60006128ce60138361250c565b91506128d982612898565b602082019050919050565b600060208201905081810360008301526128fd816128c1565b9050919050565b7f4f6e6c792063616d706169676e20686f73742063616e20706572666f726d207460008201527f68697320616374696f6e2e000000000000000000000000000000000000000000602082015250565b6000612960602b8361250c565b915061296b82612904565b604082019050919050565b6000602082019050818103600083015261298f81612953565b9050919050565b7f43616d706169676e20616c726561647920636c6f7365642e0000000000000000600082015250565b60006129cc60188361250c565b91506129d782612996565b602082019050919050565b600060208201905081810360008301526129fb816129bf565b9050919050565b7f4e487b7100000000000000000000000000000000000000000000000000000000600052602260045260246000fd5b60006002820490506001821680612a4957607f821691505b60208210811415612a5d57612a5c612a02565b5b50919050565b60008190508160005260206000209050919050565b60008154612a8581612a31565b612a8f818661250c565b94506001821660008114612aaa5760018114612abc57612aef565b60ff1983168652602086019350612aef565b612ac585612a63565b60005b83811015612ae757815481890152600182019150602081019050612ac8565b808801955050505b50505092915050565b60006040820190508181036000830152612b128185612a78565b9050612b2160208301846125c4565b9392505050565b7f4e487b7100000000000000000000000000000000000000000000000000000000600052601160045260246000fd5b6000612b6282612234565b9150612b6d83612234565b9250827fffffffffffffffffffffffffffffffffffffffffffffffffffffffffffffffff03821115612ba257612ba1612b28565b5b828201905092915050565b60006060820190508181036000830152612bc78186612550565b9050612bd660208301856125c4565b612be360408301846125b5565b949350505050565b6000612bf682612234565b9150612c0183612234565b925082821015612c1457612c13612b28565b5b828203905092915050565b7f636f646520697320696e76616c69642e00000000000000000000000000000000600082015250565b6000612c5560108361250c565b9150612c6082612c1f565b602082019050919050565b60006020820190508181036000830152612c8481612c48565b9050919050565b7f4f6e6c79206f776e65722063616e20706572666f726d2074686973206163746960008201527f6f6e2e0000000000000000000000000000000000000000000000000000000000602082015250565b6000612ce760238361250c565b9150612cf282612c8b565b604082019050919050565b60006020820190508181036000830152612d1681612cda565b9050919050565b7f43616d706169676e2073686f756c6420626520616c726561647920636c6f736560008201527f64206f722066756c6c2e00000000000000000000000000000000000000000000602082015250565b6000612d79602a8361250c565b9150612d8482612d1d565b604082019050919050565b60006020820190508181036000830152612da881612d6c565b9050919050565b7f4e487b7100000000000000000000000000000000000000000000000000000000600052603260045260246000fd5b60008160011c9050919050565b6000808291508390505b6001851115612e3557808604811115612e1157612e10612b28565b5b6001851615612e205780820291505b8081029050612e2e85612dde565b9450612df5565b94509492505050565b600082612e4e5760019050612f0a565b81612e5c5760009050612f0a565b8160018114612e725760028114612e7c57612eab565b6001915050612f0a565b60ff841115612e8e57612e8d612b28565b5b8360020a915084821115612ea557612ea4612b28565b5b50612f0a565b5060208310610133831016604e8410600b8410161715612ee05782820a905083811115612edb57612eda612b28565b5b612f0a565b612eed8484846001612deb565b92509050818404811115612f0457612f03612b28565b5b81810290505b9392505050565b6000612f1c82612234565b9150612f2783612234565b9250612f547fffffffffffffffffffffffffffffffffffffffffffffffffffffffffffffffff8484612e3e565b905092915050565b6000612f6782612234565b9150612f7283612234565b9250817fffffffffffffffffffffffffffffffffffffffffffffffffffffffffffffffff0483118215151615612fab57612faa612b28565b5b828202905092915050565b6000604082019050612fcb6000830185612605565b612fd860208301846125c4565b9392505050565b6000612fea82612234565b91507fffffffffffffffffffffffffffffffffffffffffffffffffffffffffffffffff82141561301d5761301c612b28565b5b600182019050919050565b7f596f75206861766520616c7265616479207265676973746572656420746f206160008201527f2063616d706169676e2e00000000000000000000000000000000000000000000602082015250565b6000613084602a8361250c565b915061308f82613028565b604082019050919050565b600060208201905081810360008301526130b381613077565b9050919050565b7f4d61782063617061636974792072656163686564000000000000000000000000600082015250565b60006130f060148361250c565b91506130fb826130ba565b602082019050919050565b6000602082019050818103600083015261311f816130e3565b9050919050565b7f43616d706167696e206973206e6f74206f70656e000000000000000000000000600082015250565b600061315c60148361250c565b915061316782613126565b602082019050919050565b6000602082019050818103600083015261318b8161314f565b9050919050565b600081905092915050565b60006131a882612501565b6131b28185613192565b93506131c281856020860161251d565b80840191505092915050565b6000819050919050565b6131e96131e482612234565b6131ce565b82525050565b60008160601b9050919050565b6000613207826131ef565b9050919050565b6000613219826131fc565b9050919050565b61323161322c826125f3565b61320e565b82525050565b6000613243828661319d565b915061324f82856131d8565b60208201915061325f8284613220565b60148201915081905094935050505056fea264697066735822122016c368f67c1aa98642feb0c21656189561de848f9a0431aaac224e23d55a458564736f6c63430008090033",
  "immutableReferences": {},
  "source": "// SPDX-License-Identifier: MIT\npragma solidity 0.8.9;\n\nimport './Wormies.sol';\n\n\n/// @title A contract to run early bird promotions for first N registrants\n/// @author chaudhga\n/// @custom:experimental This is an experimental contract.\ncontract EarlyBirds{\n  address public owner;\n  uint public campaignCount;\n\n  uint8   public constant DECIMALS = 18;\n  uint256 public constant DECIMALFACTOR = 10 ** uint256(DECIMALS);\n  uint256 constant TOKENS_PER_REGISTRANT = 100 * uint256(DECIMALFACTOR);\n  uint256 public AIRDROP_SUPPLY = 10000000 * uint256(DECIMALFACTOR);\n  uint256 public TOTAL_SUPPLY = 1000000000000 * uint256(DECIMALFACTOR);  \n  Wormies public wormies;\n\n  mapping (uint => Campaign) public campaigns;\n  mapping (bytes4 => uint) public campaignCodes;\n  mapping (uint => address[]) private registrants;\n  enum State{Open, Full, Closed, Airdropped}\n\n  mapping (address => bool) public registrantStatus;\n\n  struct Campaign{string title; bytes4 code; uint id; State state; uint capacity; \n            address host;}\n\n  event LogCampaignOpened(string title, uint id, bytes4 campaignCode);\n  event LogCampaignClosed(string title, uint id);\n  event LogCampaignFull(string title, uint id);\n  event LogRegistration(address _address, uint campaignID);\n  event LogCampaignDetails(string title, bytes4 code, State state, uint capacity, \n                            address host, uint registrationCount);\n\n\n  constructor(address _token) {\n    owner = msg.sender;\n    campaignCount = 0;\n    wormies = Wormies(_token);\n  }\n\n  function codeToID(bytes4 _code) public view validCode(_code) returns(uint){\n    return(campaignCodes[_code]);\n  }\n\n/// @notice creates a new campaign; generates campaign id to be shared for registrations\n///         assigns creator as the host which allows them to controol states\n/// @dev to fetch details of the campaign created call getCampaignDetails\n  function addCampaign(string memory _title, uint _capacity) public returns(bool){\n    bytes4 _code = hash(_title, _capacity, msg.sender);\n    campaignCount += 1;\n    campaigns[campaignCount] = Campaign({\n      title: _title,\n      code: _code,\n      id: campaignCount,\n      state: State.Open,\n      capacity: _capacity,\n      host: msg.sender\n    });\n    campaignCodes[_code] = campaignCount;\n    emit LogCampaignOpened(_title, campaignCount, _code);\n    return true;\n  }\n\n/// @notice registration function (requires campaign code provided by host), only allows single registration\n/// @dev updates the state to full for last registrant\n  function register(bytes4 _code) public \n    validCode(_code)\n    notAlreadyRegistered()\n    hasCapacity(codeToID(_code))\n    isOpen(codeToID(_code))\n    returns(bool){\n      uint _id = codeToID(_code);\n      uint _capacity = campaigns[_id].capacity;\n      if(registrants[_id].length < _capacity){\n              registrants[_id].push(msg.sender);\n      }\n      checkAndMarkFull(_id);\n      registrantStatus[msg.sender]=true;\n      emit LogRegistration(msg.sender, _id);\n      return true;\n    }\n\n/// @notice Only host can close the campaign. Campaign can be closed at any stage, full or not.\n/// @dev before executing airdrop campaign registration must be closed\n  function close(uint _id) public \n    validID(_id)\n    isHost(_id)\n    isNotClosed(_id)\n    returns(bool){\n      campaigns[_id].state = State.Closed;\n      emit LogCampaignClosed(campaigns[_id].title, _id);\n      return(true);\n    }\n\n/// @notice Allocate tokens to registrants and burn any remaining tokens\n  function airdrop(uint _id) public \n    validID(_id)\n    isOwner()\n    isClosedOrFull(_id)\n    hasRegistrants(_id)\n    returns(bool){\n      uint totalRegistrants = registrants[_id].length;\n \n      for(uint i=0; i<totalRegistrants; i++){\n        address registrant = registrants[_id][i];\n        // wormies.transferFrom(msg.sender, registrant, TOKENS_PER_REGISTRANT);\n        wormies.mint(registrant, TOKENS_PER_REGISTRANT);\n      }\n      campaigns[_id].state = State.Airdropped;\n      return(true);\n    }\n\n\n\n  /// *** Utility Functions ***\n  function getCampaignDetails(uint _id) public\n    validID(_id)\n    returns(string memory, bytes4 , State , uint , address , uint ){\n      Campaign memory campaign = campaigns[_id];\n      uint registrationCount = registrants[_id].length;\n      emit LogCampaignDetails(campaign.title, campaign.code, campaign.state, campaign.capacity, \n                                campaign.host, registrationCount);\n      return(campaign.title, campaign.code, campaign.state, campaign.capacity, campaign.host, registrationCount);\n    }\n\n  function getCompaignCodeById(uint _id) public view \n  validID(_id)\n  isHost(_id) \n  returns(bytes4 _code){\n    Campaign memory _campaign = campaigns[_id];\n    return(_campaign.code);\n  }\n\n  function getCompaignStateById(uint _id) public view \n  validID(_id)\n  returns(State){\n    Campaign memory _campaign = campaigns[_id];\n    return(_campaign.state);\n  }\n\n  function getRemainingCapacityById(uint _id) public view \n  validID(_id)\n  returns(uint){\n    Campaign memory _campaign = campaigns[_id];\n    uint currRegistrantCount = registrants[_id].length;\n    return(_campaign.capacity - currRegistrantCount);\n  }\n\n  function getRegistrantCount(uint _id) public view\n  validID(_id)\n  returns(uint){\n    return(registrants[_id].length);\n  }\n\n  function getCapacityById(uint _id) public view \n  validID(_id)\n  returns(uint){\n    Campaign memory _campaign = campaigns[_id];\n    return(_campaign.capacity);\n  }\n\n  function checkAndMarkFull(uint _id) internal validID(_id){\n    if(registrants[_id].length == campaigns[_id].capacity){\n        campaigns[_id].state = State.Full;\n    }\n    emit LogCampaignFull(campaigns[_id].title, _id);\n  }\n\n    function hash (\n        string memory _text,\n        uint _num,\n        address _addr\n    ) internal pure returns (bytes4) {\n        return bytes4(keccak256(abi.encodePacked(_text, _num, _addr)));\n    }\n\n\n  /// *** Modifiers ****\n  modifier isOwner{\n    require(msg.sender == owner, \"Only owner can perform this action.\");\n    _;\n  }\n  modifier isHost(uint _campaignID){\n    require(msg.sender == campaigns[_campaignID].host, \"Only campaign host can perform this action.\");\n    _;\n  }\n  modifier notAlreadyRegistered(){\n    require(!registrantStatus[msg.sender], \"You have already registered to a campaign.\");\n    _;\n  }\n  modifier isOpen(uint _campaignID){\n    Campaign memory campaign = campaigns[_campaignID];\n    bytes memory emptyTitleTest = bytes(campaign.title);\n    require(emptyTitleTest.length != 0 && campaign.state == State.Open, \"Campagin is not open\");\n    _;\n  }\n  modifier isNotClosed(uint _campaignID){\n    require(campaigns[_campaignID].state != State.Closed, \"Campaign already closed.\");\n    _;\n  }\n  modifier isClosedOrFull(uint _campaignID){\n    State campaignState = campaigns[_campaignID].state;\n    require(campaignState == State.Closed || campaignState == State.Full, \"Campaign should be already closed or full.\");\n    _;\n  }\n  modifier hasCapacity(uint _campaignID){\n    require(campaigns[_campaignID].state != State.Full && \n            registrants[_campaignID].length < campaigns[_campaignID].capacity, \"Max capacity reached\");\n    _;\n  }\n  modifier validCode(bytes4 _code){\n    require(campaignCodes[_code] > 0, \"code is invalid.\");\n    _;\n  }\n  modifier validID(uint _id){\n    require(_id <= campaignCount, \"Invalid campaign id\");\n    _;\n  }\n  modifier hasRegistrants(uint _id){\n    require(registrants[_id].length > 0);\n    _;\n  }\n}",
  "sourcePath": "/Users/gaurav/trufflebox-react/contracts/EarlyBirds.sol",
  "compiler": {
    "name": "solc",
    "version": "0.8.9+commit.e5eed63a.Emscripten.clang"
  },
  "schemaVersion": "3.4.4",
  "updatedAt": "2022-01-15T08:24:19.629Z",
  "networkType": "ethereum",
  "devdoc": {
    "author": "chaudhga",
    "custom:experimental": "This is an experimental contract.",
    "kind": "dev",
    "methods": {
      "addCampaign(string,uint256)": {
        "details": "to fetch details of the campaign created call getCampaignDetails"
      },
      "close(uint256)": {
        "details": "before executing airdrop campaign registration must be closed"
      },
      "register(bytes4)": {
        "details": "updates the state to full for last registrant"
      }
    },
    "title": "A contract to run early bird promotions for first N registrants",
    "version": 1
  },
  "userdoc": {
    "kind": "user",
    "methods": {
      "addCampaign(string,uint256)": {
        "notice": "creates a new campaign; generates campaign id to be shared for registrations         assigns creator as the host which allows them to controol states"
      },
      "airdrop(uint256)": {
        "notice": "Allocate tokens to registrants and burn any remaining tokens"
      },
      "close(uint256)": {
        "notice": "Only host can close the campaign. Campaign can be closed at any stage, full or not."
      },
      "getCampaignDetails(uint256)": {
        "notice": "*** Utility Functions ***"
      },
      "register(bytes4)": {
        "notice": "registration function (requires campaign code provided by host), only allows single registration"
      }
    },
    "version": 1
  }
}