{
  "contractName": "EarlyBirds",
  "abi": [
    {
      "inputs": [
        {
          "internalType": "address",
          "name": "_token",
          "type": "address"
        }
      ],
      "stateMutability": "nonpayable",
      "type": "constructor"
    },
    {
      "anonymous": false,
      "inputs": [
        {
          "indexed": false,
          "internalType": "string",
          "name": "title",
          "type": "string"
        },
        {
          "indexed": false,
          "internalType": "uint256",
          "name": "id",
          "type": "uint256"
        }
      ],
      "name": "LogCampaignClosed",
      "type": "event"
    },
    {
      "anonymous": false,
      "inputs": [
        {
          "indexed": false,
          "internalType": "string",
          "name": "title",
          "type": "string"
        },
        {
          "indexed": false,
          "internalType": "bytes4",
          "name": "code",
          "type": "bytes4"
        },
        {
          "indexed": false,
          "internalType": "enum EarlyBirds.State",
          "name": "state",
          "type": "uint8"
        },
        {
          "indexed": false,
          "internalType": "uint256",
          "name": "capacity",
          "type": "uint256"
        },
        {
          "indexed": false,
          "internalType": "address",
          "name": "host",
          "type": "address"
        },
        {
          "indexed": false,
          "internalType": "uint256",
          "name": "registrationCount",
          "type": "uint256"
        }
      ],
      "name": "LogCampaignDetails",
      "type": "event"
    },
    {
      "anonymous": false,
      "inputs": [
        {
          "indexed": false,
          "internalType": "string",
          "name": "title",
          "type": "string"
        },
        {
          "indexed": false,
          "internalType": "uint256",
          "name": "id",
          "type": "uint256"
        }
      ],
      "name": "LogCampaignFull",
      "type": "event"
    },
    {
      "anonymous": false,
      "inputs": [
        {
          "indexed": false,
          "internalType": "string",
          "name": "title",
          "type": "string"
        },
        {
          "indexed": false,
          "internalType": "uint256",
          "name": "id",
          "type": "uint256"
        },
        {
          "indexed": false,
          "internalType": "bytes4",
          "name": "campaignCode",
          "type": "bytes4"
        }
      ],
      "name": "LogCampaignOpened",
      "type": "event"
    },
    {
      "anonymous": false,
      "inputs": [
        {
          "indexed": false,
          "internalType": "address",
          "name": "_address",
          "type": "address"
        },
        {
          "indexed": false,
          "internalType": "uint256",
          "name": "campaignID",
          "type": "uint256"
        }
      ],
      "name": "LogRegistration",
      "type": "event"
    },
    {
      "inputs": [],
      "name": "AIRDROP_SUPPLY",
      "outputs": [
        {
          "internalType": "uint256",
          "name": "",
          "type": "uint256"
        }
      ],
      "stateMutability": "view",
      "type": "function"
    },
    {
      "inputs": [],
      "name": "DECIMALFACTOR",
      "outputs": [
        {
          "internalType": "uint256",
          "name": "",
          "type": "uint256"
        }
      ],
      "stateMutability": "view",
      "type": "function"
    },
    {
      "inputs": [],
      "name": "DECIMALS",
      "outputs": [
        {
          "internalType": "uint8",
          "name": "",
          "type": "uint8"
        }
      ],
      "stateMutability": "view",
      "type": "function"
    },
    {
      "inputs": [],
      "name": "TOTAL_SUPPLY",
      "outputs": [
        {
          "internalType": "uint256",
          "name": "",
          "type": "uint256"
        }
      ],
      "stateMutability": "view",
      "type": "function"
    },
    {
      "inputs": [
        {
          "internalType": "bytes4",
          "name": "",
          "type": "bytes4"
        }
      ],
      "name": "campaignCodes",
      "outputs": [
        {
          "internalType": "uint256",
          "name": "",
          "type": "uint256"
        }
      ],
      "stateMutability": "view",
      "type": "function"
    },
    {
      "inputs": [],
      "name": "campaignCount",
      "outputs": [
        {
          "internalType": "uint256",
          "name": "",
          "type": "uint256"
        }
      ],
      "stateMutability": "view",
      "type": "function"
    },
    {
      "inputs": [
        {
          "internalType": "uint256",
          "name": "",
          "type": "uint256"
        }
      ],
      "name": "campaigns",
      "outputs": [
        {
          "internalType": "string",
          "name": "title",
          "type": "string"
        },
        {
          "internalType": "bytes4",
          "name": "code",
          "type": "bytes4"
        },
        {
          "internalType": "uint256",
          "name": "id",
          "type": "uint256"
        },
        {
          "internalType": "enum EarlyBirds.State",
          "name": "state",
          "type": "uint8"
        },
        {
          "internalType": "uint256",
          "name": "capacity",
          "type": "uint256"
        },
        {
          "internalType": "address",
          "name": "host",
          "type": "address"
        }
      ],
      "stateMutability": "view",
      "type": "function"
    },
    {
      "inputs": [],
      "name": "owner",
      "outputs": [
        {
          "internalType": "address",
          "name": "",
          "type": "address"
        }
      ],
      "stateMutability": "view",
      "type": "function"
    },
    {
      "inputs": [
        {
          "internalType": "address",
          "name": "",
          "type": "address"
        }
      ],
      "name": "registrantStatus",
      "outputs": [
        {
          "internalType": "bool",
          "name": "",
          "type": "bool"
        }
      ],
      "stateMutability": "view",
      "type": "function"
    },
    {
      "inputs": [],
      "name": "wormies",
      "outputs": [
        {
          "internalType": "contract Wormies",
          "name": "",
          "type": "address"
        }
      ],
      "stateMutability": "view",
      "type": "function"
    },
    {
      "inputs": [
        {
          "internalType": "bytes4",
          "name": "_code",
          "type": "bytes4"
        }
      ],
      "name": "codeToID",
      "outputs": [
        {
          "internalType": "uint256",
          "name": "",
          "type": "uint256"
        }
      ],
      "stateMutability": "view",
      "type": "function"
    },
    {
      "inputs": [
        {
          "internalType": "string",
          "name": "_title",
          "type": "string"
        },
        {
          "internalType": "uint256",
          "name": "_capacity",
          "type": "uint256"
        }
      ],
      "name": "addCampaign",
      "outputs": [
        {
          "internalType": "bool",
          "name": "",
          "type": "bool"
        },
        {
          "internalType": "uint256",
          "name": "",
          "type": "uint256"
        }
      ],
      "stateMutability": "nonpayable",
      "type": "function"
    },
    {
      "inputs": [
        {
          "internalType": "bytes4",
          "name": "_code",
          "type": "bytes4"
        }
      ],
      "name": "register",
      "outputs": [
        {
          "internalType": "bool",
          "name": "",
          "type": "bool"
        }
      ],
      "stateMutability": "nonpayable",
      "type": "function"
    },
    {
      "inputs": [
        {
          "internalType": "uint256",
          "name": "_id",
          "type": "uint256"
        }
      ],
      "name": "close",
      "outputs": [
        {
          "internalType": "bool",
          "name": "",
          "type": "bool"
        }
      ],
      "stateMutability": "nonpayable",
      "type": "function"
    },
    {
      "inputs": [
        {
          "internalType": "uint256",
          "name": "_id",
          "type": "uint256"
        }
      ],
      "name": "airdrop",
      "outputs": [
        {
          "internalType": "bool",
          "name": "",
          "type": "bool"
        }
      ],
      "stateMutability": "nonpayable",
      "type": "function"
    },
    {
      "inputs": [
        {
          "internalType": "uint256",
          "name": "_id",
          "type": "uint256"
        }
      ],
      "name": "getCampaignDetails",
      "outputs": [
        {
          "internalType": "string",
          "name": "",
          "type": "string"
        },
        {
          "internalType": "bytes4",
          "name": "",
          "type": "bytes4"
        },
        {
          "internalType": "enum EarlyBirds.State",
          "name": "",
          "type": "uint8"
        },
        {
          "internalType": "uint256",
          "name": "",
          "type": "uint256"
        },
        {
          "internalType": "address",
          "name": "",
          "type": "address"
        },
        {
          "internalType": "uint256",
          "name": "",
          "type": "uint256"
        }
      ],
      "stateMutability": "nonpayable",
      "type": "function"
    },
    {
      "inputs": [
        {
          "internalType": "uint256",
          "name": "_id",
          "type": "uint256"
        }
      ],
      "name": "getCompaignCodeById",
      "outputs": [
        {
          "internalType": "bytes4",
          "name": "_code",
          "type": "bytes4"
        }
      ],
      "stateMutability": "view",
      "type": "function"
    },
    {
      "inputs": [
        {
          "internalType": "uint256",
          "name": "_id",
          "type": "uint256"
        }
      ],
      "name": "getCompaignStateById",
      "outputs": [
        {
          "internalType": "enum EarlyBirds.State",
          "name": "",
          "type": "uint8"
        }
      ],
      "stateMutability": "view",
      "type": "function"
    },
    {
      "inputs": [
        {
          "internalType": "uint256",
          "name": "_id",
          "type": "uint256"
        }
      ],
      "name": "getRemainingCapacityById",
      "outputs": [
        {
          "internalType": "uint256",
          "name": "",
          "type": "uint256"
        }
      ],
      "stateMutability": "view",
      "type": "function"
    },
    {
      "inputs": [
        {
          "internalType": "uint256",
          "name": "_id",
          "type": "uint256"
        }
      ],
      "name": "getRegistrantCount",
      "outputs": [
        {
          "internalType": "uint256",
          "name": "",
          "type": "uint256"
        }
      ],
      "stateMutability": "view",
      "type": "function"
    },
    {
      "inputs": [
        {
          "internalType": "uint256",
          "name": "_id",
          "type": "uint256"
        }
      ],
      "name": "getCapacityById",
      "outputs": [
        {
          "internalType": "uint256",
          "name": "",
          "type": "uint256"
        }
      ],
      "stateMutability": "view",
      "type": "function"
    }
  ],
  "bytecode": "0x6080604052601260ff16600a620000179190620002a2565b62989680620000279190620002f3565b600255601260ff16600a6200003d9190620002a2565b64e8d4a510006200004f9190620002f3565b6003553480156200005f57600080fd5b50604051620036d7380380620036d78339818101604052810190620000859190620003be565b336000806101000a81548173ffffffffffffffffffffffffffffffffffffffff021916908373ffffffffffffffffffffffffffffffffffffffff160217905550600060018190555080600460006101000a81548173ffffffffffffffffffffffffffffffffffffffff021916908373ffffffffffffffffffffffffffffffffffffffff16021790555050620003f0565b7f4e487b7100000000000000000000000000000000000000000000000000000000600052601160045260246000fd5b60008160011c9050919050565b6000808291508390505b6001851115620001a3578086048111156200017b576200017a62000115565b5b60018516156200018b5780820291505b80810290506200019b8562000144565b94506200015b565b94509492505050565b600082620001be576001905062000291565b81620001ce576000905062000291565b8160018114620001e75760028114620001f25762000228565b600191505062000291565b60ff84111562000207576200020662000115565b5b8360020a91508482111562000221576200022062000115565b5b5062000291565b5060208310610133831016604e8410600b8410161715620002625782820a9050838111156200025c576200025b62000115565b5b62000291565b62000271848484600162000151565b925090508184048111156200028b576200028a62000115565b5b81810290505b9392505050565b6000819050919050565b6000620002af8262000298565b9150620002bc8362000298565b9250620002eb7fffffffffffffffffffffffffffffffffffffffffffffffffffffffffffffffff8484620001ac565b905092915050565b6000620003008262000298565b91506200030d8362000298565b9250817fffffffffffffffffffffffffffffffffffffffffffffffffffffffffffffffff048311821515161562000349576200034862000115565b5b828202905092915050565b600080fd5b600073ffffffffffffffffffffffffffffffffffffffff82169050919050565b6000620003868262000359565b9050919050565b620003988162000379565b8114620003a457600080fd5b50565b600081519050620003b8816200038d565b92915050565b600060208284031215620003d757620003d662000354565b5b6000620003e784828501620003a7565b91505092915050565b6132d780620004006000396000f3fe608060405234801561001057600080fd5b50600436106101375760003560e01c80638d95bbcf116100b8578063b3d91e411161007c578063b3d91e41146103a6578063d09f90af146103c4578063d6fb295f146103f4578063d92f94be14610424578063d993de6214610454578063e4a7ec4f1461048957610137565b80638d95bbcf146102da5780638da5cb5b1461030a578063902d55a51461032857806397dc4a13146103465780639e97e16f1461037657610137565b806339615a53116100ff57806339615a53146102205780637274e30d146102505780637bbb724f1461026e57806383cf17d61461028c5780638a857bc1146102bc57610137565b80630aebeb4e1461013c5780630eb666871461016c578063122604371461019d578063141961bc146101cd5780632e0f262514610202575b600080fd5b61015660048036038101906101519190612272565b6104b9565b60405161016391906122ba565b60405180910390f35b6101866004803603810190610181919061241b565b6106cb565b604051610194929190612486565b60405180910390f35b6101b760048036038101906101b29190612272565b6108f6565b6040516101c49190612526565b60405180910390f35b6101e760048036038101906101e29190612272565b610afa565b6040516101f996959493929190612645565b60405180910390f35b61020a610bf8565b60405161021791906126c9565b60405180910390f35b61023a60048036038101906102359190612272565b610bfd565b60405161024791906126e4565b60405180910390f35b610258610e28565b60405161026591906126e4565b60405180910390f35b610276610e2e565b604051610283919061275e565b60405180910390f35b6102a660048036038101906102a19190612272565b610e54565b6040516102b391906126e4565b60405180910390f35b6102c4611058565b6040516102d191906126e4565b60405180910390f35b6102f460048036038101906102ef91906127a5565b61105e565b60405161030191906126e4565b60405180910390f35b61031261114f565b60405161031f91906127d2565b60405180910390f35b610330611173565b60405161033d91906126e4565b60405180910390f35b610360600480360381019061035b9190612272565b611179565b60405161036d91906122ba565b60405180910390f35b610390600480360381019061038b9190612819565b6114b9565b60405161039d91906122ba565b60405180910390f35b6103ae6114d9565b6040516103bb91906126e4565b60405180910390f35b6103de60048036038101906103d99190612272565b6114ed565b6040516103eb91906126e4565b60405180910390f35b61040e600480360381019061040991906127a5565b611554565b60405161041b91906122ba565b60405180910390f35b61043e60048036038101906104399190612272565b611ae1565b60405161044b9190612846565b60405180910390f35b61046e60048036038101906104699190612272565b611d8b565b60405161048096959493929190612861565b60405180910390f35b6104a3600480360381019061049e91906127a5565b61202b565b6040516104b091906126e4565b60405180910390f35b600081600154811115610501576040517f08c379a00000000000000000000000000000000000000000000000000000000081526004016104f890612915565b60405180910390fd5b826005600082815260200190815260200160002060050160009054906101000a900473ffffffffffffffffffffffffffffffffffffffff1673ffffffffffffffffffffffffffffffffffffffff163373ffffffffffffffffffffffffffffffffffffffff16146105a6576040517f08c379a000000000000000000000000000000000000000000000000000000000815260040161059d906129a7565b60405180910390fd5b83600260038111156105bb576105ba6124af565b5b6005600083815260200190815260200160002060030160009054906101000a900460ff1660038111156105f1576105f06124af565b5b1415610632576040517f08c379a000000000000000000000000000000000000000000000000000000000815260040161062990612a13565b60405180910390fd5b60026005600087815260200190815260200160002060030160006101000a81548160ff0219169083600381111561066c5761066b6124af565b5b02179055507fc46b99f2efd7cd2f7d87e519d6f92b5c95da33b8d602cb27d0edccfe40afe09b60056000878152602001908152602001600020600001866040516106b7929190612b29565b60405180910390a160019350505050919050565b60008060006106db858533612043565b905060018060008282546106ef9190612b88565b925050819055506040518060c00160405280868152602001827bffffffffffffffffffffffffffffffffffffffffffffffffffffffff19168152602001600154815260200160006003811115610748576107476124af565b5b81526020018581526020013373ffffffffffffffffffffffffffffffffffffffff16815250600560006001548152602001908152602001600020600082015181600001908051906020019061079e929190612185565b5060208201518160010160006101000a81548163ffffffff021916908360e01c02179055506040820151816002015560608201518160030160006101000a81548160ff021916908360038111156107f8576107f76124af565b5b02179055506080820151816004015560a08201518160050160006101000a81548173ffffffffffffffffffffffffffffffffffffffff021916908373ffffffffffffffffffffffffffffffffffffffff16021790555090505060015460066000837bffffffffffffffffffffffffffffffffffffffffffffffffffffffff19167bffffffffffffffffffffffffffffffffffffffffffffffffffffffff19168152602001908152602001600020819055507ff2631a889d6d622b874d228753934d83cb53da3a8ac65dcb7bd86ababdaa70f885600154836040516108de93929190612bde565b60405180910390a16001805492509250509250929050565b60008160015481111561093e576040517f08c379a000000000000000000000000000000000000000000000000000000000815260040161093590612915565b60405180910390fd5b6000600560008581526020019081526020016000206040518060c001604052908160008201805461096e90612a62565b80601f016020809104026020016040519081016040528092919081815260200182805461099a90612a62565b80156109e75780601f106109bc576101008083540402835291602001916109e7565b820191906000526020600020905b8154815290600101906020018083116109ca57829003601f168201915b505050505081526020016001820160009054906101000a900460e01b7bffffffffffffffffffffffffffffffffffffffffffffffffffffffff19167bffffffffffffffffffffffffffffffffffffffffffffffffffffffff19168152602001600282015481526020016003820160009054906101000a900460ff166003811115610a7457610a736124af565b5b6003811115610a8657610a856124af565b5b8152602001600482015481526020016005820160009054906101000a900473ffffffffffffffffffffffffffffffffffffffff1673ffffffffffffffffffffffffffffffffffffffff1673ffffffffffffffffffffffffffffffffffffffff16815250509050806060015192505050919050565b6005602052806000526040600020600091509050806000018054610b1d90612a62565b80601f0160208091040260200160405190810160405280929190818152602001828054610b4990612a62565b8015610b965780601f10610b6b57610100808354040283529160200191610b96565b820191906000526020600020905b815481529060010190602001808311610b7957829003601f168201915b5050505050908060010160009054906101000a900460e01b908060020154908060030160009054906101000a900460ff16908060040154908060050160009054906101000a900473ffffffffffffffffffffffffffffffffffffffff16905086565b601281565b600081600154811115610c45576040517f08c379a0000000000000000000000000000000000000000000000000000000008152600401610c3c90612915565b60405180910390fd5b6000600560008581526020019081526020016000206040518060c0016040529081600082018054610c7590612a62565b80601f0160208091040260200160405190810160405280929190818152602001828054610ca190612a62565b8015610cee5780601f10610cc357610100808354040283529160200191610cee565b820191906000526020600020905b815481529060010190602001808311610cd157829003601f168201915b505050505081526020016001820160009054906101000a900460e01b7bffffffffffffffffffffffffffffffffffffffffffffffffffffffff19167bffffffffffffffffffffffffffffffffffffffffffffffffffffffff19168152602001600282015481526020016003820160009054906101000a900460ff166003811115610d7b57610d7a6124af565b5b6003811115610d8d57610d8c6124af565b5b8152602001600482015481526020016005820160009054906101000a900473ffffffffffffffffffffffffffffffffffffffff1673ffffffffffffffffffffffffffffffffffffffff1673ffffffffffffffffffffffffffffffffffffffff16815250509050600060076000868152602001908152602001600020805490509050808260800151610e1e9190612c1c565b9350505050919050565b60015481565b600460009054906101000a900473ffffffffffffffffffffffffffffffffffffffff1681565b600081600154811115610e9c576040517f08c379a0000000000000000000000000000000000000000000000000000000008152600401610e9390612915565b60405180910390fd5b6000600560008581526020019081526020016000206040518060c0016040529081600082018054610ecc90612a62565b80601f0160208091040260200160405190810160405280929190818152602001828054610ef890612a62565b8015610f455780601f10610f1a57610100808354040283529160200191610f45565b820191906000526020600020905b815481529060010190602001808311610f2857829003601f168201915b505050505081526020016001820160009054906101000a900460e01b7bffffffffffffffffffffffffffffffffffffffffffffffffffffffff19167bffffffffffffffffffffffffffffffffffffffffffffffffffffffff19168152602001600282015481526020016003820160009054906101000a900460ff166003811115610fd257610fd16124af565b5b6003811115610fe457610fe36124af565b5b8152602001600482015481526020016005820160009054906101000a900473ffffffffffffffffffffffffffffffffffffffff1673ffffffffffffffffffffffffffffffffffffffff1673ffffffffffffffffffffffffffffffffffffffff16815250509050806080015192505050919050565b60025481565b600081600060066000837bffffffffffffffffffffffffffffffffffffffffffffffffffffffff19167bffffffffffffffffffffffffffffffffffffffffffffffffffffffff1916815260200190815260200160002054116110f5576040517f08c379a00000000000000000000000000000000000000000000000000000000081526004016110ec90612c9c565b60405180910390fd5b60066000847bffffffffffffffffffffffffffffffffffffffffffffffffffffffff19167bffffffffffffffffffffffffffffffffffffffffffffffffffffffff1916815260200190815260200160002054915050919050565b60008054906101000a900473ffffffffffffffffffffffffffffffffffffffff1681565b60035481565b6000816001548111156111c1576040517f08c379a00000000000000000000000000000000000000000000000000000000081526004016111b890612915565b60405180910390fd5b60008054906101000a900473ffffffffffffffffffffffffffffffffffffffff1673ffffffffffffffffffffffffffffffffffffffff163373ffffffffffffffffffffffffffffffffffffffff161461124f576040517f08c379a000000000000000000000000000000000000000000000000000000000815260040161124690612d2e565b60405180910390fd5b8260006005600083815260200190815260200160002060030160009054906101000a900460ff1690506002600381111561128c5761128b6124af565b5b81600381111561129f5761129e6124af565b5b14806112cf5750600160038111156112ba576112b96124af565b5b8160038111156112cd576112cc6124af565b5b145b61130e576040517f08c379a000000000000000000000000000000000000000000000000000000000815260040161130590612dc0565b60405180910390fd5b84600060076000838152602001908152602001600020805490501161133257600080fd5b60006007600088815260200190815260200160002080549050905060005b8181101561146b576000600760008a8152602001908152602001600020828154811061137f5761137e612de0565b5b9060005260206000200160009054906101000a900473ffffffffffffffffffffffffffffffffffffffff169050600460009054906101000a900473ffffffffffffffffffffffffffffffffffffffff1673ffffffffffffffffffffffffffffffffffffffff166340c10f1982601260ff16600a6113fc9190612f42565b60646114089190612f8d565b6040518363ffffffff1660e01b8152600401611425929190612fe7565b600060405180830381600087803b15801561143f57600080fd5b505af1158015611453573d6000803e3d6000fd5b5050505050808061146390613010565b915050611350565b5060036005600089815260200190815260200160002060030160006101000a81548160ff021916908360038111156114a6576114a56124af565b5b0217905550600195505050505050919050565b60086020528060005260406000206000915054906101000a900460ff1681565b601260ff16600a6114ea9190612f42565b81565b600081600154811115611535576040517f08c379a000000000000000000000000000000000000000000000000000000000815260040161152c90612915565b60405180910390fd5b6007600084815260200190815260200160002080549050915050919050565b600081600060066000837bffffffffffffffffffffffffffffffffffffffffffffffffffffffff19167bffffffffffffffffffffffffffffffffffffffffffffffffffffffff1916815260200190815260200160002054116115eb576040517f08c379a00000000000000000000000000000000000000000000000000000000081526004016115e290612c9c565b60405180910390fd5b600860003373ffffffffffffffffffffffffffffffffffffffff1673ffffffffffffffffffffffffffffffffffffffff16815260200190815260200160002060009054906101000a900460ff1615611678576040517f08c379a000000000000000000000000000000000000000000000000000000000815260040161166f906130cb565b60405180910390fd5b6116818361105e565b60016003811115611695576116946124af565b5b6005600083815260200190815260200160002060030160009054906101000a900460ff1660038111156116cb576116ca6124af565b5b14158015611704575060056000828152602001908152602001600020600401546007600083815260200190815260200160002080549050105b611743576040517f08c379a000000000000000000000000000000000000000000000000000000000815260040161173a90613137565b60405180910390fd5b61174c8461105e565b6000600560008381526020019081526020016000206040518060c001604052908160008201805461177c90612a62565b80601f01602080910402602001604051908101604052809291908181526020018280546117a890612a62565b80156117f55780601f106117ca576101008083540402835291602001916117f5565b820191906000526020600020905b8154815290600101906020018083116117d857829003601f168201915b505050505081526020016001820160009054906101000a900460e01b7bffffffffffffffffffffffffffffffffffffffffffffffffffffffff19167bffffffffffffffffffffffffffffffffffffffffffffffffffffffff19168152602001600282015481526020016003820160009054906101000a900460ff166003811115611882576118816124af565b5b6003811115611894576118936124af565b5b8152602001600482015481526020016005820160009054906101000a900473ffffffffffffffffffffffffffffffffffffffff1673ffffffffffffffffffffffffffffffffffffffff1673ffffffffffffffffffffffffffffffffffffffff16815250509050600081600001519050600081511415801561193d575060006003811115611924576119236124af565b5b8260600151600381111561193b5761193a6124af565b5b145b61197c576040517f08c379a0000000000000000000000000000000000000000000000000000000008152600401611973906131a3565b60405180910390fd5b60006119878861105e565b90506000600560008381526020019081526020016000206004015490508060076000848152602001908152602001600020805490501015611a375760076000838152602001908152602001600020339080600181540180825580915050600190039060005260206000200160009091909190916101000a81548173ffffffffffffffffffffffffffffffffffffffff021916908373ffffffffffffffffffffffffffffffffffffffff1602179055505b611a4082612079565b6001600860003373ffffffffffffffffffffffffffffffffffffffff1673ffffffffffffffffffffffffffffffffffffffff16815260200190815260200160002060006101000a81548160ff0219169083151502179055507f3479329ad3b085bce9776f2aa99ad193fd4208a8506d3db9985392b5fce30b853383604051611ac9929190612fe7565b60405180910390a16001975050505050505050919050565b600081600154811115611b29576040517f08c379a0000000000000000000000000000000000000000000000000000000008152600401611b2090612915565b60405180910390fd5b826005600082815260200190815260200160002060050160009054906101000a900473ffffffffffffffffffffffffffffffffffffffff1673ffffffffffffffffffffffffffffffffffffffff163373ffffffffffffffffffffffffffffffffffffffff1614611bce576040517f08c379a0000000000000000000000000000000000000000000000000000000008152600401611bc5906129a7565b60405180910390fd5b6000600560008681526020019081526020016000206040518060c0016040529081600082018054611bfe90612a62565b80601f0160208091040260200160405190810160405280929190818152602001828054611c2a90612a62565b8015611c775780601f10611c4c57610100808354040283529160200191611c77565b820191906000526020600020905b815481529060010190602001808311611c5a57829003601f168201915b505050505081526020016001820160009054906101000a900460e01b7bffffffffffffffffffffffffffffffffffffffffffffffffffffffff19167bffffffffffffffffffffffffffffffffffffffffffffffffffffffff19168152602001600282015481526020016003820160009054906101000a900460ff166003811115611d0457611d036124af565b5b6003811115611d1657611d156124af565b5b8152602001600482015481526020016005820160009054906101000a900473ffffffffffffffffffffffffffffffffffffffff1673ffffffffffffffffffffffffffffffffffffffff1673ffffffffffffffffffffffffffffffffffffffff1681525050905080602001519350505050919050565b6060600080600080600086600154811115611ddb576040517f08c379a0000000000000000000000000000000000000000000000000000000008152600401611dd290612915565b60405180910390fd5b6000600560008a81526020019081526020016000206040518060c0016040529081600082018054611e0b90612a62565b80601f0160208091040260200160405190810160405280929190818152602001828054611e3790612a62565b8015611e845780601f10611e5957610100808354040283529160200191611e84565b820191906000526020600020905b815481529060010190602001808311611e6757829003601f168201915b505050505081526020016001820160009054906101000a900460e01b7bffffffffffffffffffffffffffffffffffffffffffffffffffffffff19167bffffffffffffffffffffffffffffffffffffffffffffffffffffffff19168152602001600282015481526020016003820160009054906101000a900460ff166003811115611f1157611f106124af565b5b6003811115611f2357611f226124af565b5b8152602001600482015481526020016005820160009054906101000a900473ffffffffffffffffffffffffffffffffffffffff1673ffffffffffffffffffffffffffffffffffffffff1673ffffffffffffffffffffffffffffffffffffffff168152505090506000600760008b81526020019081526020016000208054905090507f3c899b656870a69d0e8236714114bcc53f07a5d933a4c6136f8f910cc3de039082600001518360200151846060015185608001518660a0015186604051611ff196959493929190612861565b60405180910390a181600001518260200151836060015184608001518560a001518598509850985098509850985050505091939550919395565b60066020528060005260406000206000915090505481565b600083838360405160200161205a93929190613268565b6040516020818303038152906040528051906020012090509392505050565b806001548111156120bf576040517f08c379a00000000000000000000000000000000000000000000000000000000081526004016120b690612915565b60405180910390fd5b6005600083815260200190815260200160002060040154600760008481526020019081526020016000208054905014156121335760016005600084815260200190815260200160002060030160006101000a81548160ff0219169083600381111561212d5761212c6124af565b5b02179055505b7f06cb8bd8c6a4102a31ce41f100ec97e0e6f550ee4dc1fbe8ad20cfa389c9b5ce6005600084815260200190815260200160002060000183604051612179929190612b29565b60405180910390a15050565b82805461219190612a62565b90600052602060002090601f0160209004810192826121b357600085556121fa565b82601f106121cc57805160ff19168380011785556121fa565b828001600101855582156121fa579182015b828111156121f95782518255916020019190600101906121de565b5b509050612207919061220b565b5090565b5b8082111561222457600081600090555060010161220c565b5090565b6000604051905090565b600080fd5b600080fd5b6000819050919050565b61224f8161223c565b811461225a57600080fd5b50565b60008135905061226c81612246565b92915050565b60006020828403121561228857612287612232565b5b60006122968482850161225d565b91505092915050565b60008115159050919050565b6122b48161229f565b82525050565b60006020820190506122cf60008301846122ab565b92915050565b600080fd5b600080fd5b6000601f19601f8301169050919050565b7f4e487b7100000000000000000000000000000000000000000000000000000000600052604160045260246000fd5b612328826122df565b810181811067ffffffffffffffff82111715612347576123466122f0565b5b80604052505050565b600061235a612228565b9050612366828261231f565b919050565b600067ffffffffffffffff821115612386576123856122f0565b5b61238f826122df565b9050602081019050919050565b82818337600083830152505050565b60006123be6123b98461236b565b612350565b9050828152602081018484840111156123da576123d96122da565b5b6123e584828561239c565b509392505050565b600082601f830112612402576124016122d5565b5b81356124128482602086016123ab565b91505092915050565b6000806040838503121561243257612431612232565b5b600083013567ffffffffffffffff8111156124505761244f612237565b5b61245c858286016123ed565b925050602061246d8582860161225d565b9150509250929050565b6124808161223c565b82525050565b600060408201905061249b60008301856122ab565b6124a86020830184612477565b9392505050565b7f4e487b7100000000000000000000000000000000000000000000000000000000600052602160045260246000fd5b600481106124ef576124ee6124af565b5b50565b6000819050612500826124de565b919050565b6000612510826124f2565b9050919050565b61252081612505565b82525050565b600060208201905061253b6000830184612517565b92915050565b600081519050919050565b600082825260208201905092915050565b60005b8381101561257b578082015181840152602081019050612560565b8381111561258a576000848401525b50505050565b600061259b82612541565b6125a5818561254c565b93506125b581856020860161255d565b6125be816122df565b840191505092915050565b60007fffffffff0000000000000000000000000000000000000000000000000000000082169050919050565b6125fe816125c9565b82525050565b600073ffffffffffffffffffffffffffffffffffffffff82169050919050565b600061262f82612604565b9050919050565b61263f81612624565b82525050565b600060c082019050818103600083015261265f8189612590565b905061266e60208301886125f5565b61267b6040830187612477565b6126886060830186612517565b6126956080830185612477565b6126a260a0830184612636565b979650505050505050565b600060ff82169050919050565b6126c3816126ad565b82525050565b60006020820190506126de60008301846126ba565b92915050565b60006020820190506126f96000830184612477565b92915050565b6000819050919050565b600061272461271f61271a84612604565b6126ff565b612604565b9050919050565b600061273682612709565b9050919050565b60006127488261272b565b9050919050565b6127588161273d565b82525050565b6000602082019050612773600083018461274f565b92915050565b612782816125c9565b811461278d57600080fd5b50565b60008135905061279f81612779565b92915050565b6000602082840312156127bb576127ba612232565b5b60006127c984828501612790565b91505092915050565b60006020820190506127e76000830184612636565b92915050565b6127f681612624565b811461280157600080fd5b50565b600081359050612813816127ed565b92915050565b60006020828403121561282f5761282e612232565b5b600061283d84828501612804565b91505092915050565b600060208201905061285b60008301846125f5565b92915050565b600060c082019050818103600083015261287b8189612590565b905061288a60208301886125f5565b6128976040830187612517565b6128a46060830186612477565b6128b16080830185612636565b6128be60a0830184612477565b979650505050505050565b7f496e76616c69642063616d706169676e20696400000000000000000000000000600082015250565b60006128ff60138361254c565b915061290a826128c9565b602082019050919050565b6000602082019050818103600083015261292e816128f2565b9050919050565b7f4f6e6c792063616d706169676e20686f73742063616e20706572666f726d207460008201527f68697320616374696f6e2e000000000000000000000000000000000000000000602082015250565b6000612991602b8361254c565b915061299c82612935565b604082019050919050565b600060208201905081810360008301526129c081612984565b9050919050565b7f43616d706169676e20616c726561647920636c6f7365642e0000000000000000600082015250565b60006129fd60188361254c565b9150612a08826129c7565b602082019050919050565b60006020820190508181036000830152612a2c816129f0565b9050919050565b7f4e487b7100000000000000000000000000000000000000000000000000000000600052602260045260246000fd5b60006002820490506001821680612a7a57607f821691505b60208210811415612a8e57612a8d612a33565b5b50919050565b60008190508160005260206000209050919050565b60008154612ab681612a62565b612ac0818661254c565b94506001821660008114612adb5760018114612aed57612b20565b60ff1983168652602086019350612b20565b612af685612a94565b60005b83811015612b1857815481890152600182019150602081019050612af9565b808801955050505b50505092915050565b60006040820190508181036000830152612b438185612aa9565b9050612b526020830184612477565b9392505050565b7f4e487b7100000000000000000000000000000000000000000000000000000000600052601160045260246000fd5b6000612b938261223c565b9150612b9e8361223c565b9250827fffffffffffffffffffffffffffffffffffffffffffffffffffffffffffffffff03821115612bd357612bd2612b59565b5b828201905092915050565b60006060820190508181036000830152612bf88186612590565b9050612c076020830185612477565b612c1460408301846125f5565b949350505050565b6000612c278261223c565b9150612c328361223c565b925082821015612c4557612c44612b59565b5b828203905092915050565b7f636f646520697320696e76616c69642e00000000000000000000000000000000600082015250565b6000612c8660108361254c565b9150612c9182612c50565b602082019050919050565b60006020820190508181036000830152612cb581612c79565b9050919050565b7f4f6e6c79206f776e65722063616e20706572666f726d2074686973206163746960008201527f6f6e2e0000000000000000000000000000000000000000000000000000000000602082015250565b6000612d1860238361254c565b9150612d2382612cbc565b604082019050919050565b60006020820190508181036000830152612d4781612d0b565b9050919050565b7f43616d706169676e2073686f756c6420626520616c726561647920636c6f736560008201527f64206f722066756c6c2e00000000000000000000000000000000000000000000602082015250565b6000612daa602a8361254c565b9150612db582612d4e565b604082019050919050565b60006020820190508181036000830152612dd981612d9d565b9050919050565b7f4e487b7100000000000000000000000000000000000000000000000000000000600052603260045260246000fd5b60008160011c9050919050565b6000808291508390505b6001851115612e6657808604811115612e4257612e41612b59565b5b6001851615612e515780820291505b8081029050612e5f85612e0f565b9450612e26565b94509492505050565b600082612e7f5760019050612f3b565b81612e8d5760009050612f3b565b8160018114612ea35760028114612ead57612edc565b6001915050612f3b565b60ff841115612ebf57612ebe612b59565b5b8360020a915084821115612ed657612ed5612b59565b5b50612f3b565b5060208310610133831016604e8410600b8410161715612f115782820a905083811115612f0c57612f0b612b59565b5b612f3b565b612f1e8484846001612e1c565b92509050818404811115612f3557612f34612b59565b5b81810290505b9392505050565b6000612f4d8261223c565b9150612f588361223c565b9250612f857fffffffffffffffffffffffffffffffffffffffffffffffffffffffffffffffff8484612e6f565b905092915050565b6000612f988261223c565b9150612fa38361223c565b9250817fffffffffffffffffffffffffffffffffffffffffffffffffffffffffffffffff0483118215151615612fdc57612fdb612b59565b5b828202905092915050565b6000604082019050612ffc6000830185612636565b6130096020830184612477565b9392505050565b600061301b8261223c565b91507fffffffffffffffffffffffffffffffffffffffffffffffffffffffffffffffff82141561304e5761304d612b59565b5b600182019050919050565b7f596f75206861766520616c7265616479207265676973746572656420746f206160008201527f2063616d706169676e2e00000000000000000000000000000000000000000000602082015250565b60006130b5602a8361254c565b91506130c082613059565b604082019050919050565b600060208201905081810360008301526130e4816130a8565b9050919050565b7f4d61782063617061636974792072656163686564000000000000000000000000600082015250565b600061312160148361254c565b915061312c826130eb565b602082019050919050565b6000602082019050818103600083015261315081613114565b9050919050565b7f43616d706167696e206973206e6f74206f70656e000000000000000000000000600082015250565b600061318d60148361254c565b915061319882613157565b602082019050919050565b600060208201905081810360008301526131bc81613180565b9050919050565b600081905092915050565b60006131d982612541565b6131e381856131c3565b93506131f381856020860161255d565b80840191505092915050565b6000819050919050565b61321a6132158261223c565b6131ff565b82525050565b60008160601b9050919050565b600061323882613220565b9050919050565b600061324a8261322d565b9050919050565b61326261325d82612624565b61323f565b82525050565b600061327482866131ce565b91506132808285613209565b6020820191506132908284613251565b60148201915081905094935050505056fea26469706673582212207afe8ea46a62a5a523c89a314c4e1bc412d3aeb50e9cafa378707a49db04883b64736f6c63430008090033",
  "immutableReferences": {},
  "source": "// SPDX-License-Identifier: MIT\npragma solidity 0.8.9;\n\nimport './Wormies.sol';\n\n\n/// @title A contract to run early bird promotions for first N registrants\n/// @author chaudhga\n/// @custom:experimental This is an experimental contract.\ncontract EarlyBirds{\n  address public owner;\n  uint public campaignCount;\n\n  uint8   public constant DECIMALS = 18;\n  uint256 public constant DECIMALFACTOR = 10 ** uint256(DECIMALS);\n  uint256 constant TOKENS_PER_REGISTRANT = 100 * uint256(DECIMALFACTOR);\n  uint256 public AIRDROP_SUPPLY = 10000000 * uint256(DECIMALFACTOR);\n  uint256 public TOTAL_SUPPLY = 1000000000000 * uint256(DECIMALFACTOR);  \n  Wormies public wormies;\n\n  mapping (uint => Campaign) public campaigns;\n  mapping (bytes4 => uint) public campaignCodes;\n  mapping (uint => address[]) private registrants;\n  enum State{Open, Full, Closed, Airdropped}\n\n  mapping (address => bool) public registrantStatus;\n\n  struct Campaign{string title; bytes4 code; uint id; State state; uint capacity; \n            address host;}\n\n  event LogCampaignOpened(string title, uint id, bytes4 campaignCode);\n  event LogCampaignClosed(string title, uint id);\n  event LogCampaignFull(string title, uint id);\n  event LogRegistration(address _address, uint campaignID);\n  event LogCampaignDetails(string title, bytes4 code, State state, uint capacity, \n                            address host, uint registrationCount);\n\n\n  constructor(address _token) {\n    owner = msg.sender;\n    campaignCount = 0;\n    wormies = Wormies(_token);\n  }\n\n  function codeToID(bytes4 _code) public view validCode(_code) returns(uint){\n    return(campaignCodes[_code]);\n  }\n\n/// @notice creates a new campaign; generates campaign id to be shared for registrations\n///         assigns creator as the host which allows them to controol states\n/// @dev to fetch details of the campaign created call getCampaignDetails\n  function addCampaign(string memory _title, uint _capacity) public returns(bool, uint){\n    bytes4 _code = hash(_title, _capacity, msg.sender);\n    campaignCount += 1;\n    campaigns[campaignCount] = Campaign({\n      title: _title,\n      code: _code,\n      id: campaignCount,\n      state: State.Open,\n      capacity: _capacity,\n      host: msg.sender\n    });\n    campaignCodes[_code] = campaignCount;\n    emit LogCampaignOpened(_title, campaignCount, _code);\n    return (true, campaignCount);\n  }\n\n/// @notice registration function (requires campaign code provided by host), only allows single registration\n/// @dev updates the state to full for last registrant\n  function register(bytes4 _code) public \n    validCode(_code)\n    notAlreadyRegistered()\n    hasCapacity(codeToID(_code))\n    isOpen(codeToID(_code))\n    returns(bool){\n      uint _id = codeToID(_code);\n      uint _capacity = campaigns[_id].capacity;\n      if(registrants[_id].length < _capacity){\n              registrants[_id].push(msg.sender);\n      }\n      checkAndMarkFull(_id);\n      registrantStatus[msg.sender]=true;\n      emit LogRegistration(msg.sender, _id);\n      return true;\n    }\n\n/// @notice Only host can close the campaign. Campaign can be closed at any stage, full or not.\n/// @dev before executing airdrop campaign registration must be closed\n  function close(uint _id) public \n    validID(_id)\n    isHost(_id)\n    isNotClosed(_id)\n    returns(bool){\n      campaigns[_id].state = State.Closed;\n      emit LogCampaignClosed(campaigns[_id].title, _id);\n      return(true);\n    }\n\n/// @notice Allocate tokens to registrants and burn any remaining tokens\n  function airdrop(uint _id) public \n    validID(_id)\n    isOwner()\n    isClosedOrFull(_id)\n    hasRegistrants(_id)\n    returns(bool){\n      uint totalRegistrants = registrants[_id].length;\n \n      for(uint i=0; i<totalRegistrants; i++){\n        address registrant = registrants[_id][i];\n        // wormies.transferFrom(msg.sender, registrant, TOKENS_PER_REGISTRANT);\n        wormies.mint(registrant, TOKENS_PER_REGISTRANT);\n      }\n      campaigns[_id].state = State.Airdropped;\n      return(true);\n    }\n\n\n\n  /// *** Utility Functions ***\n  function getCampaignDetails(uint _id) public\n    validID(_id)\n    returns(string memory, bytes4 , State , uint , address , uint ){\n      Campaign memory campaign = campaigns[_id];\n      uint registrationCount = registrants[_id].length;\n      emit LogCampaignDetails(campaign.title, campaign.code, campaign.state, campaign.capacity, \n                                campaign.host, registrationCount);\n      return(campaign.title, campaign.code, campaign.state, campaign.capacity, campaign.host, registrationCount);\n    }\n\n  function getCompaignCodeById(uint _id) public view \n  validID(_id)\n  isHost(_id) \n  returns(bytes4 _code){\n    Campaign memory _campaign = campaigns[_id];\n    return(_campaign.code);\n  }\n\n  function getCompaignStateById(uint _id) public view \n  validID(_id)\n  returns(State){\n    Campaign memory _campaign = campaigns[_id];\n    return(_campaign.state);\n  }\n\n  function getRemainingCapacityById(uint _id) public view \n  validID(_id)\n  returns(uint){\n    Campaign memory _campaign = campaigns[_id];\n    uint currRegistrantCount = registrants[_id].length;\n    return(_campaign.capacity - currRegistrantCount);\n  }\n\n  function getRegistrantCount(uint _id) public view\n  validID(_id)\n  returns(uint){\n    return(registrants[_id].length);\n  }\n\n  function getCapacityById(uint _id) public view \n  validID(_id)\n  returns(uint){\n    Campaign memory _campaign = campaigns[_id];\n    return(_campaign.capacity);\n  }\n\n  function checkAndMarkFull(uint _id) internal validID(_id){\n    if(registrants[_id].length == campaigns[_id].capacity){\n        campaigns[_id].state = State.Full;\n    }\n    emit LogCampaignFull(campaigns[_id].title, _id);\n  }\n\n    function hash (\n        string memory _text,\n        uint _num,\n        address _addr\n    ) internal pure returns (bytes4) {\n        return bytes4(keccak256(abi.encodePacked(_text, _num, _addr)));\n    }\n\n\n  /// *** Modifiers ***\n  modifier isOwner{\n    require(msg.sender == owner, \"Only owner can perform this action.\");\n    _;\n  }\n  modifier isHost(uint _campaignID){\n    require(msg.sender == campaigns[_campaignID].host, \"Only campaign host can perform this action.\");\n    _;\n  }\n  modifier notAlreadyRegistered(){\n    require(!registrantStatus[msg.sender], \"You have already registered to a campaign.\");\n    _;\n  }\n  modifier isOpen(uint _campaignID){\n    Campaign memory campaign = campaigns[_campaignID];\n    bytes memory emptyTitleTest = bytes(campaign.title);\n    require(emptyTitleTest.length != 0 && campaign.state == State.Open, \"Campagin is not open\");\n    _;\n  }\n  modifier isNotClosed(uint _campaignID){\n    require(campaigns[_campaignID].state != State.Closed, \"Campaign already closed.\");\n    _;\n  }\n  modifier isClosedOrFull(uint _campaignID){\n    State campaignState = campaigns[_campaignID].state;\n    require(campaignState == State.Closed || campaignState == State.Full, \"Campaign should be already closed or full.\");\n    _;\n  }\n  modifier hasCapacity(uint _campaignID){\n    require(campaigns[_campaignID].state != State.Full && \n            registrants[_campaignID].length < campaigns[_campaignID].capacity, \"Max capacity reached\");\n    _;\n  }\n  modifier validCode(bytes4 _code){\n    require(campaignCodes[_code] > 0, \"code is invalid.\");\n    _;\n  }\n  modifier validID(uint _id){\n    require(_id <= campaignCount, \"Invalid campaign id\");\n    _;\n  }\n  modifier hasRegistrants(uint _id){\n    require(registrants[_id].length > 0);\n    _;\n  }\n}",
  "sourcePath": "/Users/gaurav/trufflebox-react/contracts/EarlyBirds.sol",
  "compiler": {
    "name": "solc",
    "version": "0.8.9+commit.e5eed63a.Emscripten.clang"
  },
  "schemaVersion": "3.4.4",
  "updatedAt": "2022-01-15T16:23:20.428Z",
  "devdoc": {
    "author": "chaudhga",
    "custom:experimental": "This is an experimental contract.",
    "kind": "dev",
    "methods": {
      "addCampaign(string,uint256)": {
        "details": "to fetch details of the campaign created call getCampaignDetails"
      },
      "close(uint256)": {
        "details": "before executing airdrop campaign registration must be closed"
      },
      "register(bytes4)": {
        "details": "updates the state to full for last registrant"
      }
    },
    "title": "A contract to run early bird promotions for first N registrants",
    "version": 1
  },
  "userdoc": {
    "kind": "user",
    "methods": {
      "addCampaign(string,uint256)": {
        "notice": "creates a new campaign; generates campaign id to be shared for registrations         assigns creator as the host which allows them to controol states"
      },
      "airdrop(uint256)": {
        "notice": "Allocate tokens to registrants and burn any remaining tokens"
      },
      "close(uint256)": {
        "notice": "Only host can close the campaign. Campaign can be closed at any stage, full or not."
      },
      "getCampaignDetails(uint256)": {
        "notice": "*** Utility Functions ***"
      },
      "register(bytes4)": {
        "notice": "registration function (requires campaign code provided by host), only allows single registration"
      }
    },
    "version": 1
  }
}