{
  "contractName": "EarlyBirdsFactory",
  "abi": [
    {
      "inputs": [
        {
          "internalType": "uint256",
          "name": "",
          "type": "uint256"
        }
      ],
      "name": "campaignsCreated",
      "outputs": [
        {
          "internalType": "contract EarlyBirds",
          "name": "",
          "type": "address"
        }
      ],
      "stateMutability": "view",
      "type": "function"
    },
    {
      "inputs": [],
      "name": "create",
      "outputs": [
        {
          "internalType": "contract EarlyBirds",
          "name": "",
          "type": "address"
        }
      ],
      "stateMutability": "nonpayable",
      "type": "function"
    }
  ],
  "bytecode": "0x608060405234801561001057600080fd5b50615b67806100206000396000f3fe60806040523480156200001157600080fd5b50600436106200003a5760003560e01c806380b09865146200003f578063efc81a8c1462000075575b600080fd5b6200005d60048036038101906200005791906200020c565b62000097565b6040516200006c9190620002c9565b60405180910390f35b6200007f620000d7565b6040516200008e9190620002c9565b60405180910390f35b60008181548110620000a857600080fd5b906000526020600020016000915054906101000a900473ffffffffffffffffffffffffffffffffffffffff1681565b600080604051620000e890620001b0565b604051809103906000f08015801562000105573d6000803e3d6000fd5b5090506000816040516200011990620001be565b6200012591906200030b565b604051809103906000f08015801562000142573d6000803e3d6000fd5b5090506000819080600181540180825580915050600190039060005260206000200160009091909190916101000a81548173ffffffffffffffffffffffffffffffffffffffff021916908373ffffffffffffffffffffffffffffffffffffffff160217905550809250505090565b61186f806200032983390190565b613f9a8062001b9883390190565b600080fd5b6000819050919050565b620001e681620001d1565b8114620001f257600080fd5b50565b6000813590506200020681620001db565b92915050565b600060208284031215620002255762000224620001cc565b5b60006200023584828501620001f5565b91505092915050565b600073ffffffffffffffffffffffffffffffffffffffff82169050919050565b6000819050919050565b600062000289620002836200027d846200023e565b6200025e565b6200023e565b9050919050565b60006200029d8262000268565b9050919050565b6000620002b18262000290565b9050919050565b620002c381620002a4565b82525050565b6000602082019050620002e06000830184620002b8565b92915050565b6000620002f3826200023e565b9050919050565b6200030581620002e6565b82525050565b6000602082019050620003226000830184620002fa565b9291505056fe60806040523480156200001157600080fd5b506040518060400160405280600781526020017f576f726d696573000000000000000000000000000000000000000000000000008152506040518060400160405280600381526020017f57524d000000000000000000000000000000000000000000000000000000000081525081600390805190602001906200009692919062000259565b508060049080519060200190620000af92919062000259565b505050620000d0336b033b2e3c9fd0803ce8000000620000d660201b60201c565b620004b5565b600073ffffffffffffffffffffffffffffffffffffffff168273ffffffffffffffffffffffffffffffffffffffff16141562000149576040517f08c379a000000000000000000000000000000000000000000000000000000000815260040162000140906200036a565b60405180910390fd5b6200015d600083836200024f60201b60201c565b8060026000828254620001719190620003c5565b92505081905550806000808473ffffffffffffffffffffffffffffffffffffffff1673ffffffffffffffffffffffffffffffffffffffff1681526020019081526020016000206000828254620001c89190620003c5565b925050819055508173ffffffffffffffffffffffffffffffffffffffff16600073ffffffffffffffffffffffffffffffffffffffff167fddf252ad1be2c89b69c2b068fc378daa952ba7f163c4a11628f55a4df523b3ef836040516200022f919062000433565b60405180910390a36200024b600083836200025460201b60201c565b5050565b505050565b505050565b82805462000267906200047f565b90600052602060002090601f0160209004810192826200028b5760008555620002d7565b82601f10620002a657805160ff1916838001178555620002d7565b82800160010185558215620002d7579182015b82811115620002d6578251825591602001919060010190620002b9565b5b509050620002e69190620002ea565b5090565b5b8082111562000305576000816000905550600101620002eb565b5090565b600082825260208201905092915050565b7f45524332303a206d696e7420746f20746865207a65726f206164647265737300600082015250565b600062000352601f8362000309565b91506200035f826200031a565b602082019050919050565b60006020820190508181036000830152620003858162000343565b9050919050565b6000819050919050565b7f4e487b7100000000000000000000000000000000000000000000000000000000600052601160045260246000fd5b6000620003d2826200038c565b9150620003df836200038c565b9250827fffffffffffffffffffffffffffffffffffffffffffffffffffffffffffffffff0382111562000417576200041662000396565b5b828201905092915050565b6200042d816200038c565b82525050565b60006020820190506200044a600083018462000422565b92915050565b7f4e487b7100000000000000000000000000000000000000000000000000000000600052602260045260246000fd5b600060028204905060018216806200049857607f821691505b60208210811415620004af57620004ae62000450565b5b50919050565b6113aa80620004c56000396000f3fe608060405234801561001057600080fd5b50600436106100a95760003560e01c80633950935111610071578063395093511461016857806370a082311461019857806395d89b41146101c8578063a457c2d7146101e6578063a9059cbb14610216578063dd62ed3e14610246576100a9565b806306fdde03146100ae578063095ea7b3146100cc57806318160ddd146100fc57806323b872dd1461011a578063313ce5671461014a575b600080fd5b6100b6610276565b6040516100c39190610c3e565b60405180910390f35b6100e660048036038101906100e19190610cf9565b610308565b6040516100f39190610d54565b60405180910390f35b610104610326565b6040516101119190610d7e565b60405180910390f35b610134600480360381019061012f9190610d99565b610330565b6040516101419190610d54565b60405180910390f35b610152610428565b60405161015f9190610e08565b60405180910390f35b610182600480360381019061017d9190610cf9565b610431565b60405161018f9190610d54565b60405180910390f35b6101b260048036038101906101ad9190610e23565b6104dd565b6040516101bf9190610d7e565b60405180910390f35b6101d0610525565b6040516101dd9190610c3e565b60405180910390f35b61020060048036038101906101fb9190610cf9565b6105b7565b60405161020d9190610d54565b60405180910390f35b610230600480360381019061022b9190610cf9565b6106a2565b60405161023d9190610d54565b60405180910390f35b610260600480360381019061025b9190610e50565b6106c0565b60405161026d9190610d7e565b60405180910390f35b60606003805461028590610ebf565b80601f01602080910402602001604051908101604052809291908181526020018280546102b190610ebf565b80156102fe5780601f106102d3576101008083540402835291602001916102fe565b820191906000526020600020905b8154815290600101906020018083116102e157829003601f168201915b5050505050905090565b600061031c610315610747565b848461074f565b6001905092915050565b6000600254905090565b600061033d84848461091a565b6000600160008673ffffffffffffffffffffffffffffffffffffffff1673ffffffffffffffffffffffffffffffffffffffff1681526020019081526020016000206000610388610747565b73ffffffffffffffffffffffffffffffffffffffff1673ffffffffffffffffffffffffffffffffffffffff16815260200190815260200160002054905082811015610408576040517f08c379a00000000000000000000000000000000000000000000000000000000081526004016103ff90610f63565b60405180910390fd5b61041c85610414610747565b85840361074f565b60019150509392505050565b60006012905090565b60006104d361043e610747565b84846001600061044c610747565b73ffffffffffffffffffffffffffffffffffffffff1673ffffffffffffffffffffffffffffffffffffffff16815260200190815260200160002060008873ffffffffffffffffffffffffffffffffffffffff1673ffffffffffffffffffffffffffffffffffffffff168152602001908152602001600020546104ce9190610fb2565b61074f565b6001905092915050565b60008060008373ffffffffffffffffffffffffffffffffffffffff1673ffffffffffffffffffffffffffffffffffffffff168152602001908152602001600020549050919050565b60606004805461053490610ebf565b80601f016020809104026020016040519081016040528092919081815260200182805461056090610ebf565b80156105ad5780601f10610582576101008083540402835291602001916105ad565b820191906000526020600020905b81548152906001019060200180831161059057829003601f168201915b5050505050905090565b600080600160006105c6610747565b73ffffffffffffffffffffffffffffffffffffffff1673ffffffffffffffffffffffffffffffffffffffff16815260200190815260200160002060008573ffffffffffffffffffffffffffffffffffffffff1673ffffffffffffffffffffffffffffffffffffffff16815260200190815260200160002054905082811015610683576040517f08c379a000000000000000000000000000000000000000000000000000000000815260040161067a9061107a565b60405180910390fd5b61069761068e610747565b8585840361074f565b600191505092915050565b60006106b66106af610747565b848461091a565b6001905092915050565b6000600160008473ffffffffffffffffffffffffffffffffffffffff1673ffffffffffffffffffffffffffffffffffffffff16815260200190815260200160002060008373ffffffffffffffffffffffffffffffffffffffff1673ffffffffffffffffffffffffffffffffffffffff16815260200190815260200160002054905092915050565b600033905090565b600073ffffffffffffffffffffffffffffffffffffffff168373ffffffffffffffffffffffffffffffffffffffff1614156107bf576040517f08c379a00000000000000000000000000000000000000000000000000000000081526004016107b69061110c565b60405180910390fd5b600073ffffffffffffffffffffffffffffffffffffffff168273ffffffffffffffffffffffffffffffffffffffff16141561082f576040517f08c379a00000000000000000000000000000000000000000000000000000000081526004016108269061119e565b60405180910390fd5b80600160008573ffffffffffffffffffffffffffffffffffffffff1673ffffffffffffffffffffffffffffffffffffffff16815260200190815260200160002060008473ffffffffffffffffffffffffffffffffffffffff1673ffffffffffffffffffffffffffffffffffffffff168152602001908152602001600020819055508173ffffffffffffffffffffffffffffffffffffffff168373ffffffffffffffffffffffffffffffffffffffff167f8c5be1e5ebec7d5bd14f71427d1e84f3dd0314c0f7b2291e5b200ac8c7c3b9258360405161090d9190610d7e565b60405180910390a3505050565b600073ffffffffffffffffffffffffffffffffffffffff168373ffffffffffffffffffffffffffffffffffffffff16141561098a576040517f08c379a000000000000000000000000000000000000000000000000000000000815260040161098190611230565b60405180910390fd5b600073ffffffffffffffffffffffffffffffffffffffff168273ffffffffffffffffffffffffffffffffffffffff1614156109fa576040517f08c379a00000000000000000000000000000000000000000000000000000000081526004016109f1906112c2565b60405180910390fd5b610a05838383610b9b565b60008060008573ffffffffffffffffffffffffffffffffffffffff1673ffffffffffffffffffffffffffffffffffffffff16815260200190815260200160002054905081811015610a8b576040517f08c379a0000000000000000000000000000000000000000000000000000000008152600401610a8290611354565b60405180910390fd5b8181036000808673ffffffffffffffffffffffffffffffffffffffff1673ffffffffffffffffffffffffffffffffffffffff16815260200190815260200160002081905550816000808573ffffffffffffffffffffffffffffffffffffffff1673ffffffffffffffffffffffffffffffffffffffff1681526020019081526020016000206000828254610b1e9190610fb2565b925050819055508273ffffffffffffffffffffffffffffffffffffffff168473ffffffffffffffffffffffffffffffffffffffff167fddf252ad1be2c89b69c2b068fc378daa952ba7f163c4a11628f55a4df523b3ef84604051610b829190610d7e565b60405180910390a3610b95848484610ba0565b50505050565b505050565b505050565b600081519050919050565b600082825260208201905092915050565b60005b83811015610bdf578082015181840152602081019050610bc4565b83811115610bee576000848401525b50505050565b6000601f19601f8301169050919050565b6000610c1082610ba5565b610c1a8185610bb0565b9350610c2a818560208601610bc1565b610c3381610bf4565b840191505092915050565b60006020820190508181036000830152610c588184610c05565b905092915050565b600080fd5b600073ffffffffffffffffffffffffffffffffffffffff82169050919050565b6000610c9082610c65565b9050919050565b610ca081610c85565b8114610cab57600080fd5b50565b600081359050610cbd81610c97565b92915050565b6000819050919050565b610cd681610cc3565b8114610ce157600080fd5b50565b600081359050610cf381610ccd565b92915050565b60008060408385031215610d1057610d0f610c60565b5b6000610d1e85828601610cae565b9250506020610d2f85828601610ce4565b9150509250929050565b60008115159050919050565b610d4e81610d39565b82525050565b6000602082019050610d696000830184610d45565b92915050565b610d7881610cc3565b82525050565b6000602082019050610d936000830184610d6f565b92915050565b600080600060608486031215610db257610db1610c60565b5b6000610dc086828701610cae565b9350506020610dd186828701610cae565b9250506040610de286828701610ce4565b9150509250925092565b600060ff82169050919050565b610e0281610dec565b82525050565b6000602082019050610e1d6000830184610df9565b92915050565b600060208284031215610e3957610e38610c60565b5b6000610e4784828501610cae565b91505092915050565b60008060408385031215610e6757610e66610c60565b5b6000610e7585828601610cae565b9250506020610e8685828601610cae565b9150509250929050565b7f4e487b7100000000000000000000000000000000000000000000000000000000600052602260045260246000fd5b60006002820490506001821680610ed757607f821691505b60208210811415610eeb57610eea610e90565b5b50919050565b7f45524332303a207472616e7366657220616d6f756e742065786365656473206160008201527f6c6c6f77616e6365000000000000000000000000000000000000000000000000602082015250565b6000610f4d602883610bb0565b9150610f5882610ef1565b604082019050919050565b60006020820190508181036000830152610f7c81610f40565b9050919050565b7f4e487b7100000000000000000000000000000000000000000000000000000000600052601160045260246000fd5b6000610fbd82610cc3565b9150610fc883610cc3565b9250827fffffffffffffffffffffffffffffffffffffffffffffffffffffffffffffffff03821115610ffd57610ffc610f83565b5b828201905092915050565b7f45524332303a2064656372656173656420616c6c6f77616e63652062656c6f7760008201527f207a65726f000000000000000000000000000000000000000000000000000000602082015250565b6000611064602583610bb0565b915061106f82611008565b604082019050919050565b6000602082019050818103600083015261109381611057565b9050919050565b7f45524332303a20617070726f76652066726f6d20746865207a65726f2061646460008201527f7265737300000000000000000000000000000000000000000000000000000000602082015250565b60006110f6602483610bb0565b91506111018261109a565b604082019050919050565b60006020820190508181036000830152611125816110e9565b9050919050565b7f45524332303a20617070726f766520746f20746865207a65726f20616464726560008201527f7373000000000000000000000000000000000000000000000000000000000000602082015250565b6000611188602283610bb0565b91506111938261112c565b604082019050919050565b600060208201905081810360008301526111b78161117b565b9050919050565b7f45524332303a207472616e736665722066726f6d20746865207a65726f20616460008201527f6472657373000000000000000000000000000000000000000000000000000000602082015250565b600061121a602583610bb0565b9150611225826111be565b604082019050919050565b600060208201905081810360008301526112498161120d565b9050919050565b7f45524332303a207472616e7366657220746f20746865207a65726f206164647260008201527f6573730000000000000000000000000000000000000000000000000000000000602082015250565b60006112ac602383610bb0565b91506112b782611250565b604082019050919050565b600060208201905081810360008301526112db8161129f565b9050919050565b7f45524332303a207472616e7366657220616d6f756e742065786365656473206260008201527f616c616e63650000000000000000000000000000000000000000000000000000602082015250565b600061133e602683610bb0565b9150611349826112e2565b604082019050919050565b6000602082019050818103600083015261136d81611331565b905091905056fea2646970667358221220488740efdfb5366f86794932f0f9525db3f237a0d265bd7691ffacbfd73a025864736f6c634300080900336080604052601260ff16600a6200001791906200034e565b629896806200002791906200039f565b600255601260ff16600a6200003d91906200034e565b64e8d4a510006200004f91906200039f565b6003553480156200005f57600080fd5b5060405162003f9a38038062003f9a83398181016040528101906200008591906200046a565b620000a562000099620000f560201b60201c565b620000fd60201b60201c565b600060018190555080600460006101000a81548173ffffffffffffffffffffffffffffffffffffffff021916908373ffffffffffffffffffffffffffffffffffffffff160217905550506200049c565b600033905090565b60008060009054906101000a900473ffffffffffffffffffffffffffffffffffffffff169050816000806101000a81548173ffffffffffffffffffffffffffffffffffffffff021916908373ffffffffffffffffffffffffffffffffffffffff1602179055508173ffffffffffffffffffffffffffffffffffffffff168173ffffffffffffffffffffffffffffffffffffffff167f8be0079c531659141344cd1fd0a4f28419497f9722a3daafe3b4186f6b6457e060405160405180910390a35050565b7f4e487b7100000000000000000000000000000000000000000000000000000000600052601160045260246000fd5b60008160011c9050919050565b6000808291508390505b60018511156200024f57808604811115620002275762000226620001c1565b5b6001851615620002375780820291505b80810290506200024785620001f0565b945062000207565b94509492505050565b6000826200026a57600190506200033d565b816200027a57600090506200033d565b81600181146200029357600281146200029e57620002d4565b60019150506200033d565b60ff841115620002b357620002b2620001c1565b5b8360020a915084821115620002cd57620002cc620001c1565b5b506200033d565b5060208310610133831016604e8410600b84101617156200030e5782820a905083811115620003085762000307620001c1565b5b6200033d565b6200031d8484846001620001fd565b92509050818404811115620003375762000336620001c1565b5b81810290505b9392505050565b6000819050919050565b60006200035b8262000344565b9150620003688362000344565b9250620003977fffffffffffffffffffffffffffffffffffffffffffffffffffffffffffffffff848462000258565b905092915050565b6000620003ac8262000344565b9150620003b98362000344565b9250817fffffffffffffffffffffffffffffffffffffffffffffffffffffffffffffffff0483118215151615620003f557620003f4620001c1565b5b828202905092915050565b600080fd5b600073ffffffffffffffffffffffffffffffffffffffff82169050919050565b6000620004328262000405565b9050919050565b620004448162000425565b81146200045057600080fd5b50565b600081519050620004648162000439565b92915050565b60006020828403121562000483576200048262000400565b5b6000620004938482850162000453565b91505092915050565b613aee80620004ac6000396000f3fe608060405234801561001057600080fd5b50600436106101cf5760003560e01c80638a857bc111610104578063b3d91e41116100a2578063d92f94be11610071578063d92f94be146105a8578063d993de62146105d8578063e4a7ec4f1461060d578063f2fde38b1461063d576101cf565b8063b3d91e411461050c578063d09f90af1461052a578063d6fb295f1461055a578063d70af54e1461058a576101cf565b8063902d55a5116100de578063902d55a51461045957806393b81d001461047757806397dc4a13146104ac5780639e97e16f146104dc576101cf565b80638a857bc1146103ed5780638d95bbcf1461040b5780638da5cb5b1461043b576101cf565b806339615a53116101715780637274e30d1161014b5780637274e30d1461035e5780637bbb724f1461037c5780637c7019531461039a57806383cf17d6146103bd576101cf565b806339615a53146103065780633f06ed9d14610336578063715018a614610354576101cf565b806312260437116101ad5780631226043714610253578063141961bc146102835780632146f70c146102b85780632e0f2625146102e8576101cf565b806302405ef2146101d45780630aebeb4e146101f25780630eb6668714610222575b600080fd5b6101dc610659565b6040516101e99190612989565b60405180910390f35b61020c600480360381019061020791906129e4565b6106b8565b6040516102199190612a2c565b60405180910390f35b61023c60048036038101906102379190612b8d565b6108d6565b60405161024a929190612be9565b60405180910390f35b61026d600480360381019061026891906129e4565b610b01565b60405161027a9190612c89565b60405180910390f35b61029d600480360381019061029891906129e4565b610d11565b6040516102af96959493929190612da8565b60405180910390f35b6102d260048036038101906102cd9190612e3c565b610e0f565b6040516102df9190612a2c565b60405180910390f35b6102f0610f69565b6040516102fd9190612e85565b60405180910390f35b610320600480360381019061031b91906129e4565b610f6e565b60405161032d9190612989565b60405180910390f35b61033e6111a5565b60405161034b9190612a2c565b60405180910390f35b61035c611269565b005b6103666112f1565b6040516103739190612989565b60405180910390f35b6103846112f7565b6040516103919190612eff565b60405180910390f35b6103a261131d565b6040516103b496959493929190612f1a565b60405180910390f35b6103d760048036038101906103d291906129e4565b6113a5565b6040516103e49190612989565b60405180910390f35b6103f56115b5565b6040516104029190612989565b60405180910390f35b61042560048036038101906104209190612e3c565b6115bb565b6040516104329190612989565b60405180910390f35b6104436116ac565b6040516104509190612f82565b60405180910390f35b6104616116d5565b60405161046e9190612989565b60405180910390f35b610491600480360381019061048c9190612e3c565b6116db565b6040516104a396959493929190612f1a565b60405180910390f35b6104c660048036038101906104c191906129e4565b61170b565b6040516104d39190612a2c565b60405180910390f35b6104f660048036038101906104f19190612fc9565b611a4b565b6040516105039190612a2c565b60405180910390f35b610514611a6b565b6040516105219190612989565b60405180910390f35b610544600480360381019061053f91906129e4565b611a7f565b6040516105519190612989565b60405180910390f35b610574600480360381019061056f9190612e3c565b611af2565b6040516105819190612a2c565b60405180910390f35b61059261207f565b60405161059f9190612a2c565b60405180910390f35b6105c260048036038101906105bd91906129e4565b612096565b6040516105cf9190612ff6565b60405180910390f35b6105f260048036038101906105ed91906129e4565b61234c565b60405161060496959493929190612f1a565b60405180910390f35b61062760048036038101906106229190612e3c565b6125a3565b6040516106349190612989565b60405180910390f35b61065760048036038101906106529190612fc9565b6125bb565b005b600060015460015481111580156106705750600081115b6106af576040517f08c379a00000000000000000000000000000000000000000000000000000000081526004016106a69061305d565b60405180910390fd5b60015491505090565b60008160015481111580156106cd5750600081115b61070c576040517f08c379a00000000000000000000000000000000000000000000000000000000081526004016107039061305d565b60405180910390fd5b826005600082815260200190815260200160002060050160009054906101000a900473ffffffffffffffffffffffffffffffffffffffff1673ffffffffffffffffffffffffffffffffffffffff163373ffffffffffffffffffffffffffffffffffffffff16146107b1576040517f08c379a00000000000000000000000000000000000000000000000000000000081526004016107a8906130ef565b60405180910390fd5b83600260038111156107c6576107c5612c12565b5b6005600083815260200190815260200160002060030160009054906101000a900460ff1660038111156107fc576107fb612c12565b5b141561083d576040517f08c379a00000000000000000000000000000000000000000000000000000000081526004016108349061315b565b60405180910390fd5b60026005600087815260200190815260200160002060030160006101000a81548160ff0219169083600381111561087757610876612c12565b5b02179055507fc46b99f2efd7cd2f7d87e519d6f92b5c95da33b8d602cb27d0edccfe40afe09b60056000878152602001908152602001600020600001866040516108c2929190613271565b60405180910390a160019350505050919050565b60008060006108e68585336126b3565b905060018060008282546108fa91906132d0565b925050819055506040518060c00160405280868152602001827bffffffffffffffffffffffffffffffffffffffffffffffffffffffff1916815260200160015481526020016000600381111561095357610952612c12565b5b81526020018581526020013373ffffffffffffffffffffffffffffffffffffffff1681525060056000600154815260200190815260200160002060008201518160000190805190602001906109a99291906128cd565b5060208201518160010160006101000a81548163ffffffff021916908360e01c02179055506040820151816002015560608201518160030160006101000a81548160ff02191690836003811115610a0357610a02612c12565b5b02179055506080820151816004015560a08201518160050160006101000a81548173ffffffffffffffffffffffffffffffffffffffff021916908373ffffffffffffffffffffffffffffffffffffffff16021790555090505060015460066000837bffffffffffffffffffffffffffffffffffffffffffffffffffffffff19167bffffffffffffffffffffffffffffffffffffffffffffffffffffffff19168152602001908152602001600020819055507ff2631a889d6d622b874d228753934d83cb53da3a8ac65dcb7bd86ababdaa70f88560015483604051610ae993929190613326565b60405180910390a16001805492509250509250929050565b6000816001548111158015610b165750600081115b610b55576040517f08c379a0000000000000000000000000000000000000000000000000000000008152600401610b4c9061305d565b60405180910390fd5b6000600560008581526020019081526020016000206040518060c0016040529081600082018054610b85906131aa565b80601f0160208091040260200160405190810160405280929190818152602001828054610bb1906131aa565b8015610bfe5780601f10610bd357610100808354040283529160200191610bfe565b820191906000526020600020905b815481529060010190602001808311610be157829003601f168201915b505050505081526020016001820160009054906101000a900460e01b7bffffffffffffffffffffffffffffffffffffffffffffffffffffffff19167bffffffffffffffffffffffffffffffffffffffffffffffffffffffff19168152602001600282015481526020016003820160009054906101000a900460ff166003811115610c8b57610c8a612c12565b5b6003811115610c9d57610c9c612c12565b5b8152602001600482015481526020016005820160009054906101000a900473ffffffffffffffffffffffffffffffffffffffff1673ffffffffffffffffffffffffffffffffffffffff1673ffffffffffffffffffffffffffffffffffffffff16815250509050806060015192505050919050565b6005602052806000526040600020600091509050806000018054610d34906131aa565b80601f0160208091040260200160405190810160405280929190818152602001828054610d60906131aa565b8015610dad5780601f10610d8257610100808354040283529160200191610dad565b820191906000526020600020905b815481529060010190602001808311610d9057829003601f168201915b5050505050908060010160009054906101000a900460e01b908060020154908060030160009054906101000a900460ff16908060040154908060050160009054906101000a900473ffffffffffffffffffffffffffffffffffffffff16905086565b600060066000837bffffffffffffffffffffffffffffffffffffffffffffffffffffffff19167bffffffffffffffffffffffffffffffffffffffffffffffffffffffff19168152602001908152602001600020546005600082815260200190815260200160002060050160009054906101000a900473ffffffffffffffffffffffffffffffffffffffff1673ffffffffffffffffffffffffffffffffffffffff163373ffffffffffffffffffffffffffffffffffffffff1614610f07576040517f08c379a0000000000000000000000000000000000000000000000000000000008152600401610efe906130ef565b60405180910390fd5b610f6160066000857bffffffffffffffffffffffffffffffffffffffffffffffffffffffff19167bffffffffffffffffffffffffffffffffffffffffffffffffffffffff19168152602001908152602001600020546106b8565b915050919050565b601281565b6000816001548111158015610f835750600081115b610fc2576040517f08c379a0000000000000000000000000000000000000000000000000000000008152600401610fb99061305d565b60405180910390fd5b6000600560008581526020019081526020016000206040518060c0016040529081600082018054610ff2906131aa565b80601f016020809104026020016040519081016040528092919081815260200182805461101e906131aa565b801561106b5780601f106110405761010080835404028352916020019161106b565b820191906000526020600020905b81548152906001019060200180831161104e57829003601f168201915b505050505081526020016001820160009054906101000a900460e01b7bffffffffffffffffffffffffffffffffffffffffffffffffffffffff19167bffffffffffffffffffffffffffffffffffffffffffffffffffffffff19168152602001600282015481526020016003820160009054906101000a900460ff1660038111156110f8576110f7612c12565b5b600381111561110a57611109612c12565b5b8152602001600482015481526020016005820160009054906101000a900473ffffffffffffffffffffffffffffffffffffffff1673ffffffffffffffffffffffffffffffffffffffff1673ffffffffffffffffffffffffffffffffffffffff1681525050905060006007600086815260200190815260200160002080549050905080826080015161119b9190613364565b9350505050919050565b60006111af610659565b6005600082815260200190815260200160002060050160009054906101000a900473ffffffffffffffffffffffffffffffffffffffff1673ffffffffffffffffffffffffffffffffffffffff163373ffffffffffffffffffffffffffffffffffffffff1614611253576040517f08c379a000000000000000000000000000000000000000000000000000000000815260040161124a906130ef565b60405180910390fd5b61126361125e610659565b6106b8565b91505090565b6112716126e9565b73ffffffffffffffffffffffffffffffffffffffff1661128f6116ac565b73ffffffffffffffffffffffffffffffffffffffff16146112e5576040517f08c379a00000000000000000000000000000000000000000000000000000000081526004016112dc906133e4565b60405180910390fd5b6112ef60006126f1565b565b60015481565b600460009054906101000a900473ffffffffffffffffffffffffffffffffffffffff1681565b6060600080600080600061132f610659565b60015481111580156113415750600081115b611380576040517f08c379a00000000000000000000000000000000000000000000000000000000081526004016113779061305d565b60405180910390fd5b61139061138b610659565b61234c565b96509650965096509650965050909192939495565b60008160015481111580156113ba5750600081115b6113f9576040517f08c379a00000000000000000000000000000000000000000000000000000000081526004016113f09061305d565b60405180910390fd5b6000600560008581526020019081526020016000206040518060c0016040529081600082018054611429906131aa565b80601f0160208091040260200160405190810160405280929190818152602001828054611455906131aa565b80156114a25780601f10611477576101008083540402835291602001916114a2565b820191906000526020600020905b81548152906001019060200180831161148557829003601f168201915b505050505081526020016001820160009054906101000a900460e01b7bffffffffffffffffffffffffffffffffffffffffffffffffffffffff19167bffffffffffffffffffffffffffffffffffffffffffffffffffffffff19168152602001600282015481526020016003820160009054906101000a900460ff16600381111561152f5761152e612c12565b5b600381111561154157611540612c12565b5b8152602001600482015481526020016005820160009054906101000a900473ffffffffffffffffffffffffffffffffffffffff1673ffffffffffffffffffffffffffffffffffffffff1673ffffffffffffffffffffffffffffffffffffffff16815250509050806080015192505050919050565b60025481565b600081600060066000837bffffffffffffffffffffffffffffffffffffffffffffffffffffffff19167bffffffffffffffffffffffffffffffffffffffffffffffffffffffff191681526020019081526020016000205411611652576040517f08c379a000000000000000000000000000000000000000000000000000000000815260040161164990613450565b60405180910390fd5b60066000847bffffffffffffffffffffffffffffffffffffffffffffffffffffffff19167bffffffffffffffffffffffffffffffffffffffffffffffffffffffff1916815260200190815260200160002054915050919050565b60008060009054906101000a900473ffffffffffffffffffffffffffffffffffffffff16905090565b60035481565b606060008060008060006116f66116f1886115bb565b61234c565b95509550955095509550955091939550919395565b60008160015481111580156117205750600081115b61175f576040517f08c379a00000000000000000000000000000000000000000000000000000000081526004016117569061305d565b60405180910390fd5b6117676126e9565b73ffffffffffffffffffffffffffffffffffffffff166117856116ac565b73ffffffffffffffffffffffffffffffffffffffff16146117db576040517f08c379a00000000000000000000000000000000000000000000000000000000081526004016117d2906133e4565b60405180910390fd5b8260006005600083815260200190815260200160002060030160009054906101000a900460ff1690506002600381111561181857611817612c12565b5b81600381111561182b5761182a612c12565b5b148061185b57506001600381111561184657611845612c12565b5b81600381111561185957611858612c12565b5b145b61189a576040517f08c379a0000000000000000000000000000000000000000000000000000000008152600401611891906134e2565b60405180910390fd5b8460006007600083815260200190815260200160002080549050116118be57600080fd5b60006007600088815260200190815260200160002080549050905060005b818110156119fd576000600760008a8152602001908152602001600020828154811061190b5761190a613502565b5b9060005260206000200160009054906101000a900473ffffffffffffffffffffffffffffffffffffffff169050600460009054906101000a900473ffffffffffffffffffffffffffffffffffffffff1673ffffffffffffffffffffffffffffffffffffffff1663a9059cbb8260016040518363ffffffff1660e01b815260040161199692919061356c565b602060405180830381600087803b1580156119b057600080fd5b505af11580156119c4573d6000803e3d6000fd5b505050506040513d601f19601f820116820180604052508101906119e891906135c1565b505080806119f5906135ee565b9150506118dc565b5060036005600089815260200190815260200160002060030160006101000a81548160ff02191690836003811115611a3857611a37612c12565b5b0217905550600195505050505050919050565b60086020528060005260406000206000915054906101000a900460ff1681565b601260ff16600a611a7c919061376a565b81565b6000816001548111158015611a945750600081115b611ad3576040517f08c379a0000000000000000000000000000000000000000000000000000000008152600401611aca9061305d565b60405180910390fd5b6007600084815260200190815260200160002080549050915050919050565b600081600060066000837bffffffffffffffffffffffffffffffffffffffffffffffffffffffff19167bffffffffffffffffffffffffffffffffffffffffffffffffffffffff191681526020019081526020016000205411611b89576040517f08c379a0000000000000000000000000000000000000000000000000000000008152600401611b8090613450565b60405180910390fd5b600860003373ffffffffffffffffffffffffffffffffffffffff1673ffffffffffffffffffffffffffffffffffffffff16815260200190815260200160002060009054906101000a900460ff1615611c16576040517f08c379a0000000000000000000000000000000000000000000000000000000008152600401611c0d90613827565b60405180910390fd5b611c1f836115bb565b60016003811115611c3357611c32612c12565b5b6005600083815260200190815260200160002060030160009054906101000a900460ff166003811115611c6957611c68612c12565b5b14158015611ca2575060056000828152602001908152602001600020600401546007600083815260200190815260200160002080549050105b611ce1576040517f08c379a0000000000000000000000000000000000000000000000000000000008152600401611cd890613893565b60405180910390fd5b611cea846115bb565b6000600560008381526020019081526020016000206040518060c0016040529081600082018054611d1a906131aa565b80601f0160208091040260200160405190810160405280929190818152602001828054611d46906131aa565b8015611d935780601f10611d6857610100808354040283529160200191611d93565b820191906000526020600020905b815481529060010190602001808311611d7657829003601f168201915b505050505081526020016001820160009054906101000a900460e01b7bffffffffffffffffffffffffffffffffffffffffffffffffffffffff19167bffffffffffffffffffffffffffffffffffffffffffffffffffffffff19168152602001600282015481526020016003820160009054906101000a900460ff166003811115611e2057611e1f612c12565b5b6003811115611e3257611e31612c12565b5b8152602001600482015481526020016005820160009054906101000a900473ffffffffffffffffffffffffffffffffffffffff1673ffffffffffffffffffffffffffffffffffffffff1673ffffffffffffffffffffffffffffffffffffffff168152505090506000816000015190506000815114158015611edb575060006003811115611ec257611ec1612c12565b5b82606001516003811115611ed957611ed8612c12565b5b145b611f1a576040517f08c379a0000000000000000000000000000000000000000000000000000000008152600401611f11906138ff565b60405180910390fd5b6000611f25886115bb565b90506000600560008381526020019081526020016000206004015490508060076000848152602001908152602001600020805490501015611fd55760076000838152602001908152602001600020339080600181540180825580915050600190039060005260206000200160009091909190916101000a81548173ffffffffffffffffffffffffffffffffffffffff021916908373ffffffffffffffffffffffffffffffffffffffff1602179055505b611fde826127b5565b6001600860003373ffffffffffffffffffffffffffffffffffffffff1673ffffffffffffffffffffffffffffffffffffffff16815260200190815260200160002060006101000a81548160ff0219169083151502179055507f3479329ad3b085bce9776f2aa99ad193fd4208a8506d3db9985392b5fce30b85338360405161206792919061391f565b60405180910390a16001975050505050505050919050565b600061209161208c610659565b61170b565b905090565b60008160015481111580156120ab5750600081115b6120ea576040517f08c379a00000000000000000000000000000000000000000000000000000000081526004016120e19061305d565b60405180910390fd5b826005600082815260200190815260200160002060050160009054906101000a900473ffffffffffffffffffffffffffffffffffffffff1673ffffffffffffffffffffffffffffffffffffffff163373ffffffffffffffffffffffffffffffffffffffff161461218f576040517f08c379a0000000000000000000000000000000000000000000000000000000008152600401612186906130ef565b60405180910390fd5b6000600560008681526020019081526020016000206040518060c00160405290816000820180546121bf906131aa565b80601f01602080910402602001604051908101604052809291908181526020018280546121eb906131aa565b80156122385780601f1061220d57610100808354040283529160200191612238565b820191906000526020600020905b81548152906001019060200180831161221b57829003601f168201915b505050505081526020016001820160009054906101000a900460e01b7bffffffffffffffffffffffffffffffffffffffffffffffffffffffff19167bffffffffffffffffffffffffffffffffffffffffffffffffffffffff19168152602001600282015481526020016003820160009054906101000a900460ff1660038111156122c5576122c4612c12565b5b60038111156122d7576122d6612c12565b5b8152602001600482015481526020016005820160009054906101000a900473ffffffffffffffffffffffffffffffffffffffff1673ffffffffffffffffffffffffffffffffffffffff1673ffffffffffffffffffffffffffffffffffffffff1681525050905080602001519350505050919050565b606060008060008060008660015481111580156123695750600081115b6123a8576040517f08c379a000000000000000000000000000000000000000000000000000000000815260040161239f9061305d565b60405180910390fd5b6000600560008a81526020019081526020016000206040518060c00160405290816000820180546123d8906131aa565b80601f0160208091040260200160405190810160405280929190818152602001828054612404906131aa565b80156124515780601f1061242657610100808354040283529160200191612451565b820191906000526020600020905b81548152906001019060200180831161243457829003601f168201915b505050505081526020016001820160009054906101000a900460e01b7bffffffffffffffffffffffffffffffffffffffffffffffffffffffff19167bffffffffffffffffffffffffffffffffffffffffffffffffffffffff19168152602001600282015481526020016003820160009054906101000a900460ff1660038111156124de576124dd612c12565b5b60038111156124f0576124ef612c12565b5b8152602001600482015481526020016005820160009054906101000a900473ffffffffffffffffffffffffffffffffffffffff1673ffffffffffffffffffffffffffffffffffffffff1673ffffffffffffffffffffffffffffffffffffffff168152505090506000600760008b815260200190815260200160002080549050905081600001518260200151836060015184608001518560a001518598509850985098509850985050505091939550919395565b60066020528060005260406000206000915090505481565b6125c36126e9565b73ffffffffffffffffffffffffffffffffffffffff166125e16116ac565b73ffffffffffffffffffffffffffffffffffffffff1614612637576040517f08c379a000000000000000000000000000000000000000000000000000000000815260040161262e906133e4565b60405180910390fd5b600073ffffffffffffffffffffffffffffffffffffffff168173ffffffffffffffffffffffffffffffffffffffff1614156126a7576040517f08c379a000000000000000000000000000000000000000000000000000000000815260040161269e906139ba565b60405180910390fd5b6126b0816126f1565b50565b60008383836040516020016126ca93929190613a7f565b6040516020818303038152906040528051906020012090509392505050565b600033905090565b60008060009054906101000a900473ffffffffffffffffffffffffffffffffffffffff169050816000806101000a81548173ffffffffffffffffffffffffffffffffffffffff021916908373ffffffffffffffffffffffffffffffffffffffff1602179055508173ffffffffffffffffffffffffffffffffffffffff168173ffffffffffffffffffffffffffffffffffffffff167f8be0079c531659141344cd1fd0a4f28419497f9722a3daafe3b4186f6b6457e060405160405180910390a35050565b8060015481111580156127c85750600081115b612807576040517f08c379a00000000000000000000000000000000000000000000000000000000081526004016127fe9061305d565b60405180910390fd5b60056000838152602001908152602001600020600401546007600084815260200190815260200160002080549050141561287b5760016005600084815260200190815260200160002060030160006101000a81548160ff0219169083600381111561287557612874612c12565b5b02179055505b7f06cb8bd8c6a4102a31ce41f100ec97e0e6f550ee4dc1fbe8ad20cfa389c9b5ce60056000848152602001908152602001600020600001836040516128c1929190613271565b60405180910390a15050565b8280546128d9906131aa565b90600052602060002090601f0160209004810192826128fb5760008555612942565b82601f1061291457805160ff1916838001178555612942565b82800160010185558215612942579182015b82811115612941578251825591602001919060010190612926565b5b50905061294f9190612953565b5090565b5b8082111561296c576000816000905550600101612954565b5090565b6000819050919050565b61298381612970565b82525050565b600060208201905061299e600083018461297a565b92915050565b6000604051905090565b600080fd5b600080fd5b6129c181612970565b81146129cc57600080fd5b50565b6000813590506129de816129b8565b92915050565b6000602082840312156129fa576129f96129ae565b5b6000612a08848285016129cf565b91505092915050565b60008115159050919050565b612a2681612a11565b82525050565b6000602082019050612a416000830184612a1d565b92915050565b600080fd5b600080fd5b6000601f19601f8301169050919050565b7f4e487b7100000000000000000000000000000000000000000000000000000000600052604160045260246000fd5b612a9a82612a51565b810181811067ffffffffffffffff82111715612ab957612ab8612a62565b5b80604052505050565b6000612acc6129a4565b9050612ad88282612a91565b919050565b600067ffffffffffffffff821115612af857612af7612a62565b5b612b0182612a51565b9050602081019050919050565b82818337600083830152505050565b6000612b30612b2b84612add565b612ac2565b905082815260208101848484011115612b4c57612b4b612a4c565b5b612b57848285612b0e565b509392505050565b600082601f830112612b7457612b73612a47565b5b8135612b84848260208601612b1d565b91505092915050565b60008060408385031215612ba457612ba36129ae565b5b600083013567ffffffffffffffff811115612bc257612bc16129b3565b5b612bce85828601612b5f565b9250506020612bdf858286016129cf565b9150509250929050565b6000604082019050612bfe6000830185612a1d565b612c0b602083018461297a565b9392505050565b7f4e487b7100000000000000000000000000000000000000000000000000000000600052602160045260246000fd5b60048110612c5257612c51612c12565b5b50565b6000819050612c6382612c41565b919050565b6000612c7382612c55565b9050919050565b612c8381612c68565b82525050565b6000602082019050612c9e6000830184612c7a565b92915050565b600081519050919050565b600082825260208201905092915050565b60005b83811015612cde578082015181840152602081019050612cc3565b83811115612ced576000848401525b50505050565b6000612cfe82612ca4565b612d088185612caf565b9350612d18818560208601612cc0565b612d2181612a51565b840191505092915050565b60007fffffffff0000000000000000000000000000000000000000000000000000000082169050919050565b612d6181612d2c565b82525050565b600073ffffffffffffffffffffffffffffffffffffffff82169050919050565b6000612d9282612d67565b9050919050565b612da281612d87565b82525050565b600060c0820190508181036000830152612dc28189612cf3565b9050612dd16020830188612d58565b612dde604083018761297a565b612deb6060830186612c7a565b612df8608083018561297a565b612e0560a0830184612d99565b979650505050505050565b612e1981612d2c565b8114612e2457600080fd5b50565b600081359050612e3681612e10565b92915050565b600060208284031215612e5257612e516129ae565b5b6000612e6084828501612e27565b91505092915050565b600060ff82169050919050565b612e7f81612e69565b82525050565b6000602082019050612e9a6000830184612e76565b92915050565b6000819050919050565b6000612ec5612ec0612ebb84612d67565b612ea0565b612d67565b9050919050565b6000612ed782612eaa565b9050919050565b6000612ee982612ecc565b9050919050565b612ef981612ede565b82525050565b6000602082019050612f146000830184612ef0565b92915050565b600060c0820190508181036000830152612f348189612cf3565b9050612f436020830188612d58565b612f506040830187612c7a565b612f5d606083018661297a565b612f6a6080830185612d99565b612f7760a083018461297a565b979650505050505050565b6000602082019050612f976000830184612d99565b92915050565b612fa681612d87565b8114612fb157600080fd5b50565b600081359050612fc381612f9d565b92915050565b600060208284031215612fdf57612fde6129ae565b5b6000612fed84828501612fb4565b91505092915050565b600060208201905061300b6000830184612d58565b92915050565b7f496e76616c69642063616d706169676e20696400000000000000000000000000600082015250565b6000613047601383612caf565b915061305282613011565b602082019050919050565b600060208201905081810360008301526130768161303a565b9050919050565b7f4f6e6c792063616d706169676e20686f73742063616e20706572666f726d207460008201527f68697320616374696f6e2e000000000000000000000000000000000000000000602082015250565b60006130d9602b83612caf565b91506130e48261307d565b604082019050919050565b60006020820190508181036000830152613108816130cc565b9050919050565b7f43616d706169676e20616c726561647920636c6f7365642e0000000000000000600082015250565b6000613145601883612caf565b91506131508261310f565b602082019050919050565b6000602082019050818103600083015261317481613138565b9050919050565b7f4e487b7100000000000000000000000000000000000000000000000000000000600052602260045260246000fd5b600060028204905060018216806131c257607f821691505b602082108114156131d6576131d561317b565b5b50919050565b60008190508160005260206000209050919050565b600081546131fe816131aa565b6132088186612caf565b94506001821660008114613223576001811461323557613268565b60ff1983168652602086019350613268565b61323e856131dc565b60005b8381101561326057815481890152600182019150602081019050613241565b808801955050505b50505092915050565b6000604082019050818103600083015261328b81856131f1565b905061329a602083018461297a565b9392505050565b7f4e487b7100000000000000000000000000000000000000000000000000000000600052601160045260246000fd5b60006132db82612970565b91506132e683612970565b9250827fffffffffffffffffffffffffffffffffffffffffffffffffffffffffffffffff0382111561331b5761331a6132a1565b5b828201905092915050565b600060608201905081810360008301526133408186612cf3565b905061334f602083018561297a565b61335c6040830184612d58565b949350505050565b600061336f82612970565b915061337a83612970565b92508282101561338d5761338c6132a1565b5b828203905092915050565b7f4f776e61626c653a2063616c6c6572206973206e6f7420746865206f776e6572600082015250565b60006133ce602083612caf565b91506133d982613398565b602082019050919050565b600060208201905081810360008301526133fd816133c1565b9050919050565b7f636f646520697320696e76616c69642e00000000000000000000000000000000600082015250565b600061343a601083612caf565b915061344582613404565b602082019050919050565b600060208201905081810360008301526134698161342d565b9050919050565b7f43616d706169676e2073686f756c6420626520616c726561647920636c6f736560008201527f64206f722066756c6c2e00000000000000000000000000000000000000000000602082015250565b60006134cc602a83612caf565b91506134d782613470565b604082019050919050565b600060208201905081810360008301526134fb816134bf565b9050919050565b7f4e487b7100000000000000000000000000000000000000000000000000000000600052603260045260246000fd5b6000819050919050565b600061355661355161354c84613531565b612ea0565b612970565b9050919050565b6135668161353b565b82525050565b60006040820190506135816000830185612d99565b61358e602083018461355d565b9392505050565b61359e81612a11565b81146135a957600080fd5b50565b6000815190506135bb81613595565b92915050565b6000602082840312156135d7576135d66129ae565b5b60006135e5848285016135ac565b91505092915050565b60006135f982612970565b91507fffffffffffffffffffffffffffffffffffffffffffffffffffffffffffffffff82141561362c5761362b6132a1565b5b600182019050919050565b60008160011c9050919050565b6000808291508390505b600185111561368e5780860481111561366a576136696132a1565b5b60018516156136795780820291505b808102905061368785613637565b945061364e565b94509492505050565b6000826136a75760019050613763565b816136b55760009050613763565b81600181146136cb57600281146136d557613704565b6001915050613763565b60ff8411156136e7576136e66132a1565b5b8360020a9150848211156136fe576136fd6132a1565b5b50613763565b5060208310610133831016604e8410600b84101617156137395782820a905083811115613734576137336132a1565b5b613763565b6137468484846001613644565b9250905081840481111561375d5761375c6132a1565b5b81810290505b9392505050565b600061377582612970565b915061378083612970565b92506137ad7fffffffffffffffffffffffffffffffffffffffffffffffffffffffffffffffff8484613697565b905092915050565b7f596f75206861766520616c7265616479207265676973746572656420746f206160008201527f2063616d706169676e2e00000000000000000000000000000000000000000000602082015250565b6000613811602a83612caf565b915061381c826137b5565b604082019050919050565b6000602082019050818103600083015261384081613804565b9050919050565b7f4d61782063617061636974792072656163686564000000000000000000000000600082015250565b600061387d601483612caf565b915061388882613847565b602082019050919050565b600060208201905081810360008301526138ac81613870565b9050919050565b7f43616d706167696e206973206e6f74206f70656e000000000000000000000000600082015250565b60006138e9601483612caf565b91506138f4826138b3565b602082019050919050565b60006020820190508181036000830152613918816138dc565b9050919050565b60006040820190506139346000830185612d99565b613941602083018461297a565b9392505050565b7f4f776e61626c653a206e6577206f776e657220697320746865207a65726f206160008201527f6464726573730000000000000000000000000000000000000000000000000000602082015250565b60006139a4602683612caf565b91506139af82613948565b604082019050919050565b600060208201905081810360008301526139d381613997565b9050919050565b600081905092915050565b60006139f082612ca4565b6139fa81856139da565b9350613a0a818560208601612cc0565b80840191505092915050565b6000819050919050565b613a31613a2c82612970565b613a16565b82525050565b60008160601b9050919050565b6000613a4f82613a37565b9050919050565b6000613a6182613a44565b9050919050565b613a79613a7482612d87565b613a56565b82525050565b6000613a8b82866139e5565b9150613a978285613a20565b602082019150613aa78284613a68565b60148201915081905094935050505056fea26469706673582212201aa4a32a4fc7858eec92bcf482f58ab253c46ae22be269b03ecebca956db115664736f6c63430008090033a2646970667358221220223388105788ca6e9d878f711372d4e99c6a7409ed4667e71fc17ae19687ae4d64736f6c63430008090033",
  "immutableReferences": {},
  "source": "// SPDX-License-Identifier: MIT\npragma solidity 0.8.9;\n\nimport './EarlyBirds.sol';\nimport './Wormies.sol';\n\n\ncontract EarlyBirdsFactory{\n  EarlyBirds[] public campaignsCreated;\n\n  function create() public\n  returns(EarlyBirds){\n    Wormies wrms = new Wormies();\n    EarlyBirds ebs = new EarlyBirds(address(wrms));\n    campaignsCreated.push(ebs);\n    return(ebs);\n  }\n\n}\n\n",
  "sourcePath": "/Users/gaurav/trufflebox-react/contracts/EarlyBirdsFactory.sol",
  "compiler": {
    "name": "solc",
    "version": "0.8.9+commit.e5eed63a.Emscripten.clang"
  },
  "schemaVersion": "3.4.4",
  "updatedAt": "2022-01-22T12:53:25.148Z",
  "devdoc": {
    "kind": "dev",
    "methods": {},
    "version": 1
  },
  "userdoc": {
    "kind": "user",
    "methods": {},
    "version": 1
  }
}